{"contracts/EvidenceRegistry.sol":{"EvidenceRegistry":{"abi":[{"inputs":[{"internalType":"uint256","name":"_requiredApprovals","type":"uint256"}],"stateMutability":"nonpayable","type":"constructor"},{"anonymous":false,"inputs":[{"indexed":true,"internalType":"bytes32","name":"evidenceId","type":"bytes32"},{"indexed":true,"internalType":"bytes32","name":"caseId","type":"bytes32"},{"indexed":true,"internalType":"bytes32","name":"fileHash","type":"bytes32"},{"indexed":false,"internalType":"address","name":"collectedBy","type":"address"},{"indexed":false,"internalType":"enum EvidenceRegistry.EvidenceType","name":"evidenceType","type":"uint8"},{"indexed":false,"internalType":"uint256","name":"timestamp","type":"uint256"}],"name":"EvidenceRegistered","type":"event"},{"anonymous":false,"inputs":[{"indexed":true,"internalType":"bytes32","name":"evidenceId","type":"bytes32"},{"indexed":false,"internalType":"enum EvidenceRegistry.EvidenceStatus","name":"previousStatus","type":"uint8"},{"indexed":false,"internalType":"enum EvidenceRegistry.EvidenceStatus","name":"newStatus","type":"uint8"},{"indexed":false,"internalType":"address","name":"updatedBy","type":"address"},{"indexed":false,"internalType":"uint256","name":"timestamp","type":"uint256"}],"name":"EvidenceStatusUpdated","type":"event"},{"anonymous":false,"inputs":[{"indexed":true,"internalType":"bytes32","name":"evidenceId","type":"bytes32"},{"indexed":true,"internalType":"address","name":"fromOfficer","type":"address"},{"indexed":true,"internalType":"address","name":"toOfficer","type":"address"},{"indexed":false,"internalType":"bytes32","name":"reasonHash","type":"bytes32"},{"indexed":false,"internalType":"uint256","name":"timestamp","type":"uint256"}],"name":"EvidenceTransferred","type":"event"},{"anonymous":false,"inputs":[{"indexed":true,"internalType":"bytes32","name":"evidenceId","type":"bytes32"},{"indexed":true,"internalType":"address","name":"verifiedBy","type":"address"},{"indexed":false,"internalType":"bool","name":"isAuthentic","type":"bool"},{"indexed":false,"internalType":"uint256","name":"timestamp","type":"uint256"}],"name":"EvidenceVerified","type":"event"},{"anonymous":false,"inputs":[{"indexed":true,"internalType":"address","name":"wallet","type":"address"},{"indexed":true,"internalType":"address","name":"deactivatedBy","type":"address"},{"indexed":false,"internalType":"uint256","name":"timestamp","type":"uint256"}],"name":"OfficerDeactivated","type":"event"},{"anonymous":false,"inputs":[{"indexed":true,"internalType":"address","name":"wallet","type":"address"},{"indexed":true,"internalType":"bytes32","name":"role","type":"bytes32"},{"indexed":false,"internalType":"uint256","name":"timestamp","type":"uint256"}],"name":"OfficerRegistered","type":"event"},{"anonymous":false,"inputs":[{"indexed":false,"internalType":"uint256","name":"oldValue","type":"uint256"},{"indexed":false,"internalType":"uint256","name":"newValue","type":"uint256"},{"indexed":false,"internalType":"uint256","name":"timestamp","type":"uint256"}],"name":"RequiredApprovalsUpdated","type":"event"},{"anonymous":false,"inputs":[{"indexed":true,"internalType":"bytes32","name":"requestId","type":"bytes32"},{"indexed":true,"internalType":"address","name":"approver","type":"address"},{"indexed":false,"internalType":"uint256","name":"approvalCount","type":"uint256"},{"indexed":false,"internalType":"uint256","name":"timestamp","type":"uint256"}],"name":"TransferRequestApproved","type":"event"},{"anonymous":false,"inputs":[{"indexed":true,"internalType":"bytes32","name":"requestId","type":"bytes32"},{"indexed":true,"internalType":"address","name":"cancelledBy","type":"address"},{"indexed":false,"internalType":"uint256","name":"timestamp","type":"uint256"}],"name":"TransferRequestCancelled","type":"event"},{"anonymous":false,"inputs":[{"indexed":true,"internalType":"bytes32","name":"requestId","type":"bytes32"},{"indexed":true,"internalType":"bytes32","name":"evidenceId","type":"bytes32"},{"indexed":true,"internalType":"address","name":"proposedOwner","type":"address"},{"indexed":false,"internalType":"uint256","name":"timestamp","type":"uint256"}],"name":"TransferRequestCreated","type":"event"},{"anonymous":false,"inputs":[{"indexed":true,"internalType":"bytes32","name":"requestId","type":"bytes32"},{"indexed":true,"internalType":"bytes32","name":"evidenceId","type":"bytes32"},{"indexed":false,"internalType":"address","name":"newOwner","type":"address"},{"indexed":false,"internalType":"uint256","name":"timestamp","type":"uint256"}],"name":"TransferRequestExecuted","type":"event"},{"inputs":[],"name":"ADMIN_ROLE","outputs":[{"internalType":"bytes32","name":"","type":"bytes32"}],"stateMutability":"view","type":"function"},{"inputs":[],"name":"AUDITOR_ROLE","outputs":[{"internalType":"bytes32","name":"","type":"bytes32"}],"stateMutability":"view","type":"function"},{"inputs":[],"name":"INVESTIGATOR_ROLE","outputs":[{"internalType":"bytes32","name":"","type":"bytes32"}],"stateMutability":"view","type":"function"},{"inputs":[{"internalType":"bytes32","name":"requestId","type":"bytes32"}],"name":"approveTransfer","outputs":[],"stateMutability":"nonpayable","type":"function"},{"inputs":[{"internalType":"bytes32[]","name":"evidenceIds","type":"bytes32[]"},{"internalType":"bytes32[]","name":"submittedHashes","type":"bytes32[]"}],"name":"batchVerifyEvidence","outputs":[{"internalType":"bool[]","name":"results","type":"bool[]"}],"stateMutability":"nonpayable","type":"function"},{"inputs":[{"internalType":"bytes32","name":"requestId","type":"bytes32"}],"name":"cancelTransferRequest","outputs":[],"stateMutability":"nonpayable","type":"function"},{"inputs":[{"internalType":"address","name":"wallet","type":"address"}],"name":"deactivateOfficer","outputs":[],"stateMutability":"nonpayable","type":"function"},{"inputs":[],"name":"evidenceCounter","outputs":[{"internalType":"uint256","name":"","type":"uint256"}],"stateMutability":"view","type":"function"},{"inputs":[{"internalType":"bytes32","name":"requestId","type":"bytes32"}],"name":"executeTransfer","outputs":[],"stateMutability":"nonpayable","type":"function"},{"inputs":[{"internalType":"bytes32","name":"evidenceId","type":"bytes32"},{"internalType":"bytes32","name":"reasonHash","type":"bytes32"}],"name":"forceArchive","outputs":[],"stateMutability":"nonpayable","type":"function"},{"inputs":[{"internalType":"bytes32","name":"caseId","type":"bytes32"}],"name":"getEvidenceByCase","outputs":[{"internalType":"bytes32[]","name":"","type":"bytes32[]"}],"stateMutability":"view","type":"function"},{"inputs":[{"internalType":"bytes32","name":"evidenceId","type":"bytes32"}],"name":"getEvidenceDetails","outputs":[{"components":[{"internalType":"bytes32","name":"evidenceId","type":"bytes32"},{"internalType":"bytes32","name":"caseId","type":"bytes32"},{"internalType":"bytes32","name":"fileHash","type":"bytes32"},{"internalType":"string","name":"fileURI","type":"string"},{"internalType":"string","name":"title","type":"string"},{"internalType":"bytes32","name":"descriptionHash","type":"bytes32"},{"internalType":"enum EvidenceRegistry.EvidenceType","name":"evidenceType","type":"uint8"},{"internalType":"bytes32","name":"locationHash","type":"bytes32"},{"internalType":"address","name":"collectedBy","type":"address"},{"internalType":"address","name":"currentOwner","type":"address"},{"internalType":"uint256","name":"collectedAt","type":"uint256"},{"internalType":"uint256","name":"registeredAt","type":"uint256"},{"internalType":"enum EvidenceRegistry.EvidenceStatus","name":"status","type":"uint8"},{"internalType":"bool","name":"exists","type":"bool"},{"internalType":"bool","name":"isSensitive","type":"bool"},{"internalType":"uint256","name":"custodyCount","type":"uint256"},{"internalType":"uint8","name":"verificationCount","type":"uint8"}],"internalType":"struct EvidenceRegistry.Evidence","name":"","type":"tuple"}],"stateMutability":"view","type":"function"},{"inputs":[{"internalType":"bytes32","name":"evidenceId","type":"bytes32"}],"name":"getEvidenceHistory","outputs":[{"components":[{"internalType":"address","name":"fromAddress","type":"address"},{"internalType":"address","name":"toAddress","type":"address"},{"internalType":"enum EvidenceRegistry.EvidenceStatus","name":"previousStatus","type":"uint8"},{"internalType":"enum EvidenceRegistry.EvidenceStatus","name":"newStatus","type":"uint8"},{"internalType":"bytes32","name":"actionHash","type":"bytes32"},{"internalType":"uint256","name":"timestamp","type":"uint256"},{"internalType":"bytes32","name":"txContext","type":"bytes32"}],"internalType":"struct EvidenceRegistry.CustodyRecord[]","name":"","type":"tuple[]"}],"stateMutability":"view","type":"function"},{"inputs":[{"internalType":"bytes32","name":"evidenceId","type":"bytes32"}],"name":"getEvidenceStatus","outputs":[{"internalType":"enum EvidenceRegistry.EvidenceStatus","name":"status","type":"uint8"},{"internalType":"address","name":"currentOwner","type":"address"},{"internalType":"uint256","name":"custodyCount","type":"uint256"}],"stateMutability":"view","type":"function"},{"inputs":[{"internalType":"address","name":"wallet","type":"address"}],"name":"getOfficerDetails","outputs":[{"components":[{"internalType":"address","name":"wallet","type":"address"},{"internalType":"bytes32","name":"nameHash","type":"bytes32"},{"internalType":"bytes32","name":"badgeHash","type":"bytes32"},{"internalType":"bytes32","name":"role","type":"bytes32"},{"internalType":"bool","name":"isActive","type":"bool"},{"internalType":"uint256","name":"registeredAt","type":"uint256"},{"internalType":"uint256","name":"evidenceCount","type":"uint256"}],"internalType":"struct EvidenceRegistry.Officer","name":"","type":"tuple"}],"stateMutability":"view","type":"function"},{"inputs":[{"internalType":"address","name":"wallet","type":"address"}],"name":"getRoleOf","outputs":[{"internalType":"bytes32","name":"","type":"bytes32"}],"stateMutability":"view","type":"function"},{"inputs":[{"internalType":"bytes32","name":"requestId","type":"bytes32"}],"name":"getTransferRequest","outputs":[{"components":[{"internalType":"bytes32","name":"evidenceId","type":"bytes32"},{"internalType":"address","name":"initiator","type":"address"},{"internalType":"address","name":"proposedOwner","type":"address"},{"internalType":"bytes32","name":"reasonHash","type":"bytes32"},{"internalType":"uint256","name":"createdAt","type":"uint256"},{"internalType":"uint256","name":"approvalCount","type":"uint256"},{"internalType":"bool","name":"executed","type":"bool"},{"internalType":"bool","name":"cancelled","type":"bool"},{"internalType":"address[]","name":"approvers","type":"address[]"}],"internalType":"struct EvidenceRegistry.TransferRequest","name":"","type":"tuple"}],"stateMutability":"view","type":"function"},{"inputs":[{"internalType":"bytes32","name":"evidenceId","type":"bytes32"}],"name":"getVerificationLog","outputs":[{"internalType":"address[]","name":"","type":"address[]"}],"stateMutability":"view","type":"function"},{"inputs":[{"internalType":"bytes32","name":"fileHash","type":"bytes32"}],"name":"isFileHashRegistered","outputs":[{"internalType":"bool","name":"","type":"bool"}],"stateMutability":"view","type":"function"},{"inputs":[{"internalType":"address","name":"","type":"address"}],"name":"isRegistered","outputs":[{"internalType":"bool","name":"","type":"bool"}],"stateMutability":"view","type":"function"},{"inputs":[{"internalType":"bytes32","name":"evidenceId","type":"bytes32"},{"internalType":"bytes32","name":"fileHash","type":"bytes32"}],"name":"quickVerify","outputs":[{"internalType":"bool","name":"","type":"bool"}],"stateMutability":"view","type":"function"},{"inputs":[{"internalType":"address","name":"wallet","type":"address"}],"name":"reactivateOfficer","outputs":[],"stateMutability":"nonpayable","type":"function"},{"inputs":[{"internalType":"bytes32","name":"caseId","type":"bytes32"},{"internalType":"bytes32","name":"fileHash","type":"bytes32"},{"internalType":"string","name":"fileURI","type":"string"},{"internalType":"string","name":"title","type":"string"},{"internalType":"bytes32","name":"descriptionHash","type":"bytes32"},{"internalType":"enum EvidenceRegistry.EvidenceType","name":"evidenceType","type":"uint8"},{"internalType":"bytes32","name":"locationHash","type":"bytes32"},{"internalType":"uint256","name":"collectedAt","type":"uint256"},{"internalType":"bool","name":"isSensitive","type":"bool"}],"name":"registerEvidence","outputs":[{"internalType":"bytes32","name":"evidenceId","type":"bytes32"}],"stateMutability":"nonpayable","type":"function"},{"inputs":[{"internalType":"address","name":"wallet","type":"address"},{"internalType":"bytes32","name":"nameHash","type":"bytes32"},{"internalType":"bytes32","name":"badgeHash","type":"bytes32"},{"internalType":"bytes32","name":"role","type":"bytes32"}],"name":"registerOfficer","outputs":[],"stateMutability":"nonpayable","type":"function"},{"inputs":[{"internalType":"bytes32","name":"evidenceId","type":"bytes32"},{"internalType":"address","name":"proposedOwner","type":"address"},{"internalType":"bytes32","name":"reasonHash","type":"bytes32"}],"name":"requestTransfer","outputs":[{"internalType":"bytes32","name":"requestId","type":"bytes32"}],"stateMutability":"nonpayable","type":"function"},{"inputs":[],"name":"requiredApprovals","outputs":[{"internalType":"uint256","name":"","type":"uint256"}],"stateMutability":"view","type":"function"},{"inputs":[{"internalType":"uint256","name":"newValue","type":"uint256"}],"name":"setRequiredApprovals","outputs":[],"stateMutability":"nonpayable","type":"function"},{"inputs":[{"internalType":"bytes32","name":"evidenceId","type":"bytes32"},{"internalType":"bool","name":"sensitive","type":"bool"}],"name":"setSensitiveFlag","outputs":[],"stateMutability":"nonpayable","type":"function"},{"inputs":[],"name":"superAdmin","outputs":[{"internalType":"address","name":"","type":"address"}],"stateMutability":"view","type":"function"},{"inputs":[],"name":"totalEvidenceCount","outputs":[{"internalType":"uint256","name":"","type":"uint256"}],"stateMutability":"view","type":"function"},{"inputs":[{"internalType":"bytes32","name":"evidenceId","type":"bytes32"},{"internalType":"address","name":"toOfficer","type":"address"},{"internalType":"bytes32","name":"reasonHash","type":"bytes32"}],"name":"transferEvidence","outputs":[],"stateMutability":"nonpayable","type":"function"},{"inputs":[{"internalType":"address","name":"newAdmin","type":"address"}],"name":"transferSuperAdmin","outputs":[],"stateMutability":"nonpayable","type":"function"},{"inputs":[{"internalType":"bytes32","name":"evidenceId","type":"bytes32"},{"internalType":"enum EvidenceRegistry.EvidenceStatus","name":"newStatus","type":"uint8"},{"internalType":"bytes32","name":"actionHash","type":"bytes32"}],"name":"updateEvidenceStatus","outputs":[],"stateMutability":"nonpayable","type":"function"},{"inputs":[{"internalType":"bytes32","name":"evidenceId","type":"bytes32"},{"internalType":"bytes32","name":"submittedHash","type":"bytes32"}],"name":"verifyEvidence","outputs":[{"internalType":"bool","name":"isAuthentic","type":"bool"},{"internalType":"bytes32","name":"registeredHash","type":"bytes32"},{"internalType":"uint256","name":"registeredAt","type":"uint256"}],"stateMutability":"nonpayable","type":"function"}],"evm":{"bytecode":{"linkReferences":{},"object":"60806040523480156200001157600080fd5b5060405162004cda38038062004cda833981016040819052620000349162000222565b60018110156200009b5760405162461bcd60e51b815260206004820152602860248201527f45766964656e636552656769737472793a20617070726f76616c73206d757374604482015267206265203e3d203160c01b606482015260840160405180910390fd5b600080546001600160a01b03191633908117909155600282905562000123907fdd461f7a057ddf7203381cfeb18d9a007bd3e9b45fa1efec12b4c520e431169c7f2d937f760174effa2e517d235f1f7fad94d9dc1a9d213d421ecf17231f0f33f27fa49807205ce4d355092ef5a8a18f56e8913cf4a201fbe287825b095693c217756200012a565b506200023c565b6040805160e0810182526001600160a01b038681168083526020808401888152848601888152606086018881526001608088018181524260a08a01818152600060c08c018181528a825260078a528d82209c518d549c166001600160a01b0319909c169b909b178c5596518b850155945160028b0155925160038a01555160048901805491151560ff19928316179055925160058901559551600690970196909655600883528682208890556009835290869020805490911690931790925592519182528392917f859c6b2878a47695a653dffd0c43d1109b4f714f5c05f76caa51a42ac04ac278910160405180910390a350505050565b6000602082840312156200023557600080fd5b5051919050565b614a8e806200024c6000396000f3fe608060405234801561001057600080fd5b50600436106102065760003560e01c80636e1d616e1161011a578063b87c1114116100ad578063c8f3ac2a1161007c578063c8f3ac2a14610527578063c93380c614610547578063dd498ee014610567578063e4d92da114610597578063fef15fec146105c057600080fd5b8063b87c1114146104d5578063ba33984a146104de578063bdf8f103146104f1578063c3c5a5471461050457600080fd5b80638c8b79bd116100e95780638c8b79bd146104375780638ecf7d5f146104a657806399c1aadc146104b9578063a2575918146104c257600080fd5b80636e1d616e146103c8578063731b1c11146103ef57806375b238fc14610402578063898e3be41461041757600080fd5b80632e7b09e31161019d5780634719c01d1161016c5780634719c01d1461033f5780634aba8826146103525780634b8bbabb1461037557806359d83d2c146103955780635bbef012146103a857600080fd5b80632e7b09e3146102fc578063315e6dd1146103045780633c80e4b7146103195780633cb36bb01461032c57600080fd5b80631c22a82d116101d95780631c22a82d1461027b578063222a242e1461029c578063227e6aa9146102af57806329575f6a146102d157600080fd5b806303263c241461020b5780630c6dd9fd146102335780630cda2a94146102485780631b92c4d71461025b575b600080fd5b61021e610219366004613c91565b6105d3565b60405190151581526020015b60405180910390f35b610246610241366004613cca565b61062d565b005b610246610256366004613cca565b6107ac565b61026e610269366004613cec565b61085c565b60405161022a9190613d85565b61028e610289366004613f15565b610bcc565b60405190815260200161022a565b6102466102aa366004613cec565b61125e565b6102c26102bd366004613cec565b611324565b60405161022a93929190613fe0565b6000546102e4906001600160a01b031681565b6040516001600160a01b03909116815260200161022a565b60015461028e565b61028e6000805160206149f983398151915281565b61028e610327366004614008565b611396565b61024661033a366004613c91565b6118cd565b61024661034d366004613cca565b611a1f565b61021e610360366004613cec565b60009081526006602052604090205460ff1690565b610388610383366004613cec565b611b81565b60405161022a919061403d565b6102466103a3366004614081565b611c46565b6103bb6103b6366004613cec565b611dec565b60405161022a91906140ba565b61028e7f59a1c48e5837ad7a7f3dcedcbe129bf3249ec4fbf651fd4f5e2600ead39fe2f581565b6102466103fd366004614008565b611f9e565b61028e600080516020614a1983398151915281565b61042a6104253660046141a0565b6124ad565b60405161022a919061420c565b61044a610445366004613cca565b6127ff565b60405161022a919081516001600160a01b0316815260208083015190820152604080830151908201526060808301519082015260808083015115159082015260a0828101519082015260c0918201519181019190915260e00190565b6102466104b4366004613cec565b612941565b61028e60025481565b6102466104d0366004614246565b612b5d565b61028e60015481565b6102466104ec366004613cec565b612eeb565b6102466104ff366004613cec565b6130d6565b61021e610512366004613cca565b60096020526000908152604090205460ff1681565b61053a610535366004613cec565b613367565b60405161022a91906142c6565b61055a610555366004613cec565b61355c565b60405161022a919061436c565b61057a610575366004613c91565b613663565b60408051931515845260208401929092529082015260600161022a565b61028e6105a5366004613cca565b6001600160a01b031660009081526008602052604090205490565b6102466105ce36600461437f565b6137db565b6000828152600360205260408120600c01548390610100900460ff166106145760405162461bcd60e51b815260040161060b906143ab565b60405180910390fd5b5050600091825260036020526040909120600201541490565b6000546001600160a01b031633146106575760405162461bcd60e51b815260040161060b906143f4565b6001600160a01b03811661067d5760405162461bcd60e51b815260040161060b9061442d565b6001600160a01b03811660009081526009602052604090205460ff166106fc5760405162461bcd60e51b815260206004820152602e60248201527f45766964656e636552656769737472793a206e65772061646d696e206d75737460448201526d081899481c9959da5cdd195c995960921b606482015260840161060b565b6001600160a01b038116600090815260086020526040902054600080516020614a198339815191521461078a5760405162461bcd60e51b815260206004820152603060248201527f45766964656e636552656769737472793a206e65772061646d696e206d75737460448201526f20686176652041444d494e5f524f4c4560801b606482015260840161060b565b600080546001600160a01b0319166001600160a01b0392909216919091179055565b33600090815260086020526040902054600080516020614a1983398151915214806107e157506000546001600160a01b031633145b6107fd5760405162461bcd60e51b815260040161060b9061446e565b6001600160a01b03811660009081526009602052604090205460ff166108355760405162461bcd60e51b815260040161060b906144a4565b6001600160a01b03166000908152600760205260409020600401805460ff19166001179055565b6040805161022081018252600080825260208083018290528284018290526060808401819052608084015260a0830182905260c0830182905260e08301829052610100830182905261012083018290526101408301829052610160830182905261018083018290526101a083018290526101c083018290526101e08301829052610200830182905233825260099052919091205460ff1661090f5760405162461bcd60e51b815260040161060b906144e7565b3360009081526007602052604090206004015460ff166109415760405162461bcd60e51b815260040161060b9061451f565b6000828152600360205260409020600c01548290610100900460ff166109795760405162461bcd60e51b815260040161060b906143ab565b60036000848152602001908152602001600020604051806102200160405290816000820154815260200160018201548152602001600282015481526020016003820180546109c690614567565b80601f01602080910402602001604051908101604052809291908181526020018280546109f290614567565b8015610a3f5780601f10610a1457610100808354040283529160200191610a3f565b820191906000526020600020905b815481529060010190602001808311610a2257829003601f168201915b50505050508152602001600482018054610a5890614567565b80601f0160208091040260200160405190810160405280929190818152602001828054610a8490614567565b8015610ad15780601f10610aa657610100808354040283529160200191610ad1565b820191906000526020600020905b815481529060010190602001808311610ab457829003601f168201915b50505091835250506005820154602082015260068083015460409092019160ff1690811115610b0257610b02613d4b565b6006811115610b1357610b13613d4b565b81526007820154602082015260088201546001600160a01b0390811660408301526009830154166060820152600a8201546080820152600b82015460a0820152600c82015460c09091019060ff166005811115610b7257610b72613d4b565b6005811115610b8357610b83613d4b565b8152600c82015460ff610100820481161515602084015262010000909104811615156040830152600d8301546060830152600e9092015490911660809091015291505b50919050565b3360009081526009602052604081205460ff16610bfb5760405162461bcd60e51b815260040161060b906144e7565b3360009081526007602052604090206004015460ff16610c2d5760405162461bcd60e51b815260040161060b9061451f565b336000908152600860205260409020546000805160206149f98339815191521480610c74575033600090815260086020526040902054600080516020614a19833981519152145b80610c8957506000546001600160a01b031633145b610ca55760405162461bcd60e51b815260040161060b9061459b565b8b610cf25760405162461bcd60e51b815260206004820181905260248201527f45766964656e636552656769737472793a20696e76616c696420636173654964604482015260640161060b565b8a610d4a5760405162461bcd60e51b815260206004820152602260248201527f45766964656e636552656769737472793a20696e76616c69642066696c6548616044820152610e6d60f31b606482015260840161060b565b88610da25760405162461bcd60e51b815260206004820152602260248201527f45766964656e636552656769737472793a2066696c6555524920726571756972604482015261195960f21b606482015260840161060b565b86610def5760405162461bcd60e51b815260206004820181905260248201527f45766964656e636552656769737472793a207469746c65207265717569726564604482015260640161060b565b42831115610e505760405162461bcd60e51b815260206004820152602860248201527f45766964656e636552656769737472793a2066757475726520636f6c6c656374604482015267696f6e206461746560c01b606482015260840161060b565b60008b81526006602052604090205460ff1615610ec15760405162461bcd60e51b815260206004820152602960248201527f45766964656e636552656769737472793a2066696c6520616c726561647920726044820152681959da5cdd195c995960ba1b606482015260840161060b565b60018054906000610ed1836145ee565b909155505060015460408051602081018f90529081018d9052426060820152608081019190915260a0016040516020818303038152906040528051906020012090506040518061022001604052808281526020018d81526020018c81526020018b8b8080601f016020809104026020016040519081016040528093929190818152602001838380828437600092019190915250505090825250604080516020601f8c018190048102820181019092528a815291810191908b908b908190840183828082843760009201919091525050509082525060208101889052604001866006811115610fc157610fc1613d4b565b81526020810186905233604082018190526060820152608081018590524260a082015260c00160008152602001600115158152602001831515815260200160008152602001600060ff16815250600360008381526020019081526020016000206000820151816000015560208201518160010155604082015181600201556060820151816003019081611054919061466c565b5060808201516004820190611069908261466c565b5060a0820151816005015560c08201518160060160006101000a81548160ff0219169083600681111561109e5761109e613d4b565b021790555060e082015160078201556101008201516008820180546001600160a01b039283166001600160a01b031991821617909155610120840151600984018054919093169116179055610140820151600a820155610160820151600b820155610180820151600c8201805460ff1916600183600581111561112357611123613d4b565b02179055506101a0820151600c820180546101c08501511515620100000262ff000019931515610100029390931662ffff0019909116179190911790556101e0820151600d82015561020090910151600e909101805460ff9290921660ff199092169190911790556111ba8160003381807fda308784dbc9d9c0ebad2bb66764ee1b914272a49555d7caaa007a0b732436e3613891565b60008c8152600560209081526040808320805460018181018355918552838520018590558e84526006808452828520805460ff1916909217909155338452600790925282200180549161120c836145ee565b91905055508a8c827f91b9217da5b1ad4c6db6f1e55ad2c6f1ae937f9733118350f4436e11233dcc423389426040516112479392919061472c565b60405180910390a49b9a5050505050505050505050565b6000546001600160a01b031633146112885760405162461bcd60e51b815260040161060b906143f4565b60018110156112d95760405162461bcd60e51b815260206004820152601e60248201527f45766964656e636552656769737472793a206d757374206265203e3d20310000604482015260640161060b565b60028054908290556040805182815260208101849052428183015290517fb7326983450709450e1dde693a137f1f6f0ce511f8e05259772cf4cee23ed3aa9181900360600190a15050565b6000818152600360205260408120600c0154819081908490610100900460ff166113605760405162461bcd60e51b815260040161060b906143ab565b505050600091825250600360205260409020600c8101546009820154600d9092015460ff909116926001600160a01b0390921691565b3360009081526009602052604081205460ff166113c55760405162461bcd60e51b815260040161060b906144e7565b3360009081526007602052604090206004015460ff166113f75760405162461bcd60e51b815260040161060b9061451f565b336000908152600860205260409020546000805160206149f9833981519152148061143e575033600090815260086020526040902054600080516020614a19833981519152145b8061145357506000546001600160a01b031633145b61146f5760405162461bcd60e51b815260040161060b9061459b565b6000848152600360205260409020600c01548490610100900460ff166114a75760405162461bcd60e51b815260040161060b906143ab565b60008581526003602052604090206009015485906001600160a01b03163314806114ed575033600090815260086020526040902054600080516020614a19833981519152145b8061150257506000546001600160a01b031633145b61151e5760405162461bcd60e51b815260040161060b90614757565b6000868152600360205260409020600c81015462010000900460ff166115ac5760405162461bcd60e51b815260206004820152603860248201527f45766964656e636552656769737472793a20757365207472616e73666572457660448201527f6964656e636520666f72206e6f6e2d73656e7369746976650000000000000000606482015260840161060b565b6001600160a01b0386166115d25760405162461bcd60e51b815260040161060b90614793565b336001600160a01b038716036115fa5760405162461bcd60e51b815260040161060b906147d6565b6001600160a01b03861660009081526009602052604090205460ff166116325760405162461bcd60e51b815260040161060b90614823565b6001600160a01b03861660009081526007602052604090206004015460ff166116a95760405162461bcd60e51b8152602060048201526024808201527f45766964656e636552656769737472793a20726563697069656e7420696e61636044820152637469766560e01b606482015260840161060b565b6004600c82015460ff1660058111156116c4576116c4613d4b565b141580156116eb57506005600c82015460ff1660058111156116e8576116e8613d4b565b14155b6117075760405162461bcd60e51b815260040161060b9061486d565b6040805160208082018a9052606089811b6bffffffffffffffffffffffff199081168486015242605485018190523380841b909216607486015285516068818703018152608886018088528151918601919091206101a8870188528e825260a887019384526001600160a01b03808f1660c8890190815260e889018f81526101088a0195865260006101288b018181526101488c018281526101688d01838152610188909d018b8152878452600a8d529d90922087518155985160018a0180549187166001600160a01b0319928316179055935160028a0180549190961694169390931790935551600387015593516004860155925160058501559151600684018054975115156101000261ff00199215159290921661ffff1990981697909717179095559451805195995091949092611848926007850192910190613c17565b5050600c80546001810182556000919091527fdf6966c971051c3d54ec59162606531493a51404a002842f56009d7e5cf4a8c701869055506040514281526001600160a01b03881690899087907fccd8109f16a83b8f6083ce9841da08183cfcaa013a044deb6751b8595bd35c139060200160405180910390a4505050509392505050565b6000546001600160a01b031633146118f75760405162461bcd60e51b815260040161060b906143f4565b6000828152600360205260409020600c01548290610100900460ff1661192f5760405162461bcd60e51b815260040161060b906143ab565b60008381526003602052604090206004600c82015460ff16600581111561195857611958613d4b565b036119b05760405162461bcd60e51b815260206004820152602260248201527f45766964656e636552656769737472793a20616c726561647920617263686976604482015261195960f21b606482015260840161060b565b600c8101805460ff81169160049160ff191660018302179055506119d985333384600489613891565b847f51e50e7fa27c95e766d37fe2f233d4f246fd9a80951686ad26ff03b7392e662f8260043342604051611a1094939291906148c0565b60405180910390a25050505050565b33600090815260086020526040902054600080516020614a198339815191521480611a5457506000546001600160a01b031633145b611a705760405162461bcd60e51b815260040161060b9061446e565b6001600160a01b03811660009081526009602052604090205460ff16611aa85760405162461bcd60e51b815260040161060b906144a4565b6000546001600160a01b0390811690821603611b1e5760405162461bcd60e51b815260206004820152602f60248201527f45766964656e636552656769737472793a2063616e6e6f74206465616374697660448201526e30ba329039bab832b91030b236b4b760891b606482015260840161060b565b6001600160a01b03811660008181526007602052604090819020600401805460ff19169055513391907fed34f29a0fc7580b9c9444a8bc062d4242d76236bba6e165c60b15cc26a58fb390611b769042815260200190565b60405180910390a350565b3360009081526009602052604090205460609060ff16611bb35760405162461bcd60e51b815260040161060b906144e7565b3360009081526007602052604090206004015460ff16611be55760405162461bcd60e51b815260040161060b9061451f565b60008281526005602090815260409182902080548351818402810184019094528084529091830182828015611c3957602002820191906000526020600020905b815481526020019060010190808311611c25575b505050505090505b919050565b33600090815260086020526040902054600080516020614a198339815191521480611c7b57506000546001600160a01b031633145b611c975760405162461bcd60e51b815260040161060b9061446e565b6001600160a01b038416611cbd5760405162461bcd60e51b815260040161060b9061442d565b6001600160a01b03841660009081526009602052604090205460ff1615611d3b5760405162461bcd60e51b815260206004820152602c60248201527f45766964656e636552656769737472793a206f66666963657220616c7265616460448201526b1e481c9959da5cdd195c995960a21b606482015260840161060b565b600080516020614a19833981519152811480611d6457506000805160206149f983398151915281145b80611d8e57507f59a1c48e5837ad7a7f3dcedcbe129bf3249ec4fbf651fd4f5e2600ead39fe2f581145b611dda5760405162461bcd60e51b815260206004820152601e60248201527f45766964656e636552656769737472793a20696e76616c696420726f6c650000604482015260640161060b565b611de684848484613a32565b50505050565b3360009081526009602052604090205460609060ff16611e1e5760405162461bcd60e51b815260040161060b906144e7565b3360009081526007602052604090206004015460ff16611e505760405162461bcd60e51b815260040161060b9061451f565b6000828152600360205260409020600c01548290610100900460ff16611e885760405162461bcd60e51b815260040161060b906143ab565b600083815260046020908152604080832080548251818502810185019093528083529193909284015b82821015611f925760008481526020908190206040805160e081018252600586810290930180546001600160a01b0390811683526001820154908116958301959095529093909291840191600160a01b90910460ff1690811115611f1757611f17613d4b565b6005811115611f2857611f28613d4b565b81526020016001820160159054906101000a900460ff166005811115611f5057611f50613d4b565b6005811115611f6157611f61613d4b565b8152602001600282015481526020016003820154815260200160048201548152505081526020019060010190611eb1565b50505050915050919050565b3360009081526009602052604090205460ff16611fcd5760405162461bcd60e51b815260040161060b906144e7565b3360009081526007602052604090206004015460ff16611fff5760405162461bcd60e51b815260040161060b9061451f565b336000908152600860205260409020546000805160206149f98339815191521480612046575033600090815260086020526040902054600080516020614a19833981519152145b8061205b57506000546001600160a01b031633145b6120775760405162461bcd60e51b815260040161060b9061459b565b6000838152600360205260409020600c01548390610100900460ff166120af5760405162461bcd60e51b815260040161060b906143ab565b60008481526003602052604090206009015484906001600160a01b03163314806120f5575033600090815260086020526040902054600080516020614a19833981519152145b8061210a57506000546001600160a01b031633145b6121265760405162461bcd60e51b815260040161060b90614757565b6000858152600360205260409020600c81015462010000900460ff16156121b55760405162461bcd60e51b815260206004820152603c60248201527f45766964656e636552656769737472793a20757365207265717565737454726160448201527f6e7366657220666f722073656e7369746976652065766964656e636500000000606482015260840161060b565b6001600160a01b0385166121db5760405162461bcd60e51b815260040161060b90614793565b336001600160a01b038616036122035760405162461bcd60e51b815260040161060b906147d6565b6001600160a01b03851660009081526009602052604090205460ff1661223b5760405162461bcd60e51b815260040161060b90614823565b6001600160a01b03851660009081526007602052604090206004015460ff166122be5760405162461bcd60e51b815260206004820152602f60248201527f45766964656e636552656769737472793a20726563697069656e74206163636f60448201526e756e7420697320696e61637469766560881b606482015260840161060b565b6001600160a01b0385166000908152600860205260409020546000805160206149f9833981519152148061231757506001600160a01b038516600090815260086020526040902054600080516020614a19833981519152145b6123895760405162461bcd60e51b815260206004820152603960248201527f45766964656e636552656769737472793a20726563697069656e74206d75737460448201527f20626520696e76657374696761746f72206f722061646d696e00000000000000606482015260840161060b565b6004600c82015460ff1660058111156123a4576123a4613d4b565b141580156123cb57506005600c82015460ff1660058111156123c8576123c8613d4b565b14155b6123e75760405162461bcd60e51b815260040161060b9061486d565b600981018054600c830180546001600160a01b038981166001600160a01b0319851617909455929091169160ff81169160039160ff19166001830217905550600d83018054906000612438836145ee565b919050555061244c8883898460038b613891565b866001600160a01b0316826001600160a01b0316897f3f6b2913633398a44838c6154c1eecc9c05b7919c4e2fc8a7ff7c613ab1951ec894260405161249b929190918252602082015260400190565b60405180910390a45050505050505050565b3360009081526009602052604090205460609060ff166124df5760405162461bcd60e51b815260040161060b906144e7565b3360009081526007602052604090206004015460ff166125115760405162461bcd60e51b815260040161060b9061451f565b8382146125705760405162461bcd60e51b815260206004820152602760248201527f45766964656e636552656769737472793a206172726179206c656e677468206d6044820152660d2e6dac2e8c6d60cb1b606482015260840161060b565b60328411156125d45760405162461bcd60e51b815260206004820152602a60248201527f45766964656e636552656769737472793a20626174636820746f6f206c6172676044820152696520286d61782035302960b01b606482015260840161060b565b8367ffffffffffffffff8111156125ed576125ed614607565b604051908082528060200260200182016040528015612616578160200160208202803683370190505b50905060005b848110156127f6576003600087878481811061263a5761263a6148f6565b905060200201358152602001908152602001600020600c0160019054906101000a900460ff1661268d576000828281518110612678576126786148f6565b911515602092830291909101909101526127e4565b6000600360008888858181106126a5576126a56148f6565b9050602002013581526020019081526020016000209050600081600201548686858181106126d5576126d56148f6565b90506020020135149050808484815181106126f2576126f26148f6565b91151560209283029190910190910152600e8201805460ff169060006127178361490c565b91906101000a81548160ff021916908360ff16021790555050600d6000898986818110612746576127466148f6565b6020908102929092013583525081810192909252604001600090812080546001810182559082529190200180546001600160a01b03191633908117909155888885818110612796576127966148f6565b905060200201357f44db094f43efa113aa67a0a0c54d0573ccf926a00248e4449bffb7ce8d01fcfe83426040516127d99291909115158252602082015260400190565b60405180910390a350505b806127ee816145ee565b91505061261c565b50949350505050565b6040805160e08101825260008082526020808301829052828401829052606083018290526080830182905260a0830182905260c0830182905233825260099052919091205460ff166128635760405162461bcd60e51b815260040161060b906144e7565b3360009081526007602052604090206004015460ff166128955760405162461bcd60e51b815260040161060b9061451f565b6001600160a01b03821660009081526009602052604090205460ff166128cd5760405162461bcd60e51b815260040161060b906144a4565b506001600160a01b03908116600090815260076020908152604091829020825160e0810184528154909416845260018101549184019190915260028101549183019190915260038101546060830152600481015460ff1615156080830152600581015460a08301526006015460c082015290565b3360009081526009602052604090205460ff166129705760405162461bcd60e51b815260040161060b906144e7565b3360009081526007602052604090206004015460ff166129a25760405162461bcd60e51b815260040161060b9061451f565b6000818152600a6020526040812060048101549091036129d45760405162461bcd60e51b815260040161060b9061492b565b600681015460ff16156129f95760405162461bcd60e51b815260040161060b90614973565b6006810154610100900460ff1615612a5f5760405162461bcd60e51b815260206004820152602360248201527f45766964656e636552656769737472793a20616c72656164792063616e63656c6044820152621b195960ea1b606482015260840161060b565b60018101546001600160a01b0316331480612a96575033600090815260086020526040902054600080516020614a19833981519152145b80612aab57506000546001600160a01b031633145b612b0a5760405162461bcd60e51b815260206004820152602a60248201527f45766964656e636552656769737472793a206e6f7420617574686f7269736564604482015269081d1bc818d85b98d95b60b21b606482015260840161060b565b60068101805461ff001916610100179055604051339083907f8fca4ad251e9c6cde0e447cd4abc082d948c417b5140a7340bf482d536c7085890612b519042815260200190565b60405180910390a35050565b3360009081526009602052604090205460ff16612b8c5760405162461bcd60e51b815260040161060b906144e7565b3360009081526007602052604090206004015460ff16612bbe5760405162461bcd60e51b815260040161060b9061451f565b336000908152600860205260409020546000805160206149f98339815191521480612c05575033600090815260086020526040902054600080516020614a19833981519152145b80612c1a57506000546001600160a01b031633145b612c365760405162461bcd60e51b815260040161060b9061459b565b6000838152600360205260409020600c01548390610100900460ff16612c6e5760405162461bcd60e51b815260040161060b906143ab565b60008481526003602052604090206009015484906001600160a01b0316331480612cb4575033600090815260086020526040902054600080516020614a19833981519152145b80612cc957506000546001600160a01b031633145b612ce55760405162461bcd60e51b815260040161060b90614757565b6000858152600360205260409020600c810154612d059060ff1686613b2a565b612d655760405162461bcd60e51b815260206004820152602b60248201527f45766964656e636552656769737472793a20696e76616c69642073746174757360448201526a103a3930b739b4ba34b7b760a91b606482015260840161060b565b6004600c82015460ff166005811115612d8057612d80613d4b565b03612de65760405162461bcd60e51b815260206004820152603060248201527f45766964656e636552656769737472793a20617263686976656420657669646560448201526f6e636520697320696d6d757461626c6560801b606482015260840161060b565b6005600c82015460ff166005811115612e0157612e01613d4b565b03612e6c5760405162461bcd60e51b815260206004820152603560248201527f45766964656e636552656769737472793a2072656a65637465642065766964656044820152741b98d94818d85b9b9bdd081899481d5c19185d1959605a1b606482015260840161060b565b600c8101805460ff811691879160ff19166001836005811115612e9157612e91613d4b565b0217905550612ea4873333848a8a613891565b867f51e50e7fa27c95e766d37fe2f233d4f246fd9a80951686ad26ff03b7392e662f82883342604051612eda94939291906148c0565b60405180910390a250505050505050565b33600090815260086020526040902054600080516020614a198339815191521480612f2057506000546001600160a01b031633145b612f3c5760405162461bcd60e51b815260040161060b9061446e565b6000818152600a602052604081206004810154909103612f6e5760405162461bcd60e51b815260040161060b9061492b565b600681015460ff1615612f935760405162461bcd60e51b815260040161060b90614973565b6006810154610100900460ff1615612fbd5760405162461bcd60e51b815260040161060b906149b5565b6000828152600b6020908152604080832033845290915290205460ff16156130325760405162461bcd60e51b815260206004820152602260248201527f45766964656e636552656769737472793a20616c726561647920617070726f76604482015261195960f21b606482015260840161060b565b6000828152600b602090815260408083203384529091528120805460ff1916600117905560058201805491613066836145ee565b9091555050600781018054600181018255600091825260209091200180546001600160a01b03191633908117909155600582015460405184917fe40a8bde34cb3919cb4bd852fbc3df9168bd432fe4b04a5469ced9b2c26047fe91612b5191904290918252602082015260400190565b3360009081526009602052604090205460ff166131055760405162461bcd60e51b815260040161060b906144e7565b3360009081526007602052604090206004015460ff166131375760405162461bcd60e51b815260040161060b9061451f565b6000818152600a6020526040812060048101549091036131695760405162461bcd60e51b815260040161060b9061492b565b600681015460ff161561318e5760405162461bcd60e51b815260040161060b90614973565b6006810154610100900460ff16156131b85760405162461bcd60e51b815260040161060b906149b5565b6002548160050154101561321f5760405162461bcd60e51b815260206004820152602860248201527f45766964656e636552656769737472793a20696e73756666696369656e7420616044820152677070726f76616c7360c01b606482015260840161060b565b60068101805460ff19908116600117909155815460009081526003602081905260408220600981018054600c8301805460028901546001600160a01b031984166001600160a01b0391821617909455968716909417909355600d820180549295919093169360ff9091169290613294836145ee565b9091555050835460028501546003808701546132c1939286926001600160a01b0390911691869190613891565b600284015484546003860154604080519182524260208301526001600160a01b0393841693861692917f3f6b2913633398a44838c6154c1eecc9c05b7919c4e2fc8a7ff7c613ab1951ec910160405180910390a483546002850154604080516001600160a01b03909216825242602083015287917f446af6295af04b8951528780d62b996b4da7a436974232418e391fa762e7d728910160405180910390a35050505050565b60408051610120810182526000808252602080830182905282840182905260608084018390526080840183905260a0840183905260c0840183905260e0840183905261010084015233825260099052919091205460ff166133da5760405162461bcd60e51b815260040161060b906144e7565b3360009081526007602052604090206004015460ff1661340c5760405162461bcd60e51b815260040161060b9061451f565b6000828152600a602052604081206004015490036134785760405162461bcd60e51b815260206004820152602360248201527f45766964656e636552656769737472793a2072657175657374206e6f7420666f6044820152621d5b9960ea1b606482015260840161060b565b6000828152600a60209081526040918290208251610120810184528154815260018201546001600160a01b0390811682850152600283015416818501526003820154606082015260048201546080820152600582015460a0820152600682015460ff808216151560c08401526101009182900416151560e0830152600783018054865181870281018701909752808752929593949186019392909183018282801561354c57602002820191906000526020600020905b81546001600160a01b0316815260019091019060200180831161352e575b5050505050815250509050919050565b3360009081526009602052604090205460609060ff1661358e5760405162461bcd60e51b815260040161060b906144e7565b3360009081526007602052604090206004015460ff166135c05760405162461bcd60e51b815260040161060b9061451f565b6000828152600360205260409020600c01548290610100900460ff166135f85760405162461bcd60e51b815260040161060b906143ab565b6000838152600d60209081526040918290208054835181840281018401909452808452909183018282801561365657602002820191906000526020600020905b81546001600160a01b03168152600190910190602001808311613638575b5050505050915050919050565b336000908152600960205260408120548190819060ff166136965760405162461bcd60e51b815260040161060b906144e7565b3360009081526007602052604090206004015460ff166136c85760405162461bcd60e51b815260040161060b9061451f565b6000858152600360205260409020600c01548590610100900460ff166137005760405162461bcd60e51b815260040161060b906143ab565b60008681526003602052604081206002810154600b820154600e830180548a84149950929750909550919260ff909116919061373b8361490c565b825460ff9182166101009390930a9283029190920219909116179055506000878152600d602090815260408083208054600181018255908452919092200180546001600160a01b03191633908117909155905188907f44db094f43efa113aa67a0a0c54d0573ccf926a00248e4449bffb7ce8d01fcfe906137ca90899042909115158252602082015260400190565b60405180910390a350509250925092565b33600090815260086020526040902054600080516020614a19833981519152148061381057506000546001600160a01b031633145b61382c5760405162461bcd60e51b815260040161060b9061446e565b6000828152600360205260409020600c01548290610100900460ff166138645760405162461bcd60e51b815260040161060b906143ab565b50600091825260036020526040909120600c018054911515620100000262ff000019909216919091179055565b600460008781526020019081526020016000206040518060e00160405280876001600160a01b03168152602001866001600160a01b031681526020018560058111156138df576138df613d4b565b81526020018460058111156138f6576138f6613d4b565b81526020018381526020014281526020013343426040516020016139419392919060609390931b6bffffffffffffffffffffffff191683526014830191909152603482015260540190565b60408051808303601f1901815291815281516020928301209092528354600180820186556000958652948290208451600592830290910180546001600160a01b03199081166001600160a01b0393841617825593860151968101805494851697909216968717825593850151949593949390926001600160a81b0319161790600160a01b9084908111156139d7576139d7613d4b565b0217905550606082015160018201805460ff60a81b1916600160a81b836005811115613a0557613a05613d4b565b02179055506080820151816002015560a0820151816003015560c082015181600401555050505050505050565b6040805160e0810182526001600160a01b038681168083526020808401888152848601888152606086018881526001608088018181524260a08a01818152600060c08c018181528a825260078a528d82209c518d549c166001600160a01b0319909c169b909b178c5596518b850155945160028b0155925160038a01555160048901805491151560ff19928316179055925160058901559551600690970196909655600883528682208890556009835290869020805490911690931790925592519182528392917f859c6b2878a47695a653dffd0c43d1109b4f714f5c05f76caa51a42ac04ac278910160405180910390a350505050565b600080836005811115613b3f57613b3f613d4b565b03613b615760015b826005811115613b5957613b59613d4b565b149050613c11565b6001836005811115613b7557613b75613d4b565b03613ba45760025b826005811115613b8f57613b8f613d4b565b1480613b9d57506005613b47565b9050613c11565b6002836005811115613bb857613bb8613d4b565b03613bed5760035b826005811115613bd257613bd2613d4b565b1480613be057506004613b7d565b80613b9d57506005613b47565b6003836005811115613c0157613c01613d4b565b03613c0d576002613bc0565b5060005b92915050565b828054828255906000526020600020908101928215613c6c579160200282015b82811115613c6c57825182546001600160a01b0319166001600160a01b03909116178255602090920191600190910190613c37565b50613c78929150613c7c565b5090565b5b80821115613c785760008155600101613c7d565b60008060408385031215613ca457600080fd5b50508035926020909101359150565b80356001600160a01b0381168114611c4157600080fd5b600060208284031215613cdc57600080fd5b613ce582613cb3565b9392505050565b600060208284031215613cfe57600080fd5b5035919050565b6000815180845260005b81811015613d2b57602081850181015186830182015201613d0f565b506000602082860101526020601f19601f83011685010191505092915050565b634e487b7160e01b600052602160045260246000fd5b60078110613d7157613d71613d4b565b9052565b60068110613d7157613d71613d4b565b6020815281516020820152602082015160408201526040820151606082015260006060830151610220806080850152613dc2610240850183613d05565b91506080850151601f198584030160a0860152613ddf8382613d05565b92505060a085015160c085015260c0850151613dfe60e0860182613d61565b5060e085015161010085810191909152850151610120613e28818701836001600160a01b03169052565b8601519050610140613e44868201836001600160a01b03169052565b860151610160868101919091528601516101808087019190915286015190506101a0613e7281870183613d75565b86015190506101c0613e878682018315159052565b86015190506101e0613e9c8682018315159052565b860151610200868101919091529095015160ff1693019290925250919050565b60008083601f840112613ece57600080fd5b50813567ffffffffffffffff811115613ee657600080fd5b602083019150836020828501011115613efe57600080fd5b9250929050565b80358015158114611c4157600080fd5b60008060008060008060008060008060006101208c8e031215613f3757600080fd5b8b359a5060208c0135995067ffffffffffffffff8060408e01351115613f5c57600080fd5b613f6c8e60408f01358f01613ebc565b909a50985060608d0135811015613f8257600080fd5b50613f938d60608e01358e01613ebc565b909750955060808c0135945060a08c013560078110613fb157600080fd5b935060c08c0135925060e08c01359150613fce6101008d01613f05565b90509295989b509295989b9093969950565b60608101613fee8286613d75565b6001600160a01b0393909316602082015260400152919050565b60008060006060848603121561401d57600080fd5b8335925061402d60208501613cb3565b9150604084013590509250925092565b6020808252825182820181905260009190848201906040850190845b8181101561407557835183529284019291840191600101614059565b50909695505050505050565b6000806000806080858703121561409757600080fd5b6140a085613cb3565b966020860135965060408601359560600135945092505050565b602080825282518282018190526000919060409081850190868401855b8281101561414e57815180516001600160a01b0390811686528782015116878601528581015161410987870182613d75565b5060608082015161411c82880182613d75565b50506080818101519086015260a0808201519086015260c0908101519085015260e090930192908501906001016140d7565b5091979650505050505050565b60008083601f84011261416d57600080fd5b50813567ffffffffffffffff81111561418557600080fd5b6020830191508360208260051b8501011115613efe57600080fd5b600080600080604085870312156141b657600080fd5b843567ffffffffffffffff808211156141ce57600080fd5b6141da8883890161415b565b909650945060208701359150808211156141f357600080fd5b506142008782880161415b565b95989497509550505050565b6020808252825182820181905260009190848201906040850190845b81811015614075578351151583529284019291840191600101614228565b60008060006060848603121561425b57600080fd5b8335925060208401356006811061427157600080fd5b929592945050506040919091013590565b600081518084526020808501945080840160005b838110156142bb5781516001600160a01b031687529582019590820190600101614296565b509495945050505050565b6020815281516020820152600060208301516142ed60408401826001600160a01b03169052565b5060408301516001600160a01b03811660608401525060608301516080830152608083015160a083015260a083015160c083015260c083015161433460e084018215159052565b5060e083015161010061434a8185018315159052565b840151610120848101529050614364610140840182614282565b949350505050565b602081526000613ce56020830184614282565b6000806040838503121561439257600080fd5b823591506143a260208401613f05565b90509250929050565b60208082526029908201527f45766964656e636552656769737472793a2065766964656e636520646f6573206040820152681b9bdd08195e1a5cdd60ba1b606082015260800190565b6020808252602b90820152600080516020614a3983398151915260408201526a39bab832b91030b236b4b760a91b606082015260800190565b60208082526021908201527f45766964656e636552656769737472793a20696e76616c6964206164647265736040820152607360f81b606082015260800190565b6020808252602890820152600080516020614a3983398151915260408201526730b71030b236b4b760c11b606082015260800190565b60208082526023908201527f45766964656e636552656769737472793a206f666669636572206e6f7420666f6040820152621d5b9960ea1b606082015260800190565b6020808252602a90820152600080516020614a398339815191526040820152691c9959da5cdd195c995960b21b606082015260800190565b60208082526028908201527f45766964656e636552656769737472793a206163636f756e742069732064656160408201526718dd1a5d985d195960c21b606082015260800190565b600181811c9082168061457b57607f821691505b602082108103610bc657634e487b7160e01b600052602260045260246000fd5b6020808252602f90820152600080516020614a3983398151915260408201526e30b71034b73b32b9ba34b3b0ba37b960891b606082015260800190565b634e487b7160e01b600052601160045260246000fd5b600060018201614600576146006145d8565b5060010190565b634e487b7160e01b600052604160045260246000fd5b601f82111561466757600081815260208120601f850160051c810160208610156146445750805b601f850160051c820191505b8181101561466357828155600101614650565b5050505b505050565b815167ffffffffffffffff81111561468657614686614607565b61469a816146948454614567565b8461461d565b602080601f8311600181146146cf57600084156146b75750858301515b600019600386901b1c1916600185901b178555614663565b600085815260208120601f198616915b828110156146fe578886015182559484019460019091019084016146df565b508582101561471c5787850151600019600388901b60f8161c191681555b5050505050600190811b01905550565b6001600160a01b0384168152606081016147496020830185613d61565b826040830152949350505050565b6020808252602e90820152600080516020614a3983398151915260408201526d32bb34b232b731b29037bbb732b960911b606082015260800190565b60208082526023908201527f45766964656e636552656769737472793a20696e76616c696420726563697069604082015262195b9d60ea1b606082015260800190565b6020808252602d908201527f45766964656e636552656769737472793a2063616e6e6f74207472616e73666560408201526c39103a37903cb7bab939b2b63360991b606082015260800190565b6020808252602a908201527f45766964656e636552656769737472793a20726563697069656e74206e6f74206040820152691c9959da5cdd195c995960b21b606082015260800190565b60208082526033908201527f45766964656e636552656769737472793a2063616e6e6f74207472616e73666560408201527272207465726d696e616c2065766964656e636560681b606082015260800190565b608081016148ce8287613d75565b6148db6020830186613d75565b6001600160a01b039390931660408201526060015292915050565b634e487b7160e01b600052603260045260246000fd5b600060ff821660ff8103614922576149226145d8565b60010192915050565b60208082526028908201527f45766964656e636552656769737472793a207265717565737420646f6573206e6040820152671bdd08195e1a5cdd60c21b606082015260800190565b60208082526022908201527f45766964656e636552656769737472793a20616c726561647920657865637574604082015261195960f21b606082015260800190565b60208082526023908201527f45766964656e636552656769737472793a20726571756573742063616e63656c6040820152621b195960ea1b60608201526080019056fec3ac62daf0e88d582bbd53046cc181f59cd6389ae21d9040d16b031515185649a49807205ce4d355092ef5a8a18f56e8913cf4a201fbe287825b095693c2177545766964656e636552656769737472793a2063616c6c6572206973206e6f7420a26469706673582212202994809956fb21e81ca7a5402922e538e7e9efb98fb6009370737589eb74c0be64736f6c63430008140033","opcodes":"PUSH1 0x80 PUSH1 0x40 MSTORE CALLVALUE DUP1 ISZERO PUSH3 0x11 JUMPI PUSH1 0x0 DUP1 REVERT JUMPDEST POP PUSH1 0x40 MLOAD PUSH3 0x4CDA CODESIZE SUB DUP1 PUSH3 0x4CDA DUP4 CODECOPY DUP2 ADD PUSH1 0x40 DUP2 SWAP1 MSTORE PUSH3 0x34 SWAP2 PUSH3 0x222 JUMP JUMPDEST PUSH1 0x1 DUP2 LT ISZERO PUSH3 0x9B JUMPI PUSH1 0x40 MLOAD PUSH3 0x461BCD PUSH1 0xE5 SHL DUP2 MSTORE PUSH1 0x20 PUSH1 0x4 DUP3 ADD MSTORE PUSH1 0x28 PUSH1 0x24 DUP3 ADD MSTORE PUSH32 0x45766964656E636552656769737472793A20617070726F76616C73206D757374 PUSH1 0x44 DUP3 ADD MSTORE PUSH8 0x206265203E3D2031 PUSH1 0xC0 SHL PUSH1 0x64 DUP3 ADD MSTORE PUSH1 0x84 ADD PUSH1 0x40 MLOAD DUP1 SWAP2 SUB SWAP1 REVERT JUMPDEST PUSH1 0x0 DUP1 SLOAD PUSH1 0x1 PUSH1 0x1 PUSH1 0xA0 SHL SUB NOT AND CALLER SWAP1 DUP2 OR SWAP1 SWAP2 SSTORE PUSH1 0x2 DUP3 SWAP1 SSTORE PUSH3 0x123 SWAP1 PUSH32 0xDD461F7A057DDF7203381CFEB18D9A007BD3E9B45FA1EFEC12B4C520E431169C PUSH32 0x2D937F760174EFFA2E517D235F1F7FAD94D9DC1A9D213D421ECF17231F0F33F2 PUSH32 0xA49807205CE4D355092EF5A8A18F56E8913CF4A201FBE287825B095693C21775 PUSH3 0x12A JUMP JUMPDEST POP PUSH3 0x23C JUMP JUMPDEST PUSH1 0x40 DUP1 MLOAD PUSH1 0xE0 DUP2 ADD DUP3 MSTORE PUSH1 0x1 PUSH1 0x1 PUSH1 0xA0 SHL SUB DUP7 DUP2 AND DUP1 DUP4 MSTORE PUSH1 0x20 DUP1 DUP5 ADD DUP9 DUP2 MSTORE DUP5 DUP7 ADD DUP9 DUP2 MSTORE PUSH1 0x60 DUP7 ADD DUP9 DUP2 MSTORE PUSH1 0x1 PUSH1 0x80 DUP9 ADD DUP2 DUP2 MSTORE TIMESTAMP PUSH1 0xA0 DUP11 ADD DUP2 DUP2 MSTORE PUSH1 0x0 PUSH1 0xC0 DUP13 ADD DUP2 DUP2 MSTORE DUP11 DUP3 MSTORE PUSH1 0x7 DUP11 MSTORE DUP14 DUP3 KECCAK256 SWAP13 MLOAD DUP14 SLOAD SWAP13 AND PUSH1 0x1 PUSH1 0x1 PUSH1 0xA0 SHL SUB NOT SWAP1 SWAP13 AND SWAP12 SWAP1 SWAP12 OR DUP13 SSTORE SWAP7 MLOAD DUP12 DUP6 ADD SSTORE SWAP5 MLOAD PUSH1 0x2 DUP12 ADD SSTORE SWAP3 MLOAD PUSH1 0x3 DUP11 ADD SSTORE MLOAD PUSH1 0x4 DUP10 ADD DUP1 SLOAD SWAP2 ISZERO ISZERO PUSH1 0xFF NOT SWAP3 DUP4 AND OR SWAP1 SSTORE SWAP3 MLOAD PUSH1 0x5 DUP10 ADD SSTORE SWAP6 MLOAD PUSH1 0x6 SWAP1 SWAP8 ADD SWAP7 SWAP1 SWAP7 SSTORE PUSH1 0x8 DUP4 MSTORE DUP7 DUP3 KECCAK256 DUP9 SWAP1 SSTORE PUSH1 0x9 DUP4 MSTORE SWAP1 DUP7 SWAP1 KECCAK256 DUP1 SLOAD SWAP1 SWAP2 AND SWAP1 SWAP4 OR SWAP1 SWAP3 SSTORE SWAP3 MLOAD SWAP2 DUP3 MSTORE DUP4 SWAP3 SWAP2 PUSH32 0x859C6B2878A47695A653DFFD0C43D1109B4F714F5C05F76CAA51A42AC04AC278 SWAP2 ADD PUSH1 0x40 MLOAD DUP1 SWAP2 SUB SWAP1 LOG3 POP POP POP POP JUMP JUMPDEST PUSH1 0x0 PUSH1 0x20 DUP3 DUP5 SUB SLT ISZERO PUSH3 0x235 JUMPI PUSH1 0x0 DUP1 REVERT JUMPDEST POP MLOAD SWAP2 SWAP1 POP JUMP JUMPDEST PUSH2 0x4A8E DUP1 PUSH3 0x24C PUSH1 0x0 CODECOPY PUSH1 0x0 RETURN INVALID PUSH1 0x80 PUSH1 0x40 MSTORE CALLVALUE DUP1 ISZERO PUSH2 0x10 JUMPI PUSH1 0x0 DUP1 REVERT JUMPDEST POP PUSH1 0x4 CALLDATASIZE LT PUSH2 0x206 JUMPI PUSH1 0x0 CALLDATALOAD PUSH1 0xE0 SHR DUP1 PUSH4 0x6E1D616E GT PUSH2 0x11A JUMPI DUP1 PUSH4 0xB87C1114 GT PUSH2 0xAD JUMPI DUP1 PUSH4 0xC8F3AC2A GT PUSH2 0x7C JUMPI DUP1 PUSH4 0xC8F3AC2A EQ PUSH2 0x527 JUMPI DUP1 PUSH4 0xC93380C6 EQ PUSH2 0x547 JUMPI DUP1 PUSH4 0xDD498EE0 EQ PUSH2 0x567 JUMPI DUP1 PUSH4 0xE4D92DA1 EQ PUSH2 0x597 JUMPI DUP1 PUSH4 0xFEF15FEC EQ PUSH2 0x5C0 JUMPI PUSH1 0x0 DUP1 REVERT JUMPDEST DUP1 PUSH4 0xB87C1114 EQ PUSH2 0x4D5 JUMPI DUP1 PUSH4 0xBA33984A EQ PUSH2 0x4DE JUMPI DUP1 PUSH4 0xBDF8F103 EQ PUSH2 0x4F1 JUMPI DUP1 PUSH4 0xC3C5A547 EQ PUSH2 0x504 JUMPI PUSH1 0x0 DUP1 REVERT JUMPDEST DUP1 PUSH4 0x8C8B79BD GT PUSH2 0xE9 JUMPI DUP1 PUSH4 0x8C8B79BD EQ PUSH2 0x437 JUMPI DUP1 PUSH4 0x8ECF7D5F EQ PUSH2 0x4A6 JUMPI DUP1 PUSH4 0x99C1AADC EQ PUSH2 0x4B9 JUMPI DUP1 PUSH4 0xA2575918 EQ PUSH2 0x4C2 JUMPI PUSH1 0x0 DUP1 REVERT JUMPDEST DUP1 PUSH4 0x6E1D616E EQ PUSH2 0x3C8 JUMPI DUP1 PUSH4 0x731B1C11 EQ PUSH2 0x3EF JUMPI DUP1 PUSH4 0x75B238FC EQ PUSH2 0x402 JUMPI DUP1 PUSH4 0x898E3BE4 EQ PUSH2 0x417 JUMPI PUSH1 0x0 DUP1 REVERT JUMPDEST DUP1 PUSH4 0x2E7B09E3 GT PUSH2 0x19D JUMPI DUP1 PUSH4 0x4719C01D GT PUSH2 0x16C JUMPI DUP1 PUSH4 0x4719C01D EQ PUSH2 0x33F JUMPI DUP1 PUSH4 0x4ABA8826 EQ PUSH2 0x352 JUMPI DUP1 PUSH4 0x4B8BBABB EQ PUSH2 0x375 JUMPI DUP1 PUSH4 0x59D83D2C EQ PUSH2 0x395 JUMPI DUP1 PUSH4 0x5BBEF012 EQ PUSH2 0x3A8 JUMPI PUSH1 0x0 DUP1 REVERT JUMPDEST DUP1 PUSH4 0x2E7B09E3 EQ PUSH2 0x2FC JUMPI DUP1 PUSH4 0x315E6DD1 EQ PUSH2 0x304 JUMPI DUP1 PUSH4 0x3C80E4B7 EQ PUSH2 0x319 JUMPI DUP1 PUSH4 0x3CB36BB0 EQ PUSH2 0x32C JUMPI PUSH1 0x0 DUP1 REVERT JUMPDEST DUP1 PUSH4 0x1C22A82D GT PUSH2 0x1D9 JUMPI DUP1 PUSH4 0x1C22A82D EQ PUSH2 0x27B JUMPI DUP1 PUSH4 0x222A242E EQ PUSH2 0x29C JUMPI DUP1 PUSH4 0x227E6AA9 EQ PUSH2 0x2AF JUMPI DUP1 PUSH4 0x29575F6A EQ PUSH2 0x2D1 JUMPI PUSH1 0x0 DUP1 REVERT JUMPDEST DUP1 PUSH4 0x3263C24 EQ PUSH2 0x20B JUMPI DUP1 PUSH4 0xC6DD9FD EQ PUSH2 0x233 JUMPI DUP1 PUSH4 0xCDA2A94 EQ PUSH2 0x248 JUMPI DUP1 PUSH4 0x1B92C4D7 EQ PUSH2 0x25B JUMPI JUMPDEST PUSH1 0x0 DUP1 REVERT JUMPDEST PUSH2 0x21E PUSH2 0x219 CALLDATASIZE PUSH1 0x4 PUSH2 0x3C91 JUMP JUMPDEST PUSH2 0x5D3 JUMP JUMPDEST PUSH1 0x40 MLOAD SWAP1 ISZERO ISZERO DUP2 MSTORE PUSH1 0x20 ADD JUMPDEST PUSH1 0x40 MLOAD DUP1 SWAP2 SUB SWAP1 RETURN JUMPDEST PUSH2 0x246 PUSH2 0x241 CALLDATASIZE PUSH1 0x4 PUSH2 0x3CCA JUMP JUMPDEST PUSH2 0x62D JUMP JUMPDEST STOP JUMPDEST PUSH2 0x246 PUSH2 0x256 CALLDATASIZE PUSH1 0x4 PUSH2 0x3CCA JUMP JUMPDEST PUSH2 0x7AC JUMP JUMPDEST PUSH2 0x26E PUSH2 0x269 CALLDATASIZE PUSH1 0x4 PUSH2 0x3CEC JUMP JUMPDEST PUSH2 0x85C JUMP JUMPDEST PUSH1 0x40 MLOAD PUSH2 0x22A SWAP2 SWAP1 PUSH2 0x3D85 JUMP JUMPDEST PUSH2 0x28E PUSH2 0x289 CALLDATASIZE PUSH1 0x4 PUSH2 0x3F15 JUMP JUMPDEST PUSH2 0xBCC JUMP JUMPDEST PUSH1 0x40 MLOAD SWAP1 DUP2 MSTORE PUSH1 0x20 ADD PUSH2 0x22A JUMP JUMPDEST PUSH2 0x246 PUSH2 0x2AA CALLDATASIZE PUSH1 0x4 PUSH2 0x3CEC JUMP JUMPDEST PUSH2 0x125E JUMP JUMPDEST PUSH2 0x2C2 PUSH2 0x2BD CALLDATASIZE PUSH1 0x4 PUSH2 0x3CEC JUMP JUMPDEST PUSH2 0x1324 JUMP JUMPDEST PUSH1 0x40 MLOAD PUSH2 0x22A SWAP4 SWAP3 SWAP2 SWAP1 PUSH2 0x3FE0 JUMP JUMPDEST PUSH1 0x0 SLOAD PUSH2 0x2E4 SWAP1 PUSH1 0x1 PUSH1 0x1 PUSH1 0xA0 SHL SUB AND DUP2 JUMP JUMPDEST PUSH1 0x40 MLOAD PUSH1 0x1 PUSH1 0x1 PUSH1 0xA0 SHL SUB SWAP1 SWAP2 AND DUP2 MSTORE PUSH1 0x20 ADD PUSH2 0x22A JUMP JUMPDEST PUSH1 0x1 SLOAD PUSH2 0x28E JUMP JUMPDEST PUSH2 0x28E PUSH1 0x0 DUP1 MLOAD PUSH1 0x20 PUSH2 0x49F9 DUP4 CODECOPY DUP2 MLOAD SWAP2 MSTORE DUP2 JUMP JUMPDEST PUSH2 0x28E PUSH2 0x327 CALLDATASIZE PUSH1 0x4 PUSH2 0x4008 JUMP JUMPDEST PUSH2 0x1396 JUMP JUMPDEST PUSH2 0x246 PUSH2 0x33A CALLDATASIZE PUSH1 0x4 PUSH2 0x3C91 JUMP JUMPDEST PUSH2 0x18CD JUMP JUMPDEST PUSH2 0x246 PUSH2 0x34D CALLDATASIZE PUSH1 0x4 PUSH2 0x3CCA JUMP JUMPDEST PUSH2 0x1A1F JUMP JUMPDEST PUSH2 0x21E PUSH2 0x360 CALLDATASIZE PUSH1 0x4 PUSH2 0x3CEC JUMP JUMPDEST PUSH1 0x0 SWAP1 DUP2 MSTORE PUSH1 0x6 PUSH1 0x20 MSTORE PUSH1 0x40 SWAP1 KECCAK256 SLOAD PUSH1 0xFF AND SWAP1 JUMP JUMPDEST PUSH2 0x388 PUSH2 0x383 CALLDATASIZE PUSH1 0x4 PUSH2 0x3CEC JUMP JUMPDEST PUSH2 0x1B81 JUMP JUMPDEST PUSH1 0x40 MLOAD PUSH2 0x22A SWAP2 SWAP1 PUSH2 0x403D JUMP JUMPDEST PUSH2 0x246 PUSH2 0x3A3 CALLDATASIZE PUSH1 0x4 PUSH2 0x4081 JUMP JUMPDEST PUSH2 0x1C46 JUMP JUMPDEST PUSH2 0x3BB PUSH2 0x3B6 CALLDATASIZE PUSH1 0x4 PUSH2 0x3CEC JUMP JUMPDEST PUSH2 0x1DEC JUMP JUMPDEST PUSH1 0x40 MLOAD PUSH2 0x22A SWAP2 SWAP1 PUSH2 0x40BA JUMP JUMPDEST PUSH2 0x28E PUSH32 0x59A1C48E5837AD7A7F3DCEDCBE129BF3249EC4FBF651FD4F5E2600EAD39FE2F5 DUP2 JUMP JUMPDEST PUSH2 0x246 PUSH2 0x3FD CALLDATASIZE PUSH1 0x4 PUSH2 0x4008 JUMP JUMPDEST PUSH2 0x1F9E JUMP JUMPDEST PUSH2 0x28E PUSH1 0x0 DUP1 MLOAD PUSH1 0x20 PUSH2 0x4A19 DUP4 CODECOPY DUP2 MLOAD SWAP2 MSTORE DUP2 JUMP JUMPDEST PUSH2 0x42A PUSH2 0x425 CALLDATASIZE PUSH1 0x4 PUSH2 0x41A0 JUMP JUMPDEST PUSH2 0x24AD JUMP JUMPDEST PUSH1 0x40 MLOAD PUSH2 0x22A SWAP2 SWAP1 PUSH2 0x420C JUMP JUMPDEST PUSH2 0x44A PUSH2 0x445 CALLDATASIZE PUSH1 0x4 PUSH2 0x3CCA JUMP JUMPDEST PUSH2 0x27FF JUMP JUMPDEST PUSH1 0x40 MLOAD PUSH2 0x22A SWAP2 SWAP1 DUP2 MLOAD PUSH1 0x1 PUSH1 0x1 PUSH1 0xA0 SHL SUB AND DUP2 MSTORE PUSH1 0x20 DUP1 DUP4 ADD MLOAD SWAP1 DUP3 ADD MSTORE PUSH1 0x40 DUP1 DUP4 ADD MLOAD SWAP1 DUP3 ADD MSTORE PUSH1 0x60 DUP1 DUP4 ADD MLOAD SWAP1 DUP3 ADD MSTORE PUSH1 0x80 DUP1 DUP4 ADD MLOAD ISZERO ISZERO SWAP1 DUP3 ADD MSTORE PUSH1 0xA0 DUP3 DUP2 ADD MLOAD SWAP1 DUP3 ADD MSTORE PUSH1 0xC0 SWAP2 DUP3 ADD MLOAD SWAP2 DUP2 ADD SWAP2 SWAP1 SWAP2 MSTORE PUSH1 0xE0 ADD SWAP1 JUMP JUMPDEST PUSH2 0x246 PUSH2 0x4B4 CALLDATASIZE PUSH1 0x4 PUSH2 0x3CEC JUMP JUMPDEST PUSH2 0x2941 JUMP JUMPDEST PUSH2 0x28E PUSH1 0x2 SLOAD DUP2 JUMP JUMPDEST PUSH2 0x246 PUSH2 0x4D0 CALLDATASIZE PUSH1 0x4 PUSH2 0x4246 JUMP JUMPDEST PUSH2 0x2B5D JUMP JUMPDEST PUSH2 0x28E PUSH1 0x1 SLOAD DUP2 JUMP JUMPDEST PUSH2 0x246 PUSH2 0x4EC CALLDATASIZE PUSH1 0x4 PUSH2 0x3CEC JUMP JUMPDEST PUSH2 0x2EEB JUMP JUMPDEST PUSH2 0x246 PUSH2 0x4FF CALLDATASIZE PUSH1 0x4 PUSH2 0x3CEC JUMP JUMPDEST PUSH2 0x30D6 JUMP JUMPDEST PUSH2 0x21E PUSH2 0x512 CALLDATASIZE PUSH1 0x4 PUSH2 0x3CCA JUMP JUMPDEST PUSH1 0x9 PUSH1 0x20 MSTORE PUSH1 0x0 SWAP1 DUP2 MSTORE PUSH1 0x40 SWAP1 KECCAK256 SLOAD PUSH1 0xFF AND DUP2 JUMP JUMPDEST PUSH2 0x53A PUSH2 0x535 CALLDATASIZE PUSH1 0x4 PUSH2 0x3CEC JUMP JUMPDEST PUSH2 0x3367 JUMP JUMPDEST PUSH1 0x40 MLOAD PUSH2 0x22A SWAP2 SWAP1 PUSH2 0x42C6 JUMP JUMPDEST PUSH2 0x55A PUSH2 0x555 CALLDATASIZE PUSH1 0x4 PUSH2 0x3CEC JUMP JUMPDEST PUSH2 0x355C JUMP JUMPDEST PUSH1 0x40 MLOAD PUSH2 0x22A SWAP2 SWAP1 PUSH2 0x436C JUMP JUMPDEST PUSH2 0x57A PUSH2 0x575 CALLDATASIZE PUSH1 0x4 PUSH2 0x3C91 JUMP JUMPDEST PUSH2 0x3663 JUMP JUMPDEST PUSH1 0x40 DUP1 MLOAD SWAP4 ISZERO ISZERO DUP5 MSTORE PUSH1 0x20 DUP5 ADD SWAP3 SWAP1 SWAP3 MSTORE SWAP1 DUP3 ADD MSTORE PUSH1 0x60 ADD PUSH2 0x22A JUMP JUMPDEST PUSH2 0x28E PUSH2 0x5A5 CALLDATASIZE PUSH1 0x4 PUSH2 0x3CCA JUMP JUMPDEST PUSH1 0x1 PUSH1 0x1 PUSH1 0xA0 SHL SUB AND PUSH1 0x0 SWAP1 DUP2 MSTORE PUSH1 0x8 PUSH1 0x20 MSTORE PUSH1 0x40 SWAP1 KECCAK256 SLOAD SWAP1 JUMP JUMPDEST PUSH2 0x246 PUSH2 0x5CE CALLDATASIZE PUSH1 0x4 PUSH2 0x437F JUMP JUMPDEST PUSH2 0x37DB JUMP JUMPDEST PUSH1 0x0 DUP3 DUP2 MSTORE PUSH1 0x3 PUSH1 0x20 MSTORE PUSH1 0x40 DUP2 KECCAK256 PUSH1 0xC ADD SLOAD DUP4 SWAP1 PUSH2 0x100 SWAP1 DIV PUSH1 0xFF AND PUSH2 0x614 JUMPI PUSH1 0x40 MLOAD PUSH3 0x461BCD PUSH1 0xE5 SHL DUP2 MSTORE PUSH1 0x4 ADD PUSH2 0x60B SWAP1 PUSH2 0x43AB JUMP JUMPDEST PUSH1 0x40 MLOAD DUP1 SWAP2 SUB SWAP1 REVERT JUMPDEST POP POP PUSH1 0x0 SWAP2 DUP3 MSTORE PUSH1 0x3 PUSH1 0x20 MSTORE PUSH1 0x40 SWAP1 SWAP2 KECCAK256 PUSH1 0x2 ADD SLOAD EQ SWAP1 JUMP JUMPDEST PUSH1 0x0 SLOAD PUSH1 0x1 PUSH1 0x1 PUSH1 0xA0 SHL SUB AND CALLER EQ PUSH2 0x657 JUMPI PUSH1 0x40 MLOAD PUSH3 0x461BCD PUSH1 0xE5 SHL DUP2 MSTORE PUSH1 0x4 ADD PUSH2 0x60B SWAP1 PUSH2 0x43F4 JUMP JUMPDEST PUSH1 0x1 PUSH1 0x1 PUSH1 0xA0 SHL SUB DUP2 AND PUSH2 0x67D JUMPI PUSH1 0x40 MLOAD PUSH3 0x461BCD PUSH1 0xE5 SHL DUP2 MSTORE PUSH1 0x4 ADD PUSH2 0x60B SWAP1 PUSH2 0x442D JUMP JUMPDEST PUSH1 0x1 PUSH1 0x1 PUSH1 0xA0 SHL SUB DUP2 AND PUSH1 0x0 SWAP1 DUP2 MSTORE PUSH1 0x9 PUSH1 0x20 MSTORE PUSH1 0x40 SWAP1 KECCAK256 SLOAD PUSH1 0xFF AND PUSH2 0x6FC JUMPI PUSH1 0x40 MLOAD PUSH3 0x461BCD PUSH1 0xE5 SHL DUP2 MSTORE PUSH1 0x20 PUSH1 0x4 DUP3 ADD MSTORE PUSH1 0x2E PUSH1 0x24 DUP3 ADD MSTORE PUSH32 0x45766964656E636552656769737472793A206E65772061646D696E206D757374 PUSH1 0x44 DUP3 ADD MSTORE PUSH14 0x81899481C9959DA5CDD195C9959 PUSH1 0x92 SHL PUSH1 0x64 DUP3 ADD MSTORE PUSH1 0x84 ADD PUSH2 0x60B JUMP JUMPDEST PUSH1 0x1 PUSH1 0x1 PUSH1 0xA0 SHL SUB DUP2 AND PUSH1 0x0 SWAP1 DUP2 MSTORE PUSH1 0x8 PUSH1 0x20 MSTORE PUSH1 0x40 SWAP1 KECCAK256 SLOAD PUSH1 0x0 DUP1 MLOAD PUSH1 0x20 PUSH2 0x4A19 DUP4 CODECOPY DUP2 MLOAD SWAP2 MSTORE EQ PUSH2 0x78A JUMPI PUSH1 0x40 MLOAD PUSH3 0x461BCD PUSH1 0xE5 SHL DUP2 MSTORE PUSH1 0x20 PUSH1 0x4 DUP3 ADD MSTORE PUSH1 0x30 PUSH1 0x24 DUP3 ADD MSTORE PUSH32 0x45766964656E636552656769737472793A206E65772061646D696E206D757374 PUSH1 0x44 DUP3 ADD MSTORE PUSH16 0x20686176652041444D494E5F524F4C45 PUSH1 0x80 SHL PUSH1 0x64 DUP3 ADD MSTORE PUSH1 0x84 ADD PUSH2 0x60B JUMP JUMPDEST PUSH1 0x0 DUP1 SLOAD PUSH1 0x1 PUSH1 0x1 PUSH1 0xA0 SHL SUB NOT AND PUSH1 0x1 PUSH1 0x1 PUSH1 0xA0 SHL SUB SWAP3 SWAP1 SWAP3 AND SWAP2 SWAP1 SWAP2 OR SWAP1 SSTORE JUMP JUMPDEST CALLER PUSH1 0x0 SWAP1 DUP2 MSTORE PUSH1 0x8 PUSH1 0x20 MSTORE PUSH1 0x40 SWAP1 KECCAK256 SLOAD PUSH1 0x0 DUP1 MLOAD PUSH1 0x20 PUSH2 0x4A19 DUP4 CODECOPY DUP2 MLOAD SWAP2 MSTORE EQ DUP1 PUSH2 0x7E1 JUMPI POP PUSH1 0x0 SLOAD PUSH1 0x1 PUSH1 0x1 PUSH1 0xA0 SHL SUB AND CALLER EQ JUMPDEST PUSH2 0x7FD JUMPI PUSH1 0x40 MLOAD PUSH3 0x461BCD PUSH1 0xE5 SHL DUP2 MSTORE PUSH1 0x4 ADD PUSH2 0x60B SWAP1 PUSH2 0x446E JUMP JUMPDEST PUSH1 0x1 PUSH1 0x1 PUSH1 0xA0 SHL SUB DUP2 AND PUSH1 0x0 SWAP1 DUP2 MSTORE PUSH1 0x9 PUSH1 0x20 MSTORE PUSH1 0x40 SWAP1 KECCAK256 SLOAD PUSH1 0xFF AND PUSH2 0x835 JUMPI PUSH1 0x40 MLOAD PUSH3 0x461BCD PUSH1 0xE5 SHL DUP2 MSTORE PUSH1 0x4 ADD PUSH2 0x60B SWAP1 PUSH2 0x44A4 JUMP JUMPDEST PUSH1 0x1 PUSH1 0x1 PUSH1 0xA0 SHL SUB AND PUSH1 0x0 SWAP1 DUP2 MSTORE PUSH1 0x7 PUSH1 0x20 MSTORE PUSH1 0x40 SWAP1 KECCAK256 PUSH1 0x4 ADD DUP1 SLOAD PUSH1 0xFF NOT AND PUSH1 0x1 OR SWAP1 SSTORE JUMP JUMPDEST PUSH1 0x40 DUP1 MLOAD PUSH2 0x220 DUP2 ADD DUP3 MSTORE PUSH1 0x0 DUP1 DUP3 MSTORE PUSH1 0x20 DUP1 DUP4 ADD DUP3 SWAP1 MSTORE DUP3 DUP5 ADD DUP3 SWAP1 MSTORE PUSH1 0x60 DUP1 DUP5 ADD DUP2 SWAP1 MSTORE PUSH1 0x80 DUP5 ADD MSTORE PUSH1 0xA0 DUP4 ADD DUP3 SWAP1 MSTORE PUSH1 0xC0 DUP4 ADD DUP3 SWAP1 MSTORE PUSH1 0xE0 DUP4 ADD DUP3 SWAP1 MSTORE PUSH2 0x100 DUP4 ADD DUP3 SWAP1 MSTORE PUSH2 0x120 DUP4 ADD DUP3 SWAP1 MSTORE PUSH2 0x140 DUP4 ADD DUP3 SWAP1 MSTORE PUSH2 0x160 DUP4 ADD DUP3 SWAP1 MSTORE PUSH2 0x180 DUP4 ADD DUP3 SWAP1 MSTORE PUSH2 0x1A0 DUP4 ADD DUP3 SWAP1 MSTORE PUSH2 0x1C0 DUP4 ADD DUP3 SWAP1 MSTORE PUSH2 0x1E0 DUP4 ADD DUP3 SWAP1 MSTORE PUSH2 0x200 DUP4 ADD DUP3 SWAP1 MSTORE CALLER DUP3 MSTORE PUSH1 0x9 SWAP1 MSTORE SWAP2 SWAP1 SWAP2 KECCAK256 SLOAD PUSH1 0xFF AND PUSH2 0x90F JUMPI PUSH1 0x40 MLOAD PUSH3 0x461BCD PUSH1 0xE5 SHL DUP2 MSTORE PUSH1 0x4 ADD PUSH2 0x60B SWAP1 PUSH2 0x44E7 JUMP JUMPDEST CALLER PUSH1 0x0 SWAP1 DUP2 MSTORE PUSH1 0x7 PUSH1 0x20 MSTORE PUSH1 0x40 SWAP1 KECCAK256 PUSH1 0x4 ADD SLOAD PUSH1 0xFF AND PUSH2 0x941 JUMPI PUSH1 0x40 MLOAD PUSH3 0x461BCD PUSH1 0xE5 SHL DUP2 MSTORE PUSH1 0x4 ADD PUSH2 0x60B SWAP1 PUSH2 0x451F JUMP JUMPDEST PUSH1 0x0 DUP3 DUP2 MSTORE PUSH1 0x3 PUSH1 0x20 MSTORE PUSH1 0x40 SWAP1 KECCAK256 PUSH1 0xC ADD SLOAD DUP3 SWAP1 PUSH2 0x100 SWAP1 DIV PUSH1 0xFF AND PUSH2 0x979 JUMPI PUSH1 0x40 MLOAD PUSH3 0x461BCD PUSH1 0xE5 SHL DUP2 MSTORE PUSH1 0x4 ADD PUSH2 0x60B SWAP1 PUSH2 0x43AB JUMP JUMPDEST PUSH1 0x3 PUSH1 0x0 DUP5 DUP2 MSTORE PUSH1 0x20 ADD SWAP1 DUP2 MSTORE PUSH1 0x20 ADD PUSH1 0x0 KECCAK256 PUSH1 0x40 MLOAD DUP1 PUSH2 0x220 ADD PUSH1 0x40 MSTORE SWAP1 DUP2 PUSH1 0x0 DUP3 ADD SLOAD DUP2 MSTORE PUSH1 0x20 ADD PUSH1 0x1 DUP3 ADD SLOAD DUP2 MSTORE PUSH1 0x20 ADD PUSH1 0x2 DUP3 ADD SLOAD DUP2 MSTORE PUSH1 0x20 ADD PUSH1 0x3 DUP3 ADD DUP1 SLOAD PUSH2 0x9C6 SWAP1 PUSH2 0x4567 JUMP JUMPDEST DUP1 PUSH1 0x1F ADD PUSH1 0x20 DUP1 SWAP2 DIV MUL PUSH1 0x20 ADD PUSH1 0x40 MLOAD SWAP1 DUP2 ADD PUSH1 0x40 MSTORE DUP1 SWAP3 SWAP2 SWAP1 DUP2 DUP2 MSTORE PUSH1 0x20 ADD DUP3 DUP1 SLOAD PUSH2 0x9F2 SWAP1 PUSH2 0x4567 JUMP JUMPDEST DUP1 ISZERO PUSH2 0xA3F JUMPI DUP1 PUSH1 0x1F LT PUSH2 0xA14 JUMPI PUSH2 0x100 DUP1 DUP4 SLOAD DIV MUL DUP4 MSTORE SWAP2 PUSH1 0x20 ADD SWAP2 PUSH2 0xA3F JUMP JUMPDEST DUP3 ADD SWAP2 SWAP1 PUSH1 0x0 MSTORE PUSH1 0x20 PUSH1 0x0 KECCAK256 SWAP1 JUMPDEST DUP2 SLOAD DUP2 MSTORE SWAP1 PUSH1 0x1 ADD SWAP1 PUSH1 0x20 ADD DUP1 DUP4 GT PUSH2 0xA22 JUMPI DUP3 SWAP1 SUB PUSH1 0x1F AND DUP3 ADD SWAP2 JUMPDEST POP POP POP POP POP DUP2 MSTORE PUSH1 0x20 ADD PUSH1 0x4 DUP3 ADD DUP1 SLOAD PUSH2 0xA58 SWAP1 PUSH2 0x4567 JUMP JUMPDEST DUP1 PUSH1 0x1F ADD PUSH1 0x20 DUP1 SWAP2 DIV MUL PUSH1 0x20 ADD PUSH1 0x40 MLOAD SWAP1 DUP2 ADD PUSH1 0x40 MSTORE DUP1 SWAP3 SWAP2 SWAP1 DUP2 DUP2 MSTORE PUSH1 0x20 ADD DUP3 DUP1 SLOAD PUSH2 0xA84 SWAP1 PUSH2 0x4567 JUMP JUMPDEST DUP1 ISZERO PUSH2 0xAD1 JUMPI DUP1 PUSH1 0x1F LT PUSH2 0xAA6 JUMPI PUSH2 0x100 DUP1 DUP4 SLOAD DIV MUL DUP4 MSTORE SWAP2 PUSH1 0x20 ADD SWAP2 PUSH2 0xAD1 JUMP JUMPDEST DUP3 ADD SWAP2 SWAP1 PUSH1 0x0 MSTORE PUSH1 0x20 PUSH1 0x0 KECCAK256 SWAP1 JUMPDEST DUP2 SLOAD DUP2 MSTORE SWAP1 PUSH1 0x1 ADD SWAP1 PUSH1 0x20 ADD DUP1 DUP4 GT PUSH2 0xAB4 JUMPI DUP3 SWAP1 SUB PUSH1 0x1F AND DUP3 ADD SWAP2 JUMPDEST POP POP POP SWAP2 DUP4 MSTORE POP POP PUSH1 0x5 DUP3 ADD SLOAD PUSH1 0x20 DUP3 ADD MSTORE PUSH1 0x6 DUP1 DUP4 ADD SLOAD PUSH1 0x40 SWAP1 SWAP3 ADD SWAP2 PUSH1 0xFF AND SWAP1 DUP2 GT ISZERO PUSH2 0xB02 JUMPI PUSH2 0xB02 PUSH2 0x3D4B JUMP JUMPDEST PUSH1 0x6 DUP2 GT ISZERO PUSH2 0xB13 JUMPI PUSH2 0xB13 PUSH2 0x3D4B JUMP JUMPDEST DUP2 MSTORE PUSH1 0x7 DUP3 ADD SLOAD PUSH1 0x20 DUP3 ADD MSTORE PUSH1 0x8 DUP3 ADD SLOAD PUSH1 0x1 PUSH1 0x1 PUSH1 0xA0 SHL SUB SWAP1 DUP2 AND PUSH1 0x40 DUP4 ADD MSTORE PUSH1 0x9 DUP4 ADD SLOAD AND PUSH1 0x60 DUP3 ADD MSTORE PUSH1 0xA DUP3 ADD SLOAD PUSH1 0x80 DUP3 ADD MSTORE PUSH1 0xB DUP3 ADD SLOAD PUSH1 0xA0 DUP3 ADD MSTORE PUSH1 0xC DUP3 ADD SLOAD PUSH1 0xC0 SWAP1 SWAP2 ADD SWAP1 PUSH1 0xFF AND PUSH1 0x5 DUP2 GT ISZERO PUSH2 0xB72 JUMPI PUSH2 0xB72 PUSH2 0x3D4B JUMP JUMPDEST PUSH1 0x5 DUP2 GT ISZERO PUSH2 0xB83 JUMPI PUSH2 0xB83 PUSH2 0x3D4B JUMP JUMPDEST DUP2 MSTORE PUSH1 0xC DUP3 ADD SLOAD PUSH1 0xFF PUSH2 0x100 DUP3 DIV DUP2 AND ISZERO ISZERO PUSH1 0x20 DUP5 ADD MSTORE PUSH3 0x10000 SWAP1 SWAP2 DIV DUP2 AND ISZERO ISZERO PUSH1 0x40 DUP4 ADD MSTORE PUSH1 0xD DUP4 ADD SLOAD PUSH1 0x60 DUP4 ADD MSTORE PUSH1 0xE SWAP1 SWAP3 ADD SLOAD SWAP1 SWAP2 AND PUSH1 0x80 SWAP1 SWAP2 ADD MSTORE SWAP2 POP JUMPDEST POP SWAP2 SWAP1 POP JUMP JUMPDEST CALLER PUSH1 0x0 SWAP1 DUP2 MSTORE PUSH1 0x9 PUSH1 0x20 MSTORE PUSH1 0x40 DUP2 KECCAK256 SLOAD PUSH1 0xFF AND PUSH2 0xBFB JUMPI PUSH1 0x40 MLOAD PUSH3 0x461BCD PUSH1 0xE5 SHL DUP2 MSTORE PUSH1 0x4 ADD PUSH2 0x60B SWAP1 PUSH2 0x44E7 JUMP JUMPDEST CALLER PUSH1 0x0 SWAP1 DUP2 MSTORE PUSH1 0x7 PUSH1 0x20 MSTORE PUSH1 0x40 SWAP1 KECCAK256 PUSH1 0x4 ADD SLOAD PUSH1 0xFF AND PUSH2 0xC2D JUMPI PUSH1 0x40 MLOAD PUSH3 0x461BCD PUSH1 0xE5 SHL DUP2 MSTORE PUSH1 0x4 ADD PUSH2 0x60B SWAP1 PUSH2 0x451F JUMP JUMPDEST CALLER PUSH1 0x0 SWAP1 DUP2 MSTORE PUSH1 0x8 PUSH1 0x20 MSTORE PUSH1 0x40 SWAP1 KECCAK256 SLOAD PUSH1 0x0 DUP1 MLOAD PUSH1 0x20 PUSH2 0x49F9 DUP4 CODECOPY DUP2 MLOAD SWAP2 MSTORE EQ DUP1 PUSH2 0xC74 JUMPI POP CALLER PUSH1 0x0 SWAP1 DUP2 MSTORE PUSH1 0x8 PUSH1 0x20 MSTORE PUSH1 0x40 SWAP1 KECCAK256 SLOAD PUSH1 0x0 DUP1 MLOAD PUSH1 0x20 PUSH2 0x4A19 DUP4 CODECOPY DUP2 MLOAD SWAP2 MSTORE EQ JUMPDEST DUP1 PUSH2 0xC89 JUMPI POP PUSH1 0x0 SLOAD PUSH1 0x1 PUSH1 0x1 PUSH1 0xA0 SHL SUB AND CALLER EQ JUMPDEST PUSH2 0xCA5 JUMPI PUSH1 0x40 MLOAD PUSH3 0x461BCD PUSH1 0xE5 SHL DUP2 MSTORE PUSH1 0x4 ADD PUSH2 0x60B SWAP1 PUSH2 0x459B JUMP JUMPDEST DUP12 PUSH2 0xCF2 JUMPI PUSH1 0x40 MLOAD PUSH3 0x461BCD PUSH1 0xE5 SHL DUP2 MSTORE PUSH1 0x20 PUSH1 0x4 DUP3 ADD DUP2 SWAP1 MSTORE PUSH1 0x24 DUP3 ADD MSTORE PUSH32 0x45766964656E636552656769737472793A20696E76616C696420636173654964 PUSH1 0x44 DUP3 ADD MSTORE PUSH1 0x64 ADD PUSH2 0x60B JUMP JUMPDEST DUP11 PUSH2 0xD4A JUMPI PUSH1 0x40 MLOAD PUSH3 0x461BCD PUSH1 0xE5 SHL DUP2 MSTORE PUSH1 0x20 PUSH1 0x4 DUP3 ADD MSTORE PUSH1 0x22 PUSH1 0x24 DUP3 ADD MSTORE PUSH32 0x45766964656E636552656769737472793A20696E76616C69642066696C654861 PUSH1 0x44 DUP3 ADD MSTORE PUSH2 0xE6D PUSH1 0xF3 SHL PUSH1 0x64 DUP3 ADD MSTORE PUSH1 0x84 ADD PUSH2 0x60B JUMP JUMPDEST DUP9 PUSH2 0xDA2 JUMPI PUSH1 0x40 MLOAD PUSH3 0x461BCD PUSH1 0xE5 SHL DUP2 MSTORE PUSH1 0x20 PUSH1 0x4 DUP3 ADD MSTORE PUSH1 0x22 PUSH1 0x24 DUP3 ADD MSTORE PUSH32 0x45766964656E636552656769737472793A2066696C6555524920726571756972 PUSH1 0x44 DUP3 ADD MSTORE PUSH2 0x1959 PUSH1 0xF2 SHL PUSH1 0x64 DUP3 ADD MSTORE PUSH1 0x84 ADD PUSH2 0x60B JUMP JUMPDEST DUP7 PUSH2 0xDEF JUMPI PUSH1 0x40 MLOAD PUSH3 0x461BCD PUSH1 0xE5 SHL DUP2 MSTORE PUSH1 0x20 PUSH1 0x4 DUP3 ADD DUP2 SWAP1 MSTORE PUSH1 0x24 DUP3 ADD MSTORE PUSH32 0x45766964656E636552656769737472793A207469746C65207265717569726564 PUSH1 0x44 DUP3 ADD MSTORE PUSH1 0x64 ADD PUSH2 0x60B JUMP JUMPDEST TIMESTAMP DUP4 GT ISZERO PUSH2 0xE50 JUMPI PUSH1 0x40 MLOAD PUSH3 0x461BCD PUSH1 0xE5 SHL DUP2 MSTORE PUSH1 0x20 PUSH1 0x4 DUP3 ADD MSTORE PUSH1 0x28 PUSH1 0x24 DUP3 ADD MSTORE PUSH32 0x45766964656E636552656769737472793A2066757475726520636F6C6C656374 PUSH1 0x44 DUP3 ADD MSTORE PUSH8 0x696F6E2064617465 PUSH1 0xC0 SHL PUSH1 0x64 DUP3 ADD MSTORE PUSH1 0x84 ADD PUSH2 0x60B JUMP JUMPDEST PUSH1 0x0 DUP12 DUP2 MSTORE PUSH1 0x6 PUSH1 0x20 MSTORE PUSH1 0x40 SWAP1 KECCAK256 SLOAD PUSH1 0xFF AND ISZERO PUSH2 0xEC1 JUMPI PUSH1 0x40 MLOAD PUSH3 0x461BCD PUSH1 0xE5 SHL DUP2 MSTORE PUSH1 0x20 PUSH1 0x4 DUP3 ADD MSTORE PUSH1 0x29 PUSH1 0x24 DUP3 ADD MSTORE PUSH32 0x45766964656E636552656769737472793A2066696C6520616C72656164792072 PUSH1 0x44 DUP3 ADD MSTORE PUSH9 0x1959DA5CDD195C9959 PUSH1 0xBA SHL PUSH1 0x64 DUP3 ADD MSTORE PUSH1 0x84 ADD PUSH2 0x60B JUMP JUMPDEST PUSH1 0x1 DUP1 SLOAD SWAP1 PUSH1 0x0 PUSH2 0xED1 DUP4 PUSH2 0x45EE JUMP JUMPDEST SWAP1 SWAP2 SSTORE POP POP PUSH1 0x1 SLOAD PUSH1 0x40 DUP1 MLOAD PUSH1 0x20 DUP2 ADD DUP16 SWAP1 MSTORE SWAP1 DUP2 ADD DUP14 SWAP1 MSTORE TIMESTAMP PUSH1 0x60 DUP3 ADD MSTORE PUSH1 0x80 DUP2 ADD SWAP2 SWAP1 SWAP2 MSTORE PUSH1 0xA0 ADD PUSH1 0x40 MLOAD PUSH1 0x20 DUP2 DUP4 SUB SUB DUP2 MSTORE SWAP1 PUSH1 0x40 MSTORE DUP1 MLOAD SWAP1 PUSH1 0x20 ADD KECCAK256 SWAP1 POP PUSH1 0x40 MLOAD DUP1 PUSH2 0x220 ADD PUSH1 0x40 MSTORE DUP1 DUP3 DUP2 MSTORE PUSH1 0x20 ADD DUP14 DUP2 MSTORE PUSH1 0x20 ADD DUP13 DUP2 MSTORE PUSH1 0x20 ADD DUP12 DUP12 DUP1 DUP1 PUSH1 0x1F ADD PUSH1 0x20 DUP1 SWAP2 DIV MUL PUSH1 0x20 ADD PUSH1 0x40 MLOAD SWAP1 DUP2 ADD PUSH1 0x40 MSTORE DUP1 SWAP4 SWAP3 SWAP2 SWAP1 DUP2 DUP2 MSTORE PUSH1 0x20 ADD DUP4 DUP4 DUP1 DUP3 DUP5 CALLDATACOPY PUSH1 0x0 SWAP3 ADD SWAP2 SWAP1 SWAP2 MSTORE POP POP POP SWAP1 DUP3 MSTORE POP PUSH1 0x40 DUP1 MLOAD PUSH1 0x20 PUSH1 0x1F DUP13 ADD DUP2 SWAP1 DIV DUP2 MUL DUP3 ADD DUP2 ADD SWAP1 SWAP3 MSTORE DUP11 DUP2 MSTORE SWAP2 DUP2 ADD SWAP2 SWAP1 DUP12 SWAP1 DUP12 SWAP1 DUP2 SWAP1 DUP5 ADD DUP4 DUP3 DUP1 DUP3 DUP5 CALLDATACOPY PUSH1 0x0 SWAP3 ADD SWAP2 SWAP1 SWAP2 MSTORE POP POP POP SWAP1 DUP3 MSTORE POP PUSH1 0x20 DUP2 ADD DUP9 SWAP1 MSTORE PUSH1 0x40 ADD DUP7 PUSH1 0x6 DUP2 GT ISZERO PUSH2 0xFC1 JUMPI PUSH2 0xFC1 PUSH2 0x3D4B JUMP JUMPDEST DUP2 MSTORE PUSH1 0x20 DUP2 ADD DUP7 SWAP1 MSTORE CALLER PUSH1 0x40 DUP3 ADD DUP2 SWAP1 MSTORE PUSH1 0x60 DUP3 ADD MSTORE PUSH1 0x80 DUP2 ADD DUP6 SWAP1 MSTORE TIMESTAMP PUSH1 0xA0 DUP3 ADD MSTORE PUSH1 0xC0 ADD PUSH1 0x0 DUP2 MSTORE PUSH1 0x20 ADD PUSH1 0x1 ISZERO ISZERO DUP2 MSTORE PUSH1 0x20 ADD DUP4 ISZERO ISZERO DUP2 MSTORE PUSH1 0x20 ADD PUSH1 0x0 DUP2 MSTORE PUSH1 0x20 ADD PUSH1 0x0 PUSH1 0xFF AND DUP2 MSTORE POP PUSH1 0x3 PUSH1 0x0 DUP4 DUP2 MSTORE PUSH1 0x20 ADD SWAP1 DUP2 MSTORE PUSH1 0x20 ADD PUSH1 0x0 KECCAK256 PUSH1 0x0 DUP3 ADD MLOAD DUP2 PUSH1 0x0 ADD SSTORE PUSH1 0x20 DUP3 ADD MLOAD DUP2 PUSH1 0x1 ADD SSTORE PUSH1 0x40 DUP3 ADD MLOAD DUP2 PUSH1 0x2 ADD SSTORE PUSH1 0x60 DUP3 ADD MLOAD DUP2 PUSH1 0x3 ADD SWAP1 DUP2 PUSH2 0x1054 SWAP2 SWAP1 PUSH2 0x466C JUMP JUMPDEST POP PUSH1 0x80 DUP3 ADD MLOAD PUSH1 0x4 DUP3 ADD SWAP1 PUSH2 0x1069 SWAP1 DUP3 PUSH2 0x466C JUMP JUMPDEST POP PUSH1 0xA0 DUP3 ADD MLOAD DUP2 PUSH1 0x5 ADD SSTORE PUSH1 0xC0 DUP3 ADD MLOAD DUP2 PUSH1 0x6 ADD PUSH1 0x0 PUSH2 0x100 EXP DUP2 SLOAD DUP2 PUSH1 0xFF MUL NOT AND SWAP1 DUP4 PUSH1 0x6 DUP2 GT ISZERO PUSH2 0x109E JUMPI PUSH2 0x109E PUSH2 0x3D4B JUMP JUMPDEST MUL OR SWAP1 SSTORE POP PUSH1 0xE0 DUP3 ADD MLOAD PUSH1 0x7 DUP3 ADD SSTORE PUSH2 0x100 DUP3 ADD MLOAD PUSH1 0x8 DUP3 ADD DUP1 SLOAD PUSH1 0x1 PUSH1 0x1 PUSH1 0xA0 SHL SUB SWAP3 DUP4 AND PUSH1 0x1 PUSH1 0x1 PUSH1 0xA0 SHL SUB NOT SWAP2 DUP3 AND OR SWAP1 SWAP2 SSTORE PUSH2 0x120 DUP5 ADD MLOAD PUSH1 0x9 DUP5 ADD DUP1 SLOAD SWAP2 SWAP1 SWAP4 AND SWAP2 AND OR SWAP1 SSTORE PUSH2 0x140 DUP3 ADD MLOAD PUSH1 0xA DUP3 ADD SSTORE PUSH2 0x160 DUP3 ADD MLOAD PUSH1 0xB DUP3 ADD SSTORE PUSH2 0x180 DUP3 ADD MLOAD PUSH1 0xC DUP3 ADD DUP1 SLOAD PUSH1 0xFF NOT AND PUSH1 0x1 DUP4 PUSH1 0x5 DUP2 GT ISZERO PUSH2 0x1123 JUMPI PUSH2 0x1123 PUSH2 0x3D4B JUMP JUMPDEST MUL OR SWAP1 SSTORE POP PUSH2 0x1A0 DUP3 ADD MLOAD PUSH1 0xC DUP3 ADD DUP1 SLOAD PUSH2 0x1C0 DUP6 ADD MLOAD ISZERO ISZERO PUSH3 0x10000 MUL PUSH3 0xFF0000 NOT SWAP4 ISZERO ISZERO PUSH2 0x100 MUL SWAP4 SWAP1 SWAP4 AND PUSH3 0xFFFF00 NOT SWAP1 SWAP2 AND OR SWAP2 SWAP1 SWAP2 OR SWAP1 SSTORE PUSH2 0x1E0 DUP3 ADD MLOAD PUSH1 0xD DUP3 ADD SSTORE PUSH2 0x200 SWAP1 SWAP2 ADD MLOAD PUSH1 0xE SWAP1 SWAP2 ADD DUP1 SLOAD PUSH1 0xFF SWAP3 SWAP1 SWAP3 AND PUSH1 0xFF NOT SWAP1 SWAP3 AND SWAP2 SWAP1 SWAP2 OR SWAP1 SSTORE PUSH2 0x11BA DUP2 PUSH1 0x0 CALLER DUP2 DUP1 PUSH32 0xDA308784DBC9D9C0EBAD2BB66764EE1B914272A49555D7CAAA007A0B732436E3 PUSH2 0x3891 JUMP JUMPDEST PUSH1 0x0 DUP13 DUP2 MSTORE PUSH1 0x5 PUSH1 0x20 SWAP1 DUP2 MSTORE PUSH1 0x40 DUP1 DUP4 KECCAK256 DUP1 SLOAD PUSH1 0x1 DUP2 DUP2 ADD DUP4 SSTORE SWAP2 DUP6 MSTORE DUP4 DUP6 KECCAK256 ADD DUP6 SWAP1 SSTORE DUP15 DUP5 MSTORE PUSH1 0x6 DUP1 DUP5 MSTORE DUP3 DUP6 KECCAK256 DUP1 SLOAD PUSH1 0xFF NOT AND SWAP1 SWAP3 OR SWAP1 SWAP2 SSTORE CALLER DUP5 MSTORE PUSH1 0x7 SWAP1 SWAP3 MSTORE DUP3 KECCAK256 ADD DUP1 SLOAD SWAP2 PUSH2 0x120C DUP4 PUSH2 0x45EE JUMP JUMPDEST SWAP2 SWAP1 POP SSTORE POP DUP11 DUP13 DUP3 PUSH32 0x91B9217DA5B1AD4C6DB6F1E55AD2C6F1AE937F9733118350F4436E11233DCC42 CALLER DUP10 TIMESTAMP PUSH1 0x40 MLOAD PUSH2 0x1247 SWAP4 SWAP3 SWAP2 SWAP1 PUSH2 0x472C JUMP JUMPDEST PUSH1 0x40 MLOAD DUP1 SWAP2 SUB SWAP1 LOG4 SWAP12 SWAP11 POP POP POP POP POP POP POP POP POP POP POP JUMP JUMPDEST PUSH1 0x0 SLOAD PUSH1 0x1 PUSH1 0x1 PUSH1 0xA0 SHL SUB AND CALLER EQ PUSH2 0x1288 JUMPI PUSH1 0x40 MLOAD PUSH3 0x461BCD PUSH1 0xE5 SHL DUP2 MSTORE PUSH1 0x4 ADD PUSH2 0x60B SWAP1 PUSH2 0x43F4 JUMP JUMPDEST PUSH1 0x1 DUP2 LT ISZERO PUSH2 0x12D9 JUMPI PUSH1 0x40 MLOAD PUSH3 0x461BCD PUSH1 0xE5 SHL DUP2 MSTORE PUSH1 0x20 PUSH1 0x4 DUP3 ADD MSTORE PUSH1 0x1E PUSH1 0x24 DUP3 ADD MSTORE PUSH32 0x45766964656E636552656769737472793A206D757374206265203E3D20310000 PUSH1 0x44 DUP3 ADD MSTORE PUSH1 0x64 ADD PUSH2 0x60B JUMP JUMPDEST PUSH1 0x2 DUP1 SLOAD SWAP1 DUP3 SWAP1 SSTORE PUSH1 0x40 DUP1 MLOAD DUP3 DUP2 MSTORE PUSH1 0x20 DUP2 ADD DUP5 SWAP1 MSTORE TIMESTAMP DUP2 DUP4 ADD MSTORE SWAP1 MLOAD PUSH32 0xB7326983450709450E1DDE693A137F1F6F0CE511F8E05259772CF4CEE23ED3AA SWAP2 DUP2 SWAP1 SUB PUSH1 0x60 ADD SWAP1 LOG1 POP POP JUMP JUMPDEST PUSH1 0x0 DUP2 DUP2 MSTORE PUSH1 0x3 PUSH1 0x20 MSTORE PUSH1 0x40 DUP2 KECCAK256 PUSH1 0xC ADD SLOAD DUP2 SWAP1 DUP2 SWAP1 DUP5 SWAP1 PUSH2 0x100 SWAP1 DIV PUSH1 0xFF AND PUSH2 0x1360 JUMPI PUSH1 0x40 MLOAD PUSH3 0x461BCD PUSH1 0xE5 SHL DUP2 MSTORE PUSH1 0x4 ADD PUSH2 0x60B SWAP1 PUSH2 0x43AB JUMP JUMPDEST POP POP POP PUSH1 0x0 SWAP2 DUP3 MSTORE POP PUSH1 0x3 PUSH1 0x20 MSTORE PUSH1 0x40 SWAP1 KECCAK256 PUSH1 0xC DUP2 ADD SLOAD PUSH1 0x9 DUP3 ADD SLOAD PUSH1 0xD SWAP1 SWAP3 ADD SLOAD PUSH1 0xFF SWAP1 SWAP2 AND SWAP3 PUSH1 0x1 PUSH1 0x1 PUSH1 0xA0 SHL SUB SWAP1 SWAP3 AND SWAP2 JUMP JUMPDEST CALLER PUSH1 0x0 SWAP1 DUP2 MSTORE PUSH1 0x9 PUSH1 0x20 MSTORE PUSH1 0x40 DUP2 KECCAK256 SLOAD PUSH1 0xFF AND PUSH2 0x13C5 JUMPI PUSH1 0x40 MLOAD PUSH3 0x461BCD PUSH1 0xE5 SHL DUP2 MSTORE PUSH1 0x4 ADD PUSH2 0x60B SWAP1 PUSH2 0x44E7 JUMP JUMPDEST CALLER PUSH1 0x0 SWAP1 DUP2 MSTORE PUSH1 0x7 PUSH1 0x20 MSTORE PUSH1 0x40 SWAP1 KECCAK256 PUSH1 0x4 ADD SLOAD PUSH1 0xFF AND PUSH2 0x13F7 JUMPI PUSH1 0x40 MLOAD PUSH3 0x461BCD PUSH1 0xE5 SHL DUP2 MSTORE PUSH1 0x4 ADD PUSH2 0x60B SWAP1 PUSH2 0x451F JUMP JUMPDEST CALLER PUSH1 0x0 SWAP1 DUP2 MSTORE PUSH1 0x8 PUSH1 0x20 MSTORE PUSH1 0x40 SWAP1 KECCAK256 SLOAD PUSH1 0x0 DUP1 MLOAD PUSH1 0x20 PUSH2 0x49F9 DUP4 CODECOPY DUP2 MLOAD SWAP2 MSTORE EQ DUP1 PUSH2 0x143E JUMPI POP CALLER PUSH1 0x0 SWAP1 DUP2 MSTORE PUSH1 0x8 PUSH1 0x20 MSTORE PUSH1 0x40 SWAP1 KECCAK256 SLOAD PUSH1 0x0 DUP1 MLOAD PUSH1 0x20 PUSH2 0x4A19 DUP4 CODECOPY DUP2 MLOAD SWAP2 MSTORE EQ JUMPDEST DUP1 PUSH2 0x1453 JUMPI POP PUSH1 0x0 SLOAD PUSH1 0x1 PUSH1 0x1 PUSH1 0xA0 SHL SUB AND CALLER EQ JUMPDEST PUSH2 0x146F JUMPI PUSH1 0x40 MLOAD PUSH3 0x461BCD PUSH1 0xE5 SHL DUP2 MSTORE PUSH1 0x4 ADD PUSH2 0x60B SWAP1 PUSH2 0x459B JUMP JUMPDEST PUSH1 0x0 DUP5 DUP2 MSTORE PUSH1 0x3 PUSH1 0x20 MSTORE PUSH1 0x40 SWAP1 KECCAK256 PUSH1 0xC ADD SLOAD DUP5 SWAP1 PUSH2 0x100 SWAP1 DIV PUSH1 0xFF AND PUSH2 0x14A7 JUMPI PUSH1 0x40 MLOAD PUSH3 0x461BCD PUSH1 0xE5 SHL DUP2 MSTORE PUSH1 0x4 ADD PUSH2 0x60B SWAP1 PUSH2 0x43AB JUMP JUMPDEST PUSH1 0x0 DUP6 DUP2 MSTORE PUSH1 0x3 PUSH1 0x20 MSTORE PUSH1 0x40 SWAP1 KECCAK256 PUSH1 0x9 ADD SLOAD DUP6 SWAP1 PUSH1 0x1 PUSH1 0x1 PUSH1 0xA0 SHL SUB AND CALLER EQ DUP1 PUSH2 0x14ED JUMPI POP CALLER PUSH1 0x0 SWAP1 DUP2 MSTORE PUSH1 0x8 PUSH1 0x20 MSTORE PUSH1 0x40 SWAP1 KECCAK256 SLOAD PUSH1 0x0 DUP1 MLOAD PUSH1 0x20 PUSH2 0x4A19 DUP4 CODECOPY DUP2 MLOAD SWAP2 MSTORE EQ JUMPDEST DUP1 PUSH2 0x1502 JUMPI POP PUSH1 0x0 SLOAD PUSH1 0x1 PUSH1 0x1 PUSH1 0xA0 SHL SUB AND CALLER EQ JUMPDEST PUSH2 0x151E JUMPI PUSH1 0x40 MLOAD PUSH3 0x461BCD PUSH1 0xE5 SHL DUP2 MSTORE PUSH1 0x4 ADD PUSH2 0x60B SWAP1 PUSH2 0x4757 JUMP JUMPDEST PUSH1 0x0 DUP7 DUP2 MSTORE PUSH1 0x3 PUSH1 0x20 MSTORE PUSH1 0x40 SWAP1 KECCAK256 PUSH1 0xC DUP2 ADD SLOAD PUSH3 0x10000 SWAP1 DIV PUSH1 0xFF AND PUSH2 0x15AC JUMPI PUSH1 0x40 MLOAD PUSH3 0x461BCD PUSH1 0xE5 SHL DUP2 MSTORE PUSH1 0x20 PUSH1 0x4 DUP3 ADD MSTORE PUSH1 0x38 PUSH1 0x24 DUP3 ADD MSTORE PUSH32 0x45766964656E636552656769737472793A20757365207472616E736665724576 PUSH1 0x44 DUP3 ADD MSTORE PUSH32 0x6964656E636520666F72206E6F6E2D73656E7369746976650000000000000000 PUSH1 0x64 DUP3 ADD MSTORE PUSH1 0x84 ADD PUSH2 0x60B JUMP JUMPDEST PUSH1 0x1 PUSH1 0x1 PUSH1 0xA0 SHL SUB DUP7 AND PUSH2 0x15D2 JUMPI PUSH1 0x40 MLOAD PUSH3 0x461BCD PUSH1 0xE5 SHL DUP2 MSTORE PUSH1 0x4 ADD PUSH2 0x60B SWAP1 PUSH2 0x4793 JUMP JUMPDEST CALLER PUSH1 0x1 PUSH1 0x1 PUSH1 0xA0 SHL SUB DUP8 AND SUB PUSH2 0x15FA JUMPI PUSH1 0x40 MLOAD PUSH3 0x461BCD PUSH1 0xE5 SHL DUP2 MSTORE PUSH1 0x4 ADD PUSH2 0x60B SWAP1 PUSH2 0x47D6 JUMP JUMPDEST PUSH1 0x1 PUSH1 0x1 PUSH1 0xA0 SHL SUB DUP7 AND PUSH1 0x0 SWAP1 DUP2 MSTORE PUSH1 0x9 PUSH1 0x20 MSTORE PUSH1 0x40 SWAP1 KECCAK256 SLOAD PUSH1 0xFF AND PUSH2 0x1632 JUMPI PUSH1 0x40 MLOAD PUSH3 0x461BCD PUSH1 0xE5 SHL DUP2 MSTORE PUSH1 0x4 ADD PUSH2 0x60B SWAP1 PUSH2 0x4823 JUMP JUMPDEST PUSH1 0x1 PUSH1 0x1 PUSH1 0xA0 SHL SUB DUP7 AND PUSH1 0x0 SWAP1 DUP2 MSTORE PUSH1 0x7 PUSH1 0x20 MSTORE PUSH1 0x40 SWAP1 KECCAK256 PUSH1 0x4 ADD SLOAD PUSH1 0xFF AND PUSH2 0x16A9 JUMPI PUSH1 0x40 MLOAD PUSH3 0x461BCD PUSH1 0xE5 SHL DUP2 MSTORE PUSH1 0x20 PUSH1 0x4 DUP3 ADD MSTORE PUSH1 0x24 DUP1 DUP3 ADD MSTORE PUSH32 0x45766964656E636552656769737472793A20726563697069656E7420696E6163 PUSH1 0x44 DUP3 ADD MSTORE PUSH4 0x74697665 PUSH1 0xE0 SHL PUSH1 0x64 DUP3 ADD MSTORE PUSH1 0x84 ADD PUSH2 0x60B JUMP JUMPDEST PUSH1 0x4 PUSH1 0xC DUP3 ADD SLOAD PUSH1 0xFF AND PUSH1 0x5 DUP2 GT ISZERO PUSH2 0x16C4 JUMPI PUSH2 0x16C4 PUSH2 0x3D4B JUMP JUMPDEST EQ ISZERO DUP1 ISZERO PUSH2 0x16EB JUMPI POP PUSH1 0x5 PUSH1 0xC DUP3 ADD SLOAD PUSH1 0xFF AND PUSH1 0x5 DUP2 GT ISZERO PUSH2 0x16E8 JUMPI PUSH2 0x16E8 PUSH2 0x3D4B JUMP JUMPDEST EQ ISZERO JUMPDEST PUSH2 0x1707 JUMPI PUSH1 0x40 MLOAD PUSH3 0x461BCD PUSH1 0xE5 SHL DUP2 MSTORE PUSH1 0x4 ADD PUSH2 0x60B SWAP1 PUSH2 0x486D JUMP JUMPDEST PUSH1 0x40 DUP1 MLOAD PUSH1 0x20 DUP1 DUP3 ADD DUP11 SWAP1 MSTORE PUSH1 0x60 DUP10 DUP2 SHL PUSH12 0xFFFFFFFFFFFFFFFFFFFFFFFF NOT SWAP1 DUP2 AND DUP5 DUP7 ADD MSTORE TIMESTAMP PUSH1 0x54 DUP6 ADD DUP2 SWAP1 MSTORE CALLER DUP1 DUP5 SHL SWAP1 SWAP3 AND PUSH1 0x74 DUP7 ADD MSTORE DUP6 MLOAD PUSH1 0x68 DUP2 DUP8 SUB ADD DUP2 MSTORE PUSH1 0x88 DUP7 ADD DUP1 DUP9 MSTORE DUP2 MLOAD SWAP2 DUP7 ADD SWAP2 SWAP1 SWAP2 KECCAK256 PUSH2 0x1A8 DUP8 ADD DUP9 MSTORE DUP15 DUP3 MSTORE PUSH1 0xA8 DUP8 ADD SWAP4 DUP5 MSTORE PUSH1 0x1 PUSH1 0x1 PUSH1 0xA0 SHL SUB DUP1 DUP16 AND PUSH1 0xC8 DUP10 ADD SWAP1 DUP2 MSTORE PUSH1 0xE8 DUP10 ADD DUP16 DUP2 MSTORE PUSH2 0x108 DUP11 ADD SWAP6 DUP7 MSTORE PUSH1 0x0 PUSH2 0x128 DUP12 ADD DUP2 DUP2 MSTORE PUSH2 0x148 DUP13 ADD DUP3 DUP2 MSTORE PUSH2 0x168 DUP14 ADD DUP4 DUP2 MSTORE PUSH2 0x188 SWAP1 SWAP14 ADD DUP12 DUP2 MSTORE DUP8 DUP5 MSTORE PUSH1 0xA DUP14 MSTORE SWAP14 SWAP1 SWAP3 KECCAK256 DUP8 MLOAD DUP2 SSTORE SWAP9 MLOAD PUSH1 0x1 DUP11 ADD DUP1 SLOAD SWAP2 DUP8 AND PUSH1 0x1 PUSH1 0x1 PUSH1 0xA0 SHL SUB NOT SWAP3 DUP4 AND OR SWAP1 SSTORE SWAP4 MLOAD PUSH1 0x2 DUP11 ADD DUP1 SLOAD SWAP2 SWAP1 SWAP7 AND SWAP5 AND SWAP4 SWAP1 SWAP4 OR SWAP1 SWAP4 SSTORE MLOAD PUSH1 0x3 DUP8 ADD SSTORE SWAP4 MLOAD PUSH1 0x4 DUP7 ADD SSTORE SWAP3 MLOAD PUSH1 0x5 DUP6 ADD SSTORE SWAP2 MLOAD PUSH1 0x6 DUP5 ADD DUP1 SLOAD SWAP8 MLOAD ISZERO ISZERO PUSH2 0x100 MUL PUSH2 0xFF00 NOT SWAP3 ISZERO ISZERO SWAP3 SWAP1 SWAP3 AND PUSH2 0xFFFF NOT SWAP1 SWAP9 AND SWAP8 SWAP1 SWAP8 OR OR SWAP1 SWAP6 SSTORE SWAP5 MLOAD DUP1 MLOAD SWAP6 SWAP10 POP SWAP2 SWAP5 SWAP1 SWAP3 PUSH2 0x1848 SWAP3 PUSH1 0x7 DUP6 ADD SWAP3 SWAP2 ADD SWAP1 PUSH2 0x3C17 JUMP JUMPDEST POP POP PUSH1 0xC DUP1 SLOAD PUSH1 0x1 DUP2 ADD DUP3 SSTORE PUSH1 0x0 SWAP2 SWAP1 SWAP2 MSTORE PUSH32 0xDF6966C971051C3D54EC59162606531493A51404A002842F56009D7E5CF4A8C7 ADD DUP7 SWAP1 SSTORE POP PUSH1 0x40 MLOAD TIMESTAMP DUP2 MSTORE PUSH1 0x1 PUSH1 0x1 PUSH1 0xA0 SHL SUB DUP9 AND SWAP1 DUP10 SWAP1 DUP8 SWAP1 PUSH32 0xCCD8109F16A83B8F6083CE9841DA08183CFCAA013A044DEB6751B8595BD35C13 SWAP1 PUSH1 0x20 ADD PUSH1 0x40 MLOAD DUP1 SWAP2 SUB SWAP1 LOG4 POP POP POP POP SWAP4 SWAP3 POP POP POP JUMP JUMPDEST PUSH1 0x0 SLOAD PUSH1 0x1 PUSH1 0x1 PUSH1 0xA0 SHL SUB AND CALLER EQ PUSH2 0x18F7 JUMPI PUSH1 0x40 MLOAD PUSH3 0x461BCD PUSH1 0xE5 SHL DUP2 MSTORE PUSH1 0x4 ADD PUSH2 0x60B SWAP1 PUSH2 0x43F4 JUMP JUMPDEST PUSH1 0x0 DUP3 DUP2 MSTORE PUSH1 0x3 PUSH1 0x20 MSTORE PUSH1 0x40 SWAP1 KECCAK256 PUSH1 0xC ADD SLOAD DUP3 SWAP1 PUSH2 0x100 SWAP1 DIV PUSH1 0xFF AND PUSH2 0x192F JUMPI PUSH1 0x40 MLOAD PUSH3 0x461BCD PUSH1 0xE5 SHL DUP2 MSTORE PUSH1 0x4 ADD PUSH2 0x60B SWAP1 PUSH2 0x43AB JUMP JUMPDEST PUSH1 0x0 DUP4 DUP2 MSTORE PUSH1 0x3 PUSH1 0x20 MSTORE PUSH1 0x40 SWAP1 KECCAK256 PUSH1 0x4 PUSH1 0xC DUP3 ADD SLOAD PUSH1 0xFF AND PUSH1 0x5 DUP2 GT ISZERO PUSH2 0x1958 JUMPI PUSH2 0x1958 PUSH2 0x3D4B JUMP JUMPDEST SUB PUSH2 0x19B0 JUMPI PUSH1 0x40 MLOAD PUSH3 0x461BCD PUSH1 0xE5 SHL DUP2 MSTORE PUSH1 0x20 PUSH1 0x4 DUP3 ADD MSTORE PUSH1 0x22 PUSH1 0x24 DUP3 ADD MSTORE PUSH32 0x45766964656E636552656769737472793A20616C726561647920617263686976 PUSH1 0x44 DUP3 ADD MSTORE PUSH2 0x1959 PUSH1 0xF2 SHL PUSH1 0x64 DUP3 ADD MSTORE PUSH1 0x84 ADD PUSH2 0x60B JUMP JUMPDEST PUSH1 0xC DUP2 ADD DUP1 SLOAD PUSH1 0xFF DUP2 AND SWAP2 PUSH1 0x4 SWAP2 PUSH1 0xFF NOT AND PUSH1 0x1 DUP4 MUL OR SWAP1 SSTORE POP PUSH2 0x19D9 DUP6 CALLER CALLER DUP5 PUSH1 0x4 DUP10 PUSH2 0x3891 JUMP JUMPDEST DUP5 PUSH32 0x51E50E7FA27C95E766D37FE2F233D4F246FD9A80951686AD26FF03B7392E662F DUP3 PUSH1 0x4 CALLER TIMESTAMP PUSH1 0x40 MLOAD PUSH2 0x1A10 SWAP5 SWAP4 SWAP3 SWAP2 SWAP1 PUSH2 0x48C0 JUMP JUMPDEST PUSH1 0x40 MLOAD DUP1 SWAP2 SUB SWAP1 LOG2 POP POP POP POP POP JUMP JUMPDEST CALLER PUSH1 0x0 SWAP1 DUP2 MSTORE PUSH1 0x8 PUSH1 0x20 MSTORE PUSH1 0x40 SWAP1 KECCAK256 SLOAD PUSH1 0x0 DUP1 MLOAD PUSH1 0x20 PUSH2 0x4A19 DUP4 CODECOPY DUP2 MLOAD SWAP2 MSTORE EQ DUP1 PUSH2 0x1A54 JUMPI POP PUSH1 0x0 SLOAD PUSH1 0x1 PUSH1 0x1 PUSH1 0xA0 SHL SUB AND CALLER EQ JUMPDEST PUSH2 0x1A70 JUMPI PUSH1 0x40 MLOAD PUSH3 0x461BCD PUSH1 0xE5 SHL DUP2 MSTORE PUSH1 0x4 ADD PUSH2 0x60B SWAP1 PUSH2 0x446E JUMP JUMPDEST PUSH1 0x1 PUSH1 0x1 PUSH1 0xA0 SHL SUB DUP2 AND PUSH1 0x0 SWAP1 DUP2 MSTORE PUSH1 0x9 PUSH1 0x20 MSTORE PUSH1 0x40 SWAP1 KECCAK256 SLOAD PUSH1 0xFF AND PUSH2 0x1AA8 JUMPI PUSH1 0x40 MLOAD PUSH3 0x461BCD PUSH1 0xE5 SHL DUP2 MSTORE PUSH1 0x4 ADD PUSH2 0x60B SWAP1 PUSH2 0x44A4 JUMP JUMPDEST PUSH1 0x0 SLOAD PUSH1 0x1 PUSH1 0x1 PUSH1 0xA0 SHL SUB SWAP1 DUP2 AND SWAP1 DUP3 AND SUB PUSH2 0x1B1E JUMPI PUSH1 0x40 MLOAD PUSH3 0x461BCD PUSH1 0xE5 SHL DUP2 MSTORE PUSH1 0x20 PUSH1 0x4 DUP3 ADD MSTORE PUSH1 0x2F PUSH1 0x24 DUP3 ADD MSTORE PUSH32 0x45766964656E636552656769737472793A2063616E6E6F742064656163746976 PUSH1 0x44 DUP3 ADD MSTORE PUSH15 0x30BA329039BAB832B91030B236B4B7 PUSH1 0x89 SHL PUSH1 0x64 DUP3 ADD MSTORE PUSH1 0x84 ADD PUSH2 0x60B JUMP JUMPDEST PUSH1 0x1 PUSH1 0x1 PUSH1 0xA0 SHL SUB DUP2 AND PUSH1 0x0 DUP2 DUP2 MSTORE PUSH1 0x7 PUSH1 0x20 MSTORE PUSH1 0x40 SWAP1 DUP2 SWAP1 KECCAK256 PUSH1 0x4 ADD DUP1 SLOAD PUSH1 0xFF NOT AND SWAP1 SSTORE MLOAD CALLER SWAP2 SWAP1 PUSH32 0xED34F29A0FC7580B9C9444A8BC062D4242D76236BBA6E165C60B15CC26A58FB3 SWAP1 PUSH2 0x1B76 SWAP1 TIMESTAMP DUP2 MSTORE PUSH1 0x20 ADD SWAP1 JUMP JUMPDEST PUSH1 0x40 MLOAD DUP1 SWAP2 SUB SWAP1 LOG3 POP JUMP JUMPDEST CALLER PUSH1 0x0 SWAP1 DUP2 MSTORE PUSH1 0x9 PUSH1 0x20 MSTORE PUSH1 0x40 SWAP1 KECCAK256 SLOAD PUSH1 0x60 SWAP1 PUSH1 0xFF AND PUSH2 0x1BB3 JUMPI PUSH1 0x40 MLOAD PUSH3 0x461BCD PUSH1 0xE5 SHL DUP2 MSTORE PUSH1 0x4 ADD PUSH2 0x60B SWAP1 PUSH2 0x44E7 JUMP JUMPDEST CALLER PUSH1 0x0 SWAP1 DUP2 MSTORE PUSH1 0x7 PUSH1 0x20 MSTORE PUSH1 0x40 SWAP1 KECCAK256 PUSH1 0x4 ADD SLOAD PUSH1 0xFF AND PUSH2 0x1BE5 JUMPI PUSH1 0x40 MLOAD PUSH3 0x461BCD PUSH1 0xE5 SHL DUP2 MSTORE PUSH1 0x4 ADD PUSH2 0x60B SWAP1 PUSH2 0x451F JUMP JUMPDEST PUSH1 0x0 DUP3 DUP2 MSTORE PUSH1 0x5 PUSH1 0x20 SWAP1 DUP2 MSTORE PUSH1 0x40 SWAP2 DUP3 SWAP1 KECCAK256 DUP1 SLOAD DUP4 MLOAD DUP2 DUP5 MUL DUP2 ADD DUP5 ADD SWAP1 SWAP5 MSTORE DUP1 DUP5 MSTORE SWAP1 SWAP2 DUP4 ADD DUP3 DUP3 DUP1 ISZERO PUSH2 0x1C39 JUMPI PUSH1 0x20 MUL DUP3 ADD SWAP2 SWAP1 PUSH1 0x0 MSTORE PUSH1 0x20 PUSH1 0x0 KECCAK256 SWAP1 JUMPDEST DUP2 SLOAD DUP2 MSTORE PUSH1 0x20 ADD SWAP1 PUSH1 0x1 ADD SWAP1 DUP1 DUP4 GT PUSH2 0x1C25 JUMPI JUMPDEST POP POP POP POP POP SWAP1 POP JUMPDEST SWAP2 SWAP1 POP JUMP JUMPDEST CALLER PUSH1 0x0 SWAP1 DUP2 MSTORE PUSH1 0x8 PUSH1 0x20 MSTORE PUSH1 0x40 SWAP1 KECCAK256 SLOAD PUSH1 0x0 DUP1 MLOAD PUSH1 0x20 PUSH2 0x4A19 DUP4 CODECOPY DUP2 MLOAD SWAP2 MSTORE EQ DUP1 PUSH2 0x1C7B JUMPI POP PUSH1 0x0 SLOAD PUSH1 0x1 PUSH1 0x1 PUSH1 0xA0 SHL SUB AND CALLER EQ JUMPDEST PUSH2 0x1C97 JUMPI PUSH1 0x40 MLOAD PUSH3 0x461BCD PUSH1 0xE5 SHL DUP2 MSTORE PUSH1 0x4 ADD PUSH2 0x60B SWAP1 PUSH2 0x446E JUMP JUMPDEST PUSH1 0x1 PUSH1 0x1 PUSH1 0xA0 SHL SUB DUP5 AND PUSH2 0x1CBD JUMPI PUSH1 0x40 MLOAD PUSH3 0x461BCD PUSH1 0xE5 SHL DUP2 MSTORE PUSH1 0x4 ADD PUSH2 0x60B SWAP1 PUSH2 0x442D JUMP JUMPDEST PUSH1 0x1 PUSH1 0x1 PUSH1 0xA0 SHL SUB DUP5 AND PUSH1 0x0 SWAP1 DUP2 MSTORE PUSH1 0x9 PUSH1 0x20 MSTORE PUSH1 0x40 SWAP1 KECCAK256 SLOAD PUSH1 0xFF AND ISZERO PUSH2 0x1D3B JUMPI PUSH1 0x40 MLOAD PUSH3 0x461BCD PUSH1 0xE5 SHL DUP2 MSTORE PUSH1 0x20 PUSH1 0x4 DUP3 ADD MSTORE PUSH1 0x2C PUSH1 0x24 DUP3 ADD MSTORE PUSH32 0x45766964656E636552656769737472793A206F66666963657220616C72656164 PUSH1 0x44 DUP3 ADD MSTORE PUSH12 0x1E481C9959DA5CDD195C9959 PUSH1 0xA2 SHL PUSH1 0x64 DUP3 ADD MSTORE PUSH1 0x84 ADD PUSH2 0x60B JUMP JUMPDEST PUSH1 0x0 DUP1 MLOAD PUSH1 0x20 PUSH2 0x4A19 DUP4 CODECOPY DUP2 MLOAD SWAP2 MSTORE DUP2 EQ DUP1 PUSH2 0x1D64 JUMPI POP PUSH1 0x0 DUP1 MLOAD PUSH1 0x20 PUSH2 0x49F9 DUP4 CODECOPY DUP2 MLOAD SWAP2 MSTORE DUP2 EQ JUMPDEST DUP1 PUSH2 0x1D8E JUMPI POP PUSH32 0x59A1C48E5837AD7A7F3DCEDCBE129BF3249EC4FBF651FD4F5E2600EAD39FE2F5 DUP2 EQ JUMPDEST PUSH2 0x1DDA JUMPI PUSH1 0x40 MLOAD PUSH3 0x461BCD PUSH1 0xE5 SHL DUP2 MSTORE PUSH1 0x20 PUSH1 0x4 DUP3 ADD MSTORE PUSH1 0x1E PUSH1 0x24 DUP3 ADD MSTORE PUSH32 0x45766964656E636552656769737472793A20696E76616C696420726F6C650000 PUSH1 0x44 DUP3 ADD MSTORE PUSH1 0x64 ADD PUSH2 0x60B JUMP JUMPDEST PUSH2 0x1DE6 DUP5 DUP5 DUP5 DUP5 PUSH2 0x3A32 JUMP JUMPDEST POP POP POP POP JUMP JUMPDEST CALLER PUSH1 0x0 SWAP1 DUP2 MSTORE PUSH1 0x9 PUSH1 0x20 MSTORE PUSH1 0x40 SWAP1 KECCAK256 SLOAD PUSH1 0x60 SWAP1 PUSH1 0xFF AND PUSH2 0x1E1E JUMPI PUSH1 0x40 MLOAD PUSH3 0x461BCD PUSH1 0xE5 SHL DUP2 MSTORE PUSH1 0x4 ADD PUSH2 0x60B SWAP1 PUSH2 0x44E7 JUMP JUMPDEST CALLER PUSH1 0x0 SWAP1 DUP2 MSTORE PUSH1 0x7 PUSH1 0x20 MSTORE PUSH1 0x40 SWAP1 KECCAK256 PUSH1 0x4 ADD SLOAD PUSH1 0xFF AND PUSH2 0x1E50 JUMPI PUSH1 0x40 MLOAD PUSH3 0x461BCD PUSH1 0xE5 SHL DUP2 MSTORE PUSH1 0x4 ADD PUSH2 0x60B SWAP1 PUSH2 0x451F JUMP JUMPDEST PUSH1 0x0 DUP3 DUP2 MSTORE PUSH1 0x3 PUSH1 0x20 MSTORE PUSH1 0x40 SWAP1 KECCAK256 PUSH1 0xC ADD SLOAD DUP3 SWAP1 PUSH2 0x100 SWAP1 DIV PUSH1 0xFF AND PUSH2 0x1E88 JUMPI PUSH1 0x40 MLOAD PUSH3 0x461BCD PUSH1 0xE5 SHL DUP2 MSTORE PUSH1 0x4 ADD PUSH2 0x60B SWAP1 PUSH2 0x43AB JUMP JUMPDEST PUSH1 0x0 DUP4 DUP2 MSTORE PUSH1 0x4 PUSH1 0x20 SWAP1 DUP2 MSTORE PUSH1 0x40 DUP1 DUP4 KECCAK256 DUP1 SLOAD DUP3 MLOAD DUP2 DUP6 MUL DUP2 ADD DUP6 ADD SWAP1 SWAP4 MSTORE DUP1 DUP4 MSTORE SWAP2 SWAP4 SWAP1 SWAP3 DUP5 ADD JUMPDEST DUP3 DUP3 LT ISZERO PUSH2 0x1F92 JUMPI PUSH1 0x0 DUP5 DUP2 MSTORE PUSH1 0x20 SWAP1 DUP2 SWAP1 KECCAK256 PUSH1 0x40 DUP1 MLOAD PUSH1 0xE0 DUP2 ADD DUP3 MSTORE PUSH1 0x5 DUP7 DUP2 MUL SWAP1 SWAP4 ADD DUP1 SLOAD PUSH1 0x1 PUSH1 0x1 PUSH1 0xA0 SHL SUB SWAP1 DUP2 AND DUP4 MSTORE PUSH1 0x1 DUP3 ADD SLOAD SWAP1 DUP2 AND SWAP6 DUP4 ADD SWAP6 SWAP1 SWAP6 MSTORE SWAP1 SWAP4 SWAP1 SWAP3 SWAP2 DUP5 ADD SWAP2 PUSH1 0x1 PUSH1 0xA0 SHL SWAP1 SWAP2 DIV PUSH1 0xFF AND SWAP1 DUP2 GT ISZERO PUSH2 0x1F17 JUMPI PUSH2 0x1F17 PUSH2 0x3D4B JUMP JUMPDEST PUSH1 0x5 DUP2 GT ISZERO PUSH2 0x1F28 JUMPI PUSH2 0x1F28 PUSH2 0x3D4B JUMP JUMPDEST DUP2 MSTORE PUSH1 0x20 ADD PUSH1 0x1 DUP3 ADD PUSH1 0x15 SWAP1 SLOAD SWAP1 PUSH2 0x100 EXP SWAP1 DIV PUSH1 0xFF AND PUSH1 0x5 DUP2 GT ISZERO PUSH2 0x1F50 JUMPI PUSH2 0x1F50 PUSH2 0x3D4B JUMP JUMPDEST PUSH1 0x5 DUP2 GT ISZERO PUSH2 0x1F61 JUMPI PUSH2 0x1F61 PUSH2 0x3D4B JUMP JUMPDEST DUP2 MSTORE PUSH1 0x20 ADD PUSH1 0x2 DUP3 ADD SLOAD DUP2 MSTORE PUSH1 0x20 ADD PUSH1 0x3 DUP3 ADD SLOAD DUP2 MSTORE PUSH1 0x20 ADD PUSH1 0x4 DUP3 ADD SLOAD DUP2 MSTORE POP POP DUP2 MSTORE PUSH1 0x20 ADD SWAP1 PUSH1 0x1 ADD SWAP1 PUSH2 0x1EB1 JUMP JUMPDEST POP POP POP POP SWAP2 POP POP SWAP2 SWAP1 POP JUMP JUMPDEST CALLER PUSH1 0x0 SWAP1 DUP2 MSTORE PUSH1 0x9 PUSH1 0x20 MSTORE PUSH1 0x40 SWAP1 KECCAK256 SLOAD PUSH1 0xFF AND PUSH2 0x1FCD JUMPI PUSH1 0x40 MLOAD PUSH3 0x461BCD PUSH1 0xE5 SHL DUP2 MSTORE PUSH1 0x4 ADD PUSH2 0x60B SWAP1 PUSH2 0x44E7 JUMP JUMPDEST CALLER PUSH1 0x0 SWAP1 DUP2 MSTORE PUSH1 0x7 PUSH1 0x20 MSTORE PUSH1 0x40 SWAP1 KECCAK256 PUSH1 0x4 ADD SLOAD PUSH1 0xFF AND PUSH2 0x1FFF JUMPI PUSH1 0x40 MLOAD PUSH3 0x461BCD PUSH1 0xE5 SHL DUP2 MSTORE PUSH1 0x4 ADD PUSH2 0x60B SWAP1 PUSH2 0x451F JUMP JUMPDEST CALLER PUSH1 0x0 SWAP1 DUP2 MSTORE PUSH1 0x8 PUSH1 0x20 MSTORE PUSH1 0x40 SWAP1 KECCAK256 SLOAD PUSH1 0x0 DUP1 MLOAD PUSH1 0x20 PUSH2 0x49F9 DUP4 CODECOPY DUP2 MLOAD SWAP2 MSTORE EQ DUP1 PUSH2 0x2046 JUMPI POP CALLER PUSH1 0x0 SWAP1 DUP2 MSTORE PUSH1 0x8 PUSH1 0x20 MSTORE PUSH1 0x40 SWAP1 KECCAK256 SLOAD PUSH1 0x0 DUP1 MLOAD PUSH1 0x20 PUSH2 0x4A19 DUP4 CODECOPY DUP2 MLOAD SWAP2 MSTORE EQ JUMPDEST DUP1 PUSH2 0x205B JUMPI POP PUSH1 0x0 SLOAD PUSH1 0x1 PUSH1 0x1 PUSH1 0xA0 SHL SUB AND CALLER EQ JUMPDEST PUSH2 0x2077 JUMPI PUSH1 0x40 MLOAD PUSH3 0x461BCD PUSH1 0xE5 SHL DUP2 MSTORE PUSH1 0x4 ADD PUSH2 0x60B SWAP1 PUSH2 0x459B JUMP JUMPDEST PUSH1 0x0 DUP4 DUP2 MSTORE PUSH1 0x3 PUSH1 0x20 MSTORE PUSH1 0x40 SWAP1 KECCAK256 PUSH1 0xC ADD SLOAD DUP4 SWAP1 PUSH2 0x100 SWAP1 DIV PUSH1 0xFF AND PUSH2 0x20AF JUMPI PUSH1 0x40 MLOAD PUSH3 0x461BCD PUSH1 0xE5 SHL DUP2 MSTORE PUSH1 0x4 ADD PUSH2 0x60B SWAP1 PUSH2 0x43AB JUMP JUMPDEST PUSH1 0x0 DUP5 DUP2 MSTORE PUSH1 0x3 PUSH1 0x20 MSTORE PUSH1 0x40 SWAP1 KECCAK256 PUSH1 0x9 ADD SLOAD DUP5 SWAP1 PUSH1 0x1 PUSH1 0x1 PUSH1 0xA0 SHL SUB AND CALLER EQ DUP1 PUSH2 0x20F5 JUMPI POP CALLER PUSH1 0x0 SWAP1 DUP2 MSTORE PUSH1 0x8 PUSH1 0x20 MSTORE PUSH1 0x40 SWAP1 KECCAK256 SLOAD PUSH1 0x0 DUP1 MLOAD PUSH1 0x20 PUSH2 0x4A19 DUP4 CODECOPY DUP2 MLOAD SWAP2 MSTORE EQ JUMPDEST DUP1 PUSH2 0x210A JUMPI POP PUSH1 0x0 SLOAD PUSH1 0x1 PUSH1 0x1 PUSH1 0xA0 SHL SUB AND CALLER EQ JUMPDEST PUSH2 0x2126 JUMPI PUSH1 0x40 MLOAD PUSH3 0x461BCD PUSH1 0xE5 SHL DUP2 MSTORE PUSH1 0x4 ADD PUSH2 0x60B SWAP1 PUSH2 0x4757 JUMP JUMPDEST PUSH1 0x0 DUP6 DUP2 MSTORE PUSH1 0x3 PUSH1 0x20 MSTORE PUSH1 0x40 SWAP1 KECCAK256 PUSH1 0xC DUP2 ADD SLOAD PUSH3 0x10000 SWAP1 DIV PUSH1 0xFF AND ISZERO PUSH2 0x21B5 JUMPI PUSH1 0x40 MLOAD PUSH3 0x461BCD PUSH1 0xE5 SHL DUP2 MSTORE PUSH1 0x20 PUSH1 0x4 DUP3 ADD MSTORE PUSH1 0x3C PUSH1 0x24 DUP3 ADD MSTORE PUSH32 0x45766964656E636552656769737472793A207573652072657175657374547261 PUSH1 0x44 DUP3 ADD MSTORE PUSH32 0x6E7366657220666F722073656E7369746976652065766964656E636500000000 PUSH1 0x64 DUP3 ADD MSTORE PUSH1 0x84 ADD PUSH2 0x60B JUMP JUMPDEST PUSH1 0x1 PUSH1 0x1 PUSH1 0xA0 SHL SUB DUP6 AND PUSH2 0x21DB JUMPI PUSH1 0x40 MLOAD PUSH3 0x461BCD PUSH1 0xE5 SHL DUP2 MSTORE PUSH1 0x4 ADD PUSH2 0x60B SWAP1 PUSH2 0x4793 JUMP JUMPDEST CALLER PUSH1 0x1 PUSH1 0x1 PUSH1 0xA0 SHL SUB DUP7 AND SUB PUSH2 0x2203 JUMPI PUSH1 0x40 MLOAD PUSH3 0x461BCD PUSH1 0xE5 SHL DUP2 MSTORE PUSH1 0x4 ADD PUSH2 0x60B SWAP1 PUSH2 0x47D6 JUMP JUMPDEST PUSH1 0x1 PUSH1 0x1 PUSH1 0xA0 SHL SUB DUP6 AND PUSH1 0x0 SWAP1 DUP2 MSTORE PUSH1 0x9 PUSH1 0x20 MSTORE PUSH1 0x40 SWAP1 KECCAK256 SLOAD PUSH1 0xFF AND PUSH2 0x223B JUMPI PUSH1 0x40 MLOAD PUSH3 0x461BCD PUSH1 0xE5 SHL DUP2 MSTORE PUSH1 0x4 ADD PUSH2 0x60B SWAP1 PUSH2 0x4823 JUMP JUMPDEST PUSH1 0x1 PUSH1 0x1 PUSH1 0xA0 SHL SUB DUP6 AND PUSH1 0x0 SWAP1 DUP2 MSTORE PUSH1 0x7 PUSH1 0x20 MSTORE PUSH1 0x40 SWAP1 KECCAK256 PUSH1 0x4 ADD SLOAD PUSH1 0xFF AND PUSH2 0x22BE JUMPI PUSH1 0x40 MLOAD PUSH3 0x461BCD PUSH1 0xE5 SHL DUP2 MSTORE PUSH1 0x20 PUSH1 0x4 DUP3 ADD MSTORE PUSH1 0x2F PUSH1 0x24 DUP3 ADD MSTORE PUSH32 0x45766964656E636552656769737472793A20726563697069656E74206163636F PUSH1 0x44 DUP3 ADD MSTORE PUSH15 0x756E7420697320696E616374697665 PUSH1 0x88 SHL PUSH1 0x64 DUP3 ADD MSTORE PUSH1 0x84 ADD PUSH2 0x60B JUMP JUMPDEST PUSH1 0x1 PUSH1 0x1 PUSH1 0xA0 SHL SUB DUP6 AND PUSH1 0x0 SWAP1 DUP2 MSTORE PUSH1 0x8 PUSH1 0x20 MSTORE PUSH1 0x40 SWAP1 KECCAK256 SLOAD PUSH1 0x0 DUP1 MLOAD PUSH1 0x20 PUSH2 0x49F9 DUP4 CODECOPY DUP2 MLOAD SWAP2 MSTORE EQ DUP1 PUSH2 0x2317 JUMPI POP PUSH1 0x1 PUSH1 0x1 PUSH1 0xA0 SHL SUB DUP6 AND PUSH1 0x0 SWAP1 DUP2 MSTORE PUSH1 0x8 PUSH1 0x20 MSTORE PUSH1 0x40 SWAP1 KECCAK256 SLOAD PUSH1 0x0 DUP1 MLOAD PUSH1 0x20 PUSH2 0x4A19 DUP4 CODECOPY DUP2 MLOAD SWAP2 MSTORE EQ JUMPDEST PUSH2 0x2389 JUMPI PUSH1 0x40 MLOAD PUSH3 0x461BCD PUSH1 0xE5 SHL DUP2 MSTORE PUSH1 0x20 PUSH1 0x4 DUP3 ADD MSTORE PUSH1 0x39 PUSH1 0x24 DUP3 ADD MSTORE PUSH32 0x45766964656E636552656769737472793A20726563697069656E74206D757374 PUSH1 0x44 DUP3 ADD MSTORE PUSH32 0x20626520696E76657374696761746F72206F722061646D696E00000000000000 PUSH1 0x64 DUP3 ADD MSTORE PUSH1 0x84 ADD PUSH2 0x60B JUMP JUMPDEST PUSH1 0x4 PUSH1 0xC DUP3 ADD SLOAD PUSH1 0xFF AND PUSH1 0x5 DUP2 GT ISZERO PUSH2 0x23A4 JUMPI PUSH2 0x23A4 PUSH2 0x3D4B JUMP JUMPDEST EQ ISZERO DUP1 ISZERO PUSH2 0x23CB JUMPI POP PUSH1 0x5 PUSH1 0xC DUP3 ADD SLOAD PUSH1 0xFF AND PUSH1 0x5 DUP2 GT ISZERO PUSH2 0x23C8 JUMPI PUSH2 0x23C8 PUSH2 0x3D4B JUMP JUMPDEST EQ ISZERO JUMPDEST PUSH2 0x23E7 JUMPI PUSH1 0x40 MLOAD PUSH3 0x461BCD PUSH1 0xE5 SHL DUP2 MSTORE PUSH1 0x4 ADD PUSH2 0x60B SWAP1 PUSH2 0x486D JUMP JUMPDEST PUSH1 0x9 DUP2 ADD DUP1 SLOAD PUSH1 0xC DUP4 ADD DUP1 SLOAD PUSH1 0x1 PUSH1 0x1 PUSH1 0xA0 SHL SUB DUP10 DUP2 AND PUSH1 0x1 PUSH1 0x1 PUSH1 0xA0 SHL SUB NOT DUP6 AND OR SWAP1 SWAP5 SSTORE SWAP3 SWAP1 SWAP2 AND SWAP2 PUSH1 0xFF DUP2 AND SWAP2 PUSH1 0x3 SWAP2 PUSH1 0xFF NOT AND PUSH1 0x1 DUP4 MUL OR SWAP1 SSTORE POP PUSH1 0xD DUP4 ADD DUP1 SLOAD SWAP1 PUSH1 0x0 PUSH2 0x2438 DUP4 PUSH2 0x45EE JUMP JUMPDEST SWAP2 SWAP1 POP SSTORE POP PUSH2 0x244C DUP9 DUP4 DUP10 DUP5 PUSH1 0x3 DUP12 PUSH2 0x3891 JUMP JUMPDEST DUP7 PUSH1 0x1 PUSH1 0x1 PUSH1 0xA0 SHL SUB AND DUP3 PUSH1 0x1 PUSH1 0x1 PUSH1 0xA0 SHL SUB AND DUP10 PUSH32 0x3F6B2913633398A44838C6154C1EECC9C05B7919C4E2FC8A7FF7C613AB1951EC DUP10 TIMESTAMP PUSH1 0x40 MLOAD PUSH2 0x249B SWAP3 SWAP2 SWAP1 SWAP2 DUP3 MSTORE PUSH1 0x20 DUP3 ADD MSTORE PUSH1 0x40 ADD SWAP1 JUMP JUMPDEST PUSH1 0x40 MLOAD DUP1 SWAP2 SUB SWAP1 LOG4 POP POP POP POP POP POP POP POP JUMP JUMPDEST CALLER PUSH1 0x0 SWAP1 DUP2 MSTORE PUSH1 0x9 PUSH1 0x20 MSTORE PUSH1 0x40 SWAP1 KECCAK256 SLOAD PUSH1 0x60 SWAP1 PUSH1 0xFF AND PUSH2 0x24DF JUMPI PUSH1 0x40 MLOAD PUSH3 0x461BCD PUSH1 0xE5 SHL DUP2 MSTORE PUSH1 0x4 ADD PUSH2 0x60B SWAP1 PUSH2 0x44E7 JUMP JUMPDEST CALLER PUSH1 0x0 SWAP1 DUP2 MSTORE PUSH1 0x7 PUSH1 0x20 MSTORE PUSH1 0x40 SWAP1 KECCAK256 PUSH1 0x4 ADD SLOAD PUSH1 0xFF AND PUSH2 0x2511 JUMPI PUSH1 0x40 MLOAD PUSH3 0x461BCD PUSH1 0xE5 SHL DUP2 MSTORE PUSH1 0x4 ADD PUSH2 0x60B SWAP1 PUSH2 0x451F JUMP JUMPDEST DUP4 DUP3 EQ PUSH2 0x2570 JUMPI PUSH1 0x40 MLOAD PUSH3 0x461BCD PUSH1 0xE5 SHL DUP2 MSTORE PUSH1 0x20 PUSH1 0x4 DUP3 ADD MSTORE PUSH1 0x27 PUSH1 0x24 DUP3 ADD MSTORE PUSH32 0x45766964656E636552656769737472793A206172726179206C656E677468206D PUSH1 0x44 DUP3 ADD MSTORE PUSH7 0xD2E6DAC2E8C6D PUSH1 0xCB SHL PUSH1 0x64 DUP3 ADD MSTORE PUSH1 0x84 ADD PUSH2 0x60B JUMP JUMPDEST PUSH1 0x32 DUP5 GT ISZERO PUSH2 0x25D4 JUMPI PUSH1 0x40 MLOAD PUSH3 0x461BCD PUSH1 0xE5 SHL DUP2 MSTORE PUSH1 0x20 PUSH1 0x4 DUP3 ADD MSTORE PUSH1 0x2A PUSH1 0x24 DUP3 ADD MSTORE PUSH32 0x45766964656E636552656769737472793A20626174636820746F6F206C617267 PUSH1 0x44 DUP3 ADD MSTORE PUSH10 0x6520286D617820353029 PUSH1 0xB0 SHL PUSH1 0x64 DUP3 ADD MSTORE PUSH1 0x84 ADD PUSH2 0x60B JUMP JUMPDEST DUP4 PUSH8 0xFFFFFFFFFFFFFFFF DUP2 GT ISZERO PUSH2 0x25ED JUMPI PUSH2 0x25ED PUSH2 0x4607 JUMP JUMPDEST PUSH1 0x40 MLOAD SWAP1 DUP1 DUP3 MSTORE DUP1 PUSH1 0x20 MUL PUSH1 0x20 ADD DUP3 ADD PUSH1 0x40 MSTORE DUP1 ISZERO PUSH2 0x2616 JUMPI DUP2 PUSH1 0x20 ADD PUSH1 0x20 DUP3 MUL DUP1 CALLDATASIZE DUP4 CALLDATACOPY ADD SWAP1 POP JUMPDEST POP SWAP1 POP PUSH1 0x0 JUMPDEST DUP5 DUP2 LT ISZERO PUSH2 0x27F6 JUMPI PUSH1 0x3 PUSH1 0x0 DUP8 DUP8 DUP5 DUP2 DUP2 LT PUSH2 0x263A JUMPI PUSH2 0x263A PUSH2 0x48F6 JUMP JUMPDEST SWAP1 POP PUSH1 0x20 MUL ADD CALLDATALOAD DUP2 MSTORE PUSH1 0x20 ADD SWAP1 DUP2 MSTORE PUSH1 0x20 ADD PUSH1 0x0 KECCAK256 PUSH1 0xC ADD PUSH1 0x1 SWAP1 SLOAD SWAP1 PUSH2 0x100 EXP SWAP1 DIV PUSH1 0xFF AND PUSH2 0x268D JUMPI PUSH1 0x0 DUP3 DUP3 DUP2 MLOAD DUP2 LT PUSH2 0x2678 JUMPI PUSH2 0x2678 PUSH2 0x48F6 JUMP JUMPDEST SWAP2 ISZERO ISZERO PUSH1 0x20 SWAP3 DUP4 MUL SWAP2 SWAP1 SWAP2 ADD SWAP1 SWAP2 ADD MSTORE PUSH2 0x27E4 JUMP JUMPDEST PUSH1 0x0 PUSH1 0x3 PUSH1 0x0 DUP9 DUP9 DUP6 DUP2 DUP2 LT PUSH2 0x26A5 JUMPI PUSH2 0x26A5 PUSH2 0x48F6 JUMP JUMPDEST SWAP1 POP PUSH1 0x20 MUL ADD CALLDATALOAD DUP2 MSTORE PUSH1 0x20 ADD SWAP1 DUP2 MSTORE PUSH1 0x20 ADD PUSH1 0x0 KECCAK256 SWAP1 POP PUSH1 0x0 DUP2 PUSH1 0x2 ADD SLOAD DUP7 DUP7 DUP6 DUP2 DUP2 LT PUSH2 0x26D5 JUMPI PUSH2 0x26D5 PUSH2 0x48F6 JUMP JUMPDEST SWAP1 POP PUSH1 0x20 MUL ADD CALLDATALOAD EQ SWAP1 POP DUP1 DUP5 DUP5 DUP2 MLOAD DUP2 LT PUSH2 0x26F2 JUMPI PUSH2 0x26F2 PUSH2 0x48F6 JUMP JUMPDEST SWAP2 ISZERO ISZERO PUSH1 0x20 SWAP3 DUP4 MUL SWAP2 SWAP1 SWAP2 ADD SWAP1 SWAP2 ADD MSTORE PUSH1 0xE DUP3 ADD DUP1 SLOAD PUSH1 0xFF AND SWAP1 PUSH1 0x0 PUSH2 0x2717 DUP4 PUSH2 0x490C JUMP JUMPDEST SWAP2 SWAP1 PUSH2 0x100 EXP DUP2 SLOAD DUP2 PUSH1 0xFF MUL NOT AND SWAP1 DUP4 PUSH1 0xFF AND MUL OR SWAP1 SSTORE POP POP PUSH1 0xD PUSH1 0x0 DUP10 DUP10 DUP7 DUP2 DUP2 LT PUSH2 0x2746 JUMPI PUSH2 0x2746 PUSH2 0x48F6 JUMP JUMPDEST PUSH1 0x20 SWAP1 DUP2 MUL SWAP3 SWAP1 SWAP3 ADD CALLDATALOAD DUP4 MSTORE POP DUP2 DUP2 ADD SWAP3 SWAP1 SWAP3 MSTORE PUSH1 0x40 ADD PUSH1 0x0 SWAP1 DUP2 KECCAK256 DUP1 SLOAD PUSH1 0x1 DUP2 ADD DUP3 SSTORE SWAP1 DUP3 MSTORE SWAP2 SWAP1 KECCAK256 ADD DUP1 SLOAD PUSH1 0x1 PUSH1 0x1 PUSH1 0xA0 SHL SUB NOT AND CALLER SWAP1 DUP2 OR SWAP1 SWAP2 SSTORE DUP9 DUP9 DUP6 DUP2 DUP2 LT PUSH2 0x2796 JUMPI PUSH2 0x2796 PUSH2 0x48F6 JUMP JUMPDEST SWAP1 POP PUSH1 0x20 MUL ADD CALLDATALOAD PUSH32 0x44DB094F43EFA113AA67A0A0C54D0573CCF926A00248E4449BFFB7CE8D01FCFE DUP4 TIMESTAMP PUSH1 0x40 MLOAD PUSH2 0x27D9 SWAP3 SWAP2 SWAP1 SWAP2 ISZERO ISZERO DUP3 MSTORE PUSH1 0x20 DUP3 ADD MSTORE PUSH1 0x40 ADD SWAP1 JUMP JUMPDEST PUSH1 0x40 MLOAD DUP1 SWAP2 SUB SWAP1 LOG3 POP POP JUMPDEST DUP1 PUSH2 0x27EE DUP2 PUSH2 0x45EE JUMP JUMPDEST SWAP2 POP POP PUSH2 0x261C JUMP JUMPDEST POP SWAP5 SWAP4 POP POP POP POP JUMP JUMPDEST PUSH1 0x40 DUP1 MLOAD PUSH1 0xE0 DUP2 ADD DUP3 MSTORE PUSH1 0x0 DUP1 DUP3 MSTORE PUSH1 0x20 DUP1 DUP4 ADD DUP3 SWAP1 MSTORE DUP3 DUP5 ADD DUP3 SWAP1 MSTORE PUSH1 0x60 DUP4 ADD DUP3 SWAP1 MSTORE PUSH1 0x80 DUP4 ADD DUP3 SWAP1 MSTORE PUSH1 0xA0 DUP4 ADD DUP3 SWAP1 MSTORE PUSH1 0xC0 DUP4 ADD DUP3 SWAP1 MSTORE CALLER DUP3 MSTORE PUSH1 0x9 SWAP1 MSTORE SWAP2 SWAP1 SWAP2 KECCAK256 SLOAD PUSH1 0xFF AND PUSH2 0x2863 JUMPI PUSH1 0x40 MLOAD PUSH3 0x461BCD PUSH1 0xE5 SHL DUP2 MSTORE PUSH1 0x4 ADD PUSH2 0x60B SWAP1 PUSH2 0x44E7 JUMP JUMPDEST CALLER PUSH1 0x0 SWAP1 DUP2 MSTORE PUSH1 0x7 PUSH1 0x20 MSTORE PUSH1 0x40 SWAP1 KECCAK256 PUSH1 0x4 ADD SLOAD PUSH1 0xFF AND PUSH2 0x2895 JUMPI PUSH1 0x40 MLOAD PUSH3 0x461BCD PUSH1 0xE5 SHL DUP2 MSTORE PUSH1 0x4 ADD PUSH2 0x60B SWAP1 PUSH2 0x451F JUMP JUMPDEST PUSH1 0x1 PUSH1 0x1 PUSH1 0xA0 SHL SUB DUP3 AND PUSH1 0x0 SWAP1 DUP2 MSTORE PUSH1 0x9 PUSH1 0x20 MSTORE PUSH1 0x40 SWAP1 KECCAK256 SLOAD PUSH1 0xFF AND PUSH2 0x28CD JUMPI PUSH1 0x40 MLOAD PUSH3 0x461BCD PUSH1 0xE5 SHL DUP2 MSTORE PUSH1 0x4 ADD PUSH2 0x60B SWAP1 PUSH2 0x44A4 JUMP JUMPDEST POP PUSH1 0x1 PUSH1 0x1 PUSH1 0xA0 SHL SUB SWAP1 DUP2 AND PUSH1 0x0 SWAP1 DUP2 MSTORE PUSH1 0x7 PUSH1 0x20 SWAP1 DUP2 MSTORE PUSH1 0x40 SWAP2 DUP3 SWAP1 KECCAK256 DUP3 MLOAD PUSH1 0xE0 DUP2 ADD DUP5 MSTORE DUP2 SLOAD SWAP1 SWAP5 AND DUP5 MSTORE PUSH1 0x1 DUP2 ADD SLOAD SWAP2 DUP5 ADD SWAP2 SWAP1 SWAP2 MSTORE PUSH1 0x2 DUP2 ADD SLOAD SWAP2 DUP4 ADD SWAP2 SWAP1 SWAP2 MSTORE PUSH1 0x3 DUP2 ADD SLOAD PUSH1 0x60 DUP4 ADD MSTORE PUSH1 0x4 DUP2 ADD SLOAD PUSH1 0xFF AND ISZERO ISZERO PUSH1 0x80 DUP4 ADD MSTORE PUSH1 0x5 DUP2 ADD SLOAD PUSH1 0xA0 DUP4 ADD MSTORE PUSH1 0x6 ADD SLOAD PUSH1 0xC0 DUP3 ADD MSTORE SWAP1 JUMP JUMPDEST CALLER PUSH1 0x0 SWAP1 DUP2 MSTORE PUSH1 0x9 PUSH1 0x20 MSTORE PUSH1 0x40 SWAP1 KECCAK256 SLOAD PUSH1 0xFF AND PUSH2 0x2970 JUMPI PUSH1 0x40 MLOAD PUSH3 0x461BCD PUSH1 0xE5 SHL DUP2 MSTORE PUSH1 0x4 ADD PUSH2 0x60B SWAP1 PUSH2 0x44E7 JUMP JUMPDEST CALLER PUSH1 0x0 SWAP1 DUP2 MSTORE PUSH1 0x7 PUSH1 0x20 MSTORE PUSH1 0x40 SWAP1 KECCAK256 PUSH1 0x4 ADD SLOAD PUSH1 0xFF AND PUSH2 0x29A2 JUMPI PUSH1 0x40 MLOAD PUSH3 0x461BCD PUSH1 0xE5 SHL DUP2 MSTORE PUSH1 0x4 ADD PUSH2 0x60B SWAP1 PUSH2 0x451F JUMP JUMPDEST PUSH1 0x0 DUP2 DUP2 MSTORE PUSH1 0xA PUSH1 0x20 MSTORE PUSH1 0x40 DUP2 KECCAK256 PUSH1 0x4 DUP2 ADD SLOAD SWAP1 SWAP2 SUB PUSH2 0x29D4 JUMPI PUSH1 0x40 MLOAD PUSH3 0x461BCD PUSH1 0xE5 SHL DUP2 MSTORE PUSH1 0x4 ADD PUSH2 0x60B SWAP1 PUSH2 0x492B JUMP JUMPDEST PUSH1 0x6 DUP2 ADD SLOAD PUSH1 0xFF AND ISZERO PUSH2 0x29F9 JUMPI PUSH1 0x40 MLOAD PUSH3 0x461BCD PUSH1 0xE5 SHL DUP2 MSTORE PUSH1 0x4 ADD PUSH2 0x60B SWAP1 PUSH2 0x4973 JUMP JUMPDEST PUSH1 0x6 DUP2 ADD SLOAD PUSH2 0x100 SWAP1 DIV PUSH1 0xFF AND ISZERO PUSH2 0x2A5F JUMPI PUSH1 0x40 MLOAD PUSH3 0x461BCD PUSH1 0xE5 SHL DUP2 MSTORE PUSH1 0x20 PUSH1 0x4 DUP3 ADD MSTORE PUSH1 0x23 PUSH1 0x24 DUP3 ADD MSTORE PUSH32 0x45766964656E636552656769737472793A20616C72656164792063616E63656C PUSH1 0x44 DUP3 ADD MSTORE PUSH3 0x1B1959 PUSH1 0xEA SHL PUSH1 0x64 DUP3 ADD MSTORE PUSH1 0x84 ADD PUSH2 0x60B JUMP JUMPDEST PUSH1 0x1 DUP2 ADD SLOAD PUSH1 0x1 PUSH1 0x1 PUSH1 0xA0 SHL SUB AND CALLER EQ DUP1 PUSH2 0x2A96 JUMPI POP CALLER PUSH1 0x0 SWAP1 DUP2 MSTORE PUSH1 0x8 PUSH1 0x20 MSTORE PUSH1 0x40 SWAP1 KECCAK256 SLOAD PUSH1 0x0 DUP1 MLOAD PUSH1 0x20 PUSH2 0x4A19 DUP4 CODECOPY DUP2 MLOAD SWAP2 MSTORE EQ JUMPDEST DUP1 PUSH2 0x2AAB JUMPI POP PUSH1 0x0 SLOAD PUSH1 0x1 PUSH1 0x1 PUSH1 0xA0 SHL SUB AND CALLER EQ JUMPDEST PUSH2 0x2B0A JUMPI PUSH1 0x40 MLOAD PUSH3 0x461BCD PUSH1 0xE5 SHL DUP2 MSTORE PUSH1 0x20 PUSH1 0x4 DUP3 ADD MSTORE PUSH1 0x2A PUSH1 0x24 DUP3 ADD MSTORE PUSH32 0x45766964656E636552656769737472793A206E6F7420617574686F7269736564 PUSH1 0x44 DUP3 ADD MSTORE PUSH10 0x81D1BC818D85B98D95B PUSH1 0xB2 SHL PUSH1 0x64 DUP3 ADD MSTORE PUSH1 0x84 ADD PUSH2 0x60B JUMP JUMPDEST PUSH1 0x6 DUP2 ADD DUP1 SLOAD PUSH2 0xFF00 NOT AND PUSH2 0x100 OR SWAP1 SSTORE PUSH1 0x40 MLOAD CALLER SWAP1 DUP4 SWAP1 PUSH32 0x8FCA4AD251E9C6CDE0E447CD4ABC082D948C417B5140A7340BF482D536C70858 SWAP1 PUSH2 0x2B51 SWAP1 TIMESTAMP DUP2 MSTORE PUSH1 0x20 ADD SWAP1 JUMP JUMPDEST PUSH1 0x40 MLOAD DUP1 SWAP2 SUB SWAP1 LOG3 POP POP JUMP JUMPDEST CALLER PUSH1 0x0 SWAP1 DUP2 MSTORE PUSH1 0x9 PUSH1 0x20 MSTORE PUSH1 0x40 SWAP1 KECCAK256 SLOAD PUSH1 0xFF AND PUSH2 0x2B8C JUMPI PUSH1 0x40 MLOAD PUSH3 0x461BCD PUSH1 0xE5 SHL DUP2 MSTORE PUSH1 0x4 ADD PUSH2 0x60B SWAP1 PUSH2 0x44E7 JUMP JUMPDEST CALLER PUSH1 0x0 SWAP1 DUP2 MSTORE PUSH1 0x7 PUSH1 0x20 MSTORE PUSH1 0x40 SWAP1 KECCAK256 PUSH1 0x4 ADD SLOAD PUSH1 0xFF AND PUSH2 0x2BBE JUMPI PUSH1 0x40 MLOAD PUSH3 0x461BCD PUSH1 0xE5 SHL DUP2 MSTORE PUSH1 0x4 ADD PUSH2 0x60B SWAP1 PUSH2 0x451F JUMP JUMPDEST CALLER PUSH1 0x0 SWAP1 DUP2 MSTORE PUSH1 0x8 PUSH1 0x20 MSTORE PUSH1 0x40 SWAP1 KECCAK256 SLOAD PUSH1 0x0 DUP1 MLOAD PUSH1 0x20 PUSH2 0x49F9 DUP4 CODECOPY DUP2 MLOAD SWAP2 MSTORE EQ DUP1 PUSH2 0x2C05 JUMPI POP CALLER PUSH1 0x0 SWAP1 DUP2 MSTORE PUSH1 0x8 PUSH1 0x20 MSTORE PUSH1 0x40 SWAP1 KECCAK256 SLOAD PUSH1 0x0 DUP1 MLOAD PUSH1 0x20 PUSH2 0x4A19 DUP4 CODECOPY DUP2 MLOAD SWAP2 MSTORE EQ JUMPDEST DUP1 PUSH2 0x2C1A JUMPI POP PUSH1 0x0 SLOAD PUSH1 0x1 PUSH1 0x1 PUSH1 0xA0 SHL SUB AND CALLER EQ JUMPDEST PUSH2 0x2C36 JUMPI PUSH1 0x40 MLOAD PUSH3 0x461BCD PUSH1 0xE5 SHL DUP2 MSTORE PUSH1 0x4 ADD PUSH2 0x60B SWAP1 PUSH2 0x459B JUMP JUMPDEST PUSH1 0x0 DUP4 DUP2 MSTORE PUSH1 0x3 PUSH1 0x20 MSTORE PUSH1 0x40 SWAP1 KECCAK256 PUSH1 0xC ADD SLOAD DUP4 SWAP1 PUSH2 0x100 SWAP1 DIV PUSH1 0xFF AND PUSH2 0x2C6E JUMPI PUSH1 0x40 MLOAD PUSH3 0x461BCD PUSH1 0xE5 SHL DUP2 MSTORE PUSH1 0x4 ADD PUSH2 0x60B SWAP1 PUSH2 0x43AB JUMP JUMPDEST PUSH1 0x0 DUP5 DUP2 MSTORE PUSH1 0x3 PUSH1 0x20 MSTORE PUSH1 0x40 SWAP1 KECCAK256 PUSH1 0x9 ADD SLOAD DUP5 SWAP1 PUSH1 0x1 PUSH1 0x1 PUSH1 0xA0 SHL SUB AND CALLER EQ DUP1 PUSH2 0x2CB4 JUMPI POP CALLER PUSH1 0x0 SWAP1 DUP2 MSTORE PUSH1 0x8 PUSH1 0x20 MSTORE PUSH1 0x40 SWAP1 KECCAK256 SLOAD PUSH1 0x0 DUP1 MLOAD PUSH1 0x20 PUSH2 0x4A19 DUP4 CODECOPY DUP2 MLOAD SWAP2 MSTORE EQ JUMPDEST DUP1 PUSH2 0x2CC9 JUMPI POP PUSH1 0x0 SLOAD PUSH1 0x1 PUSH1 0x1 PUSH1 0xA0 SHL SUB AND CALLER EQ JUMPDEST PUSH2 0x2CE5 JUMPI PUSH1 0x40 MLOAD PUSH3 0x461BCD PUSH1 0xE5 SHL DUP2 MSTORE PUSH1 0x4 ADD PUSH2 0x60B SWAP1 PUSH2 0x4757 JUMP JUMPDEST PUSH1 0x0 DUP6 DUP2 MSTORE PUSH1 0x3 PUSH1 0x20 MSTORE PUSH1 0x40 SWAP1 KECCAK256 PUSH1 0xC DUP2 ADD SLOAD PUSH2 0x2D05 SWAP1 PUSH1 0xFF AND DUP7 PUSH2 0x3B2A JUMP JUMPDEST PUSH2 0x2D65 JUMPI PUSH1 0x40 MLOAD PUSH3 0x461BCD PUSH1 0xE5 SHL DUP2 MSTORE PUSH1 0x20 PUSH1 0x4 DUP3 ADD MSTORE PUSH1 0x2B PUSH1 0x24 DUP3 ADD MSTORE PUSH32 0x45766964656E636552656769737472793A20696E76616C696420737461747573 PUSH1 0x44 DUP3 ADD MSTORE PUSH11 0x103A3930B739B4BA34B7B7 PUSH1 0xA9 SHL PUSH1 0x64 DUP3 ADD MSTORE PUSH1 0x84 ADD PUSH2 0x60B JUMP JUMPDEST PUSH1 0x4 PUSH1 0xC DUP3 ADD SLOAD PUSH1 0xFF AND PUSH1 0x5 DUP2 GT ISZERO PUSH2 0x2D80 JUMPI PUSH2 0x2D80 PUSH2 0x3D4B JUMP JUMPDEST SUB PUSH2 0x2DE6 JUMPI PUSH1 0x40 MLOAD PUSH3 0x461BCD PUSH1 0xE5 SHL DUP2 MSTORE PUSH1 0x20 PUSH1 0x4 DUP3 ADD MSTORE PUSH1 0x30 PUSH1 0x24 DUP3 ADD MSTORE PUSH32 0x45766964656E636552656769737472793A206172636869766564206576696465 PUSH1 0x44 DUP3 ADD MSTORE PUSH16 0x6E636520697320696D6D757461626C65 PUSH1 0x80 SHL PUSH1 0x64 DUP3 ADD MSTORE PUSH1 0x84 ADD PUSH2 0x60B JUMP JUMPDEST PUSH1 0x5 PUSH1 0xC DUP3 ADD SLOAD PUSH1 0xFF AND PUSH1 0x5 DUP2 GT ISZERO PUSH2 0x2E01 JUMPI PUSH2 0x2E01 PUSH2 0x3D4B JUMP JUMPDEST SUB PUSH2 0x2E6C JUMPI PUSH1 0x40 MLOAD PUSH3 0x461BCD PUSH1 0xE5 SHL DUP2 MSTORE PUSH1 0x20 PUSH1 0x4 DUP3 ADD MSTORE PUSH1 0x35 PUSH1 0x24 DUP3 ADD MSTORE PUSH32 0x45766964656E636552656769737472793A2072656A6563746564206576696465 PUSH1 0x44 DUP3 ADD MSTORE PUSH21 0x1B98D94818D85B9B9BDD081899481D5C19185D1959 PUSH1 0x5A SHL PUSH1 0x64 DUP3 ADD MSTORE PUSH1 0x84 ADD PUSH2 0x60B JUMP JUMPDEST PUSH1 0xC DUP2 ADD DUP1 SLOAD PUSH1 0xFF DUP2 AND SWAP2 DUP8 SWAP2 PUSH1 0xFF NOT AND PUSH1 0x1 DUP4 PUSH1 0x5 DUP2 GT ISZERO PUSH2 0x2E91 JUMPI PUSH2 0x2E91 PUSH2 0x3D4B JUMP JUMPDEST MUL OR SWAP1 SSTORE POP PUSH2 0x2EA4 DUP8 CALLER CALLER DUP5 DUP11 DUP11 PUSH2 0x3891 JUMP JUMPDEST DUP7 PUSH32 0x51E50E7FA27C95E766D37FE2F233D4F246FD9A80951686AD26FF03B7392E662F DUP3 DUP9 CALLER TIMESTAMP PUSH1 0x40 MLOAD PUSH2 0x2EDA SWAP5 SWAP4 SWAP3 SWAP2 SWAP1 PUSH2 0x48C0 JUMP JUMPDEST PUSH1 0x40 MLOAD DUP1 SWAP2 SUB SWAP1 LOG2 POP POP POP POP POP POP POP JUMP JUMPDEST CALLER PUSH1 0x0 SWAP1 DUP2 MSTORE PUSH1 0x8 PUSH1 0x20 MSTORE PUSH1 0x40 SWAP1 KECCAK256 SLOAD PUSH1 0x0 DUP1 MLOAD PUSH1 0x20 PUSH2 0x4A19 DUP4 CODECOPY DUP2 MLOAD SWAP2 MSTORE EQ DUP1 PUSH2 0x2F20 JUMPI POP PUSH1 0x0 SLOAD PUSH1 0x1 PUSH1 0x1 PUSH1 0xA0 SHL SUB AND CALLER EQ JUMPDEST PUSH2 0x2F3C JUMPI PUSH1 0x40 MLOAD PUSH3 0x461BCD PUSH1 0xE5 SHL DUP2 MSTORE PUSH1 0x4 ADD PUSH2 0x60B SWAP1 PUSH2 0x446E JUMP JUMPDEST PUSH1 0x0 DUP2 DUP2 MSTORE PUSH1 0xA PUSH1 0x20 MSTORE PUSH1 0x40 DUP2 KECCAK256 PUSH1 0x4 DUP2 ADD SLOAD SWAP1 SWAP2 SUB PUSH2 0x2F6E JUMPI PUSH1 0x40 MLOAD PUSH3 0x461BCD PUSH1 0xE5 SHL DUP2 MSTORE PUSH1 0x4 ADD PUSH2 0x60B SWAP1 PUSH2 0x492B JUMP JUMPDEST PUSH1 0x6 DUP2 ADD SLOAD PUSH1 0xFF AND ISZERO PUSH2 0x2F93 JUMPI PUSH1 0x40 MLOAD PUSH3 0x461BCD PUSH1 0xE5 SHL DUP2 MSTORE PUSH1 0x4 ADD PUSH2 0x60B SWAP1 PUSH2 0x4973 JUMP JUMPDEST PUSH1 0x6 DUP2 ADD SLOAD PUSH2 0x100 SWAP1 DIV PUSH1 0xFF AND ISZERO PUSH2 0x2FBD JUMPI PUSH1 0x40 MLOAD PUSH3 0x461BCD PUSH1 0xE5 SHL DUP2 MSTORE PUSH1 0x4 ADD PUSH2 0x60B SWAP1 PUSH2 0x49B5 JUMP JUMPDEST PUSH1 0x0 DUP3 DUP2 MSTORE PUSH1 0xB PUSH1 0x20 SWAP1 DUP2 MSTORE PUSH1 0x40 DUP1 DUP4 KECCAK256 CALLER DUP5 MSTORE SWAP1 SWAP2 MSTORE SWAP1 KECCAK256 SLOAD PUSH1 0xFF AND ISZERO PUSH2 0x3032 JUMPI PUSH1 0x40 MLOAD PUSH3 0x461BCD PUSH1 0xE5 SHL DUP2 MSTORE PUSH1 0x20 PUSH1 0x4 DUP3 ADD MSTORE PUSH1 0x22 PUSH1 0x24 DUP3 ADD MSTORE PUSH32 0x45766964656E636552656769737472793A20616C726561647920617070726F76 PUSH1 0x44 DUP3 ADD MSTORE PUSH2 0x1959 PUSH1 0xF2 SHL PUSH1 0x64 DUP3 ADD MSTORE PUSH1 0x84 ADD PUSH2 0x60B JUMP JUMPDEST PUSH1 0x0 DUP3 DUP2 MSTORE PUSH1 0xB PUSH1 0x20 SWAP1 DUP2 MSTORE PUSH1 0x40 DUP1 DUP4 KECCAK256 CALLER DUP5 MSTORE SWAP1 SWAP2 MSTORE DUP2 KECCAK256 DUP1 SLOAD PUSH1 0xFF NOT AND PUSH1 0x1 OR SWAP1 SSTORE PUSH1 0x5 DUP3 ADD DUP1 SLOAD SWAP2 PUSH2 0x3066 DUP4 PUSH2 0x45EE JUMP JUMPDEST SWAP1 SWAP2 SSTORE POP POP PUSH1 0x7 DUP2 ADD DUP1 SLOAD PUSH1 0x1 DUP2 ADD DUP3 SSTORE PUSH1 0x0 SWAP2 DUP3 MSTORE PUSH1 0x20 SWAP1 SWAP2 KECCAK256 ADD DUP1 SLOAD PUSH1 0x1 PUSH1 0x1 PUSH1 0xA0 SHL SUB NOT AND CALLER SWAP1 DUP2 OR SWAP1 SWAP2 SSTORE PUSH1 0x5 DUP3 ADD SLOAD PUSH1 0x40 MLOAD DUP5 SWAP2 PUSH32 0xE40A8BDE34CB3919CB4BD852FBC3DF9168BD432FE4B04A5469CED9B2C26047FE SWAP2 PUSH2 0x2B51 SWAP2 SWAP1 TIMESTAMP SWAP1 SWAP2 DUP3 MSTORE PUSH1 0x20 DUP3 ADD MSTORE PUSH1 0x40 ADD SWAP1 JUMP JUMPDEST CALLER PUSH1 0x0 SWAP1 DUP2 MSTORE PUSH1 0x9 PUSH1 0x20 MSTORE PUSH1 0x40 SWAP1 KECCAK256 SLOAD PUSH1 0xFF AND PUSH2 0x3105 JUMPI PUSH1 0x40 MLOAD PUSH3 0x461BCD PUSH1 0xE5 SHL DUP2 MSTORE PUSH1 0x4 ADD PUSH2 0x60B SWAP1 PUSH2 0x44E7 JUMP JUMPDEST CALLER PUSH1 0x0 SWAP1 DUP2 MSTORE PUSH1 0x7 PUSH1 0x20 MSTORE PUSH1 0x40 SWAP1 KECCAK256 PUSH1 0x4 ADD SLOAD PUSH1 0xFF AND PUSH2 0x3137 JUMPI PUSH1 0x40 MLOAD PUSH3 0x461BCD PUSH1 0xE5 SHL DUP2 MSTORE PUSH1 0x4 ADD PUSH2 0x60B SWAP1 PUSH2 0x451F JUMP JUMPDEST PUSH1 0x0 DUP2 DUP2 MSTORE PUSH1 0xA PUSH1 0x20 MSTORE PUSH1 0x40 DUP2 KECCAK256 PUSH1 0x4 DUP2 ADD SLOAD SWAP1 SWAP2 SUB PUSH2 0x3169 JUMPI PUSH1 0x40 MLOAD PUSH3 0x461BCD PUSH1 0xE5 SHL DUP2 MSTORE PUSH1 0x4 ADD PUSH2 0x60B SWAP1 PUSH2 0x492B JUMP JUMPDEST PUSH1 0x6 DUP2 ADD SLOAD PUSH1 0xFF AND ISZERO PUSH2 0x318E JUMPI PUSH1 0x40 MLOAD PUSH3 0x461BCD PUSH1 0xE5 SHL DUP2 MSTORE PUSH1 0x4 ADD PUSH2 0x60B SWAP1 PUSH2 0x4973 JUMP JUMPDEST PUSH1 0x6 DUP2 ADD SLOAD PUSH2 0x100 SWAP1 DIV PUSH1 0xFF AND ISZERO PUSH2 0x31B8 JUMPI PUSH1 0x40 MLOAD PUSH3 0x461BCD PUSH1 0xE5 SHL DUP2 MSTORE PUSH1 0x4 ADD PUSH2 0x60B SWAP1 PUSH2 0x49B5 JUMP JUMPDEST PUSH1 0x2 SLOAD DUP2 PUSH1 0x5 ADD SLOAD LT ISZERO PUSH2 0x321F JUMPI PUSH1 0x40 MLOAD PUSH3 0x461BCD PUSH1 0xE5 SHL DUP2 MSTORE PUSH1 0x20 PUSH1 0x4 DUP3 ADD MSTORE PUSH1 0x28 PUSH1 0x24 DUP3 ADD MSTORE PUSH32 0x45766964656E636552656769737472793A20696E73756666696369656E742061 PUSH1 0x44 DUP3 ADD MSTORE PUSH8 0x7070726F76616C73 PUSH1 0xC0 SHL PUSH1 0x64 DUP3 ADD MSTORE PUSH1 0x84 ADD PUSH2 0x60B JUMP JUMPDEST PUSH1 0x6 DUP2 ADD DUP1 SLOAD PUSH1 0xFF NOT SWAP1 DUP2 AND PUSH1 0x1 OR SWAP1 SWAP2 SSTORE DUP2 SLOAD PUSH1 0x0 SWAP1 DUP2 MSTORE PUSH1 0x3 PUSH1 0x20 DUP2 SWAP1 MSTORE PUSH1 0x40 DUP3 KECCAK256 PUSH1 0x9 DUP2 ADD DUP1 SLOAD PUSH1 0xC DUP4 ADD DUP1 SLOAD PUSH1 0x2 DUP10 ADD SLOAD PUSH1 0x1 PUSH1 0x1 PUSH1 0xA0 SHL SUB NOT DUP5 AND PUSH1 0x1 PUSH1 0x1 PUSH1 0xA0 SHL SUB SWAP2 DUP3 AND OR SWAP1 SWAP5 SSTORE SWAP7 DUP8 AND SWAP1 SWAP5 OR SWAP1 SWAP4 SSTORE PUSH1 0xD DUP3 ADD DUP1 SLOAD SWAP3 SWAP6 SWAP2 SWAP1 SWAP4 AND SWAP4 PUSH1 0xFF SWAP1 SWAP2 AND SWAP3 SWAP1 PUSH2 0x3294 DUP4 PUSH2 0x45EE JUMP JUMPDEST SWAP1 SWAP2 SSTORE POP POP DUP4 SLOAD PUSH1 0x2 DUP6 ADD SLOAD PUSH1 0x3 DUP1 DUP8 ADD SLOAD PUSH2 0x32C1 SWAP4 SWAP3 DUP7 SWAP3 PUSH1 0x1 PUSH1 0x1 PUSH1 0xA0 SHL SUB SWAP1 SWAP2 AND SWAP2 DUP7 SWAP2 SWAP1 PUSH2 0x3891 JUMP JUMPDEST PUSH1 0x2 DUP5 ADD SLOAD DUP5 SLOAD PUSH1 0x3 DUP7 ADD SLOAD PUSH1 0x40 DUP1 MLOAD SWAP2 DUP3 MSTORE TIMESTAMP PUSH1 0x20 DUP4 ADD MSTORE PUSH1 0x1 PUSH1 0x1 PUSH1 0xA0 SHL SUB SWAP4 DUP5 AND SWAP4 DUP7 AND SWAP3 SWAP2 PUSH32 0x3F6B2913633398A44838C6154C1EECC9C05B7919C4E2FC8A7FF7C613AB1951EC SWAP2 ADD PUSH1 0x40 MLOAD DUP1 SWAP2 SUB SWAP1 LOG4 DUP4 SLOAD PUSH1 0x2 DUP6 ADD SLOAD PUSH1 0x40 DUP1 MLOAD PUSH1 0x1 PUSH1 0x1 PUSH1 0xA0 SHL SUB SWAP1 SWAP3 AND DUP3 MSTORE TIMESTAMP PUSH1 0x20 DUP4 ADD MSTORE DUP8 SWAP2 PUSH32 0x446AF6295AF04B8951528780D62B996B4DA7A436974232418E391FA762E7D728 SWAP2 ADD PUSH1 0x40 MLOAD DUP1 SWAP2 SUB SWAP1 LOG3 POP POP POP POP POP JUMP JUMPDEST PUSH1 0x40 DUP1 MLOAD PUSH2 0x120 DUP2 ADD DUP3 MSTORE PUSH1 0x0 DUP1 DUP3 MSTORE PUSH1 0x20 DUP1 DUP4 ADD DUP3 SWAP1 MSTORE DUP3 DUP5 ADD DUP3 SWAP1 MSTORE PUSH1 0x60 DUP1 DUP5 ADD DUP4 SWAP1 MSTORE PUSH1 0x80 DUP5 ADD DUP4 SWAP1 MSTORE PUSH1 0xA0 DUP5 ADD DUP4 SWAP1 MSTORE PUSH1 0xC0 DUP5 ADD DUP4 SWAP1 MSTORE PUSH1 0xE0 DUP5 ADD DUP4 SWAP1 MSTORE PUSH2 0x100 DUP5 ADD MSTORE CALLER DUP3 MSTORE PUSH1 0x9 SWAP1 MSTORE SWAP2 SWAP1 SWAP2 KECCAK256 SLOAD PUSH1 0xFF AND PUSH2 0x33DA JUMPI PUSH1 0x40 MLOAD PUSH3 0x461BCD PUSH1 0xE5 SHL DUP2 MSTORE PUSH1 0x4 ADD PUSH2 0x60B SWAP1 PUSH2 0x44E7 JUMP JUMPDEST CALLER PUSH1 0x0 SWAP1 DUP2 MSTORE PUSH1 0x7 PUSH1 0x20 MSTORE PUSH1 0x40 SWAP1 KECCAK256 PUSH1 0x4 ADD SLOAD PUSH1 0xFF AND PUSH2 0x340C JUMPI PUSH1 0x40 MLOAD PUSH3 0x461BCD PUSH1 0xE5 SHL DUP2 MSTORE PUSH1 0x4 ADD PUSH2 0x60B SWAP1 PUSH2 0x451F JUMP JUMPDEST PUSH1 0x0 DUP3 DUP2 MSTORE PUSH1 0xA PUSH1 0x20 MSTORE PUSH1 0x40 DUP2 KECCAK256 PUSH1 0x4 ADD SLOAD SWAP1 SUB PUSH2 0x3478 JUMPI PUSH1 0x40 MLOAD PUSH3 0x461BCD PUSH1 0xE5 SHL DUP2 MSTORE PUSH1 0x20 PUSH1 0x4 DUP3 ADD MSTORE PUSH1 0x23 PUSH1 0x24 DUP3 ADD MSTORE PUSH32 0x45766964656E636552656769737472793A2072657175657374206E6F7420666F PUSH1 0x44 DUP3 ADD MSTORE PUSH3 0x1D5B99 PUSH1 0xEA SHL PUSH1 0x64 DUP3 ADD MSTORE PUSH1 0x84 ADD PUSH2 0x60B JUMP JUMPDEST PUSH1 0x0 DUP3 DUP2 MSTORE PUSH1 0xA PUSH1 0x20 SWAP1 DUP2 MSTORE PUSH1 0x40 SWAP2 DUP3 SWAP1 KECCAK256 DUP3 MLOAD PUSH2 0x120 DUP2 ADD DUP5 MSTORE DUP2 SLOAD DUP2 MSTORE PUSH1 0x1 DUP3 ADD SLOAD PUSH1 0x1 PUSH1 0x1 PUSH1 0xA0 SHL SUB SWAP1 DUP2 AND DUP3 DUP6 ADD MSTORE PUSH1 0x2 DUP4 ADD SLOAD AND DUP2 DUP6 ADD MSTORE PUSH1 0x3 DUP3 ADD SLOAD PUSH1 0x60 DUP3 ADD MSTORE PUSH1 0x4 DUP3 ADD SLOAD PUSH1 0x80 DUP3 ADD MSTORE PUSH1 0x5 DUP3 ADD SLOAD PUSH1 0xA0 DUP3 ADD MSTORE PUSH1 0x6 DUP3 ADD SLOAD PUSH1 0xFF DUP1 DUP3 AND ISZERO ISZERO PUSH1 0xC0 DUP5 ADD MSTORE PUSH2 0x100 SWAP2 DUP3 SWAP1 DIV AND ISZERO ISZERO PUSH1 0xE0 DUP4 ADD MSTORE PUSH1 0x7 DUP4 ADD DUP1 SLOAD DUP7 MLOAD DUP2 DUP8 MUL DUP2 ADD DUP8 ADD SWAP1 SWAP8 MSTORE DUP1 DUP8 MSTORE SWAP3 SWAP6 SWAP4 SWAP5 SWAP2 DUP7 ADD SWAP4 SWAP3 SWAP1 SWAP2 DUP4 ADD DUP3 DUP3 DUP1 ISZERO PUSH2 0x354C JUMPI PUSH1 0x20 MUL DUP3 ADD SWAP2 SWAP1 PUSH1 0x0 MSTORE PUSH1 0x20 PUSH1 0x0 KECCAK256 SWAP1 JUMPDEST DUP2 SLOAD PUSH1 0x1 PUSH1 0x1 PUSH1 0xA0 SHL SUB AND DUP2 MSTORE PUSH1 0x1 SWAP1 SWAP2 ADD SWAP1 PUSH1 0x20 ADD DUP1 DUP4 GT PUSH2 0x352E JUMPI JUMPDEST POP POP POP POP POP DUP2 MSTORE POP POP SWAP1 POP SWAP2 SWAP1 POP JUMP JUMPDEST CALLER PUSH1 0x0 SWAP1 DUP2 MSTORE PUSH1 0x9 PUSH1 0x20 MSTORE PUSH1 0x40 SWAP1 KECCAK256 SLOAD PUSH1 0x60 SWAP1 PUSH1 0xFF AND PUSH2 0x358E JUMPI PUSH1 0x40 MLOAD PUSH3 0x461BCD PUSH1 0xE5 SHL DUP2 MSTORE PUSH1 0x4 ADD PUSH2 0x60B SWAP1 PUSH2 0x44E7 JUMP JUMPDEST CALLER PUSH1 0x0 SWAP1 DUP2 MSTORE PUSH1 0x7 PUSH1 0x20 MSTORE PUSH1 0x40 SWAP1 KECCAK256 PUSH1 0x4 ADD SLOAD PUSH1 0xFF AND PUSH2 0x35C0 JUMPI PUSH1 0x40 MLOAD PUSH3 0x461BCD PUSH1 0xE5 SHL DUP2 MSTORE PUSH1 0x4 ADD PUSH2 0x60B SWAP1 PUSH2 0x451F JUMP JUMPDEST PUSH1 0x0 DUP3 DUP2 MSTORE PUSH1 0x3 PUSH1 0x20 MSTORE PUSH1 0x40 SWAP1 KECCAK256 PUSH1 0xC ADD SLOAD DUP3 SWAP1 PUSH2 0x100 SWAP1 DIV PUSH1 0xFF AND PUSH2 0x35F8 JUMPI PUSH1 0x40 MLOAD PUSH3 0x461BCD PUSH1 0xE5 SHL DUP2 MSTORE PUSH1 0x4 ADD PUSH2 0x60B SWAP1 PUSH2 0x43AB JUMP JUMPDEST PUSH1 0x0 DUP4 DUP2 MSTORE PUSH1 0xD PUSH1 0x20 SWAP1 DUP2 MSTORE PUSH1 0x40 SWAP2 DUP3 SWAP1 KECCAK256 DUP1 SLOAD DUP4 MLOAD DUP2 DUP5 MUL DUP2 ADD DUP5 ADD SWAP1 SWAP5 MSTORE DUP1 DUP5 MSTORE SWAP1 SWAP2 DUP4 ADD DUP3 DUP3 DUP1 ISZERO PUSH2 0x3656 JUMPI PUSH1 0x20 MUL DUP3 ADD SWAP2 SWAP1 PUSH1 0x0 MSTORE PUSH1 0x20 PUSH1 0x0 KECCAK256 SWAP1 JUMPDEST DUP2 SLOAD PUSH1 0x1 PUSH1 0x1 PUSH1 0xA0 SHL SUB AND DUP2 MSTORE PUSH1 0x1 SWAP1 SWAP2 ADD SWAP1 PUSH1 0x20 ADD DUP1 DUP4 GT PUSH2 0x3638 JUMPI JUMPDEST POP POP POP POP POP SWAP2 POP POP SWAP2 SWAP1 POP JUMP JUMPDEST CALLER PUSH1 0x0 SWAP1 DUP2 MSTORE PUSH1 0x9 PUSH1 0x20 MSTORE PUSH1 0x40 DUP2 KECCAK256 SLOAD DUP2 SWAP1 DUP2 SWAP1 PUSH1 0xFF AND PUSH2 0x3696 JUMPI PUSH1 0x40 MLOAD PUSH3 0x461BCD PUSH1 0xE5 SHL DUP2 MSTORE PUSH1 0x4 ADD PUSH2 0x60B SWAP1 PUSH2 0x44E7 JUMP JUMPDEST CALLER PUSH1 0x0 SWAP1 DUP2 MSTORE PUSH1 0x7 PUSH1 0x20 MSTORE PUSH1 0x40 SWAP1 KECCAK256 PUSH1 0x4 ADD SLOAD PUSH1 0xFF AND PUSH2 0x36C8 JUMPI PUSH1 0x40 MLOAD PUSH3 0x461BCD PUSH1 0xE5 SHL DUP2 MSTORE PUSH1 0x4 ADD PUSH2 0x60B SWAP1 PUSH2 0x451F JUMP JUMPDEST PUSH1 0x0 DUP6 DUP2 MSTORE PUSH1 0x3 PUSH1 0x20 MSTORE PUSH1 0x40 SWAP1 KECCAK256 PUSH1 0xC ADD SLOAD DUP6 SWAP1 PUSH2 0x100 SWAP1 DIV PUSH1 0xFF AND PUSH2 0x3700 JUMPI PUSH1 0x40 MLOAD PUSH3 0x461BCD PUSH1 0xE5 SHL DUP2 MSTORE PUSH1 0x4 ADD PUSH2 0x60B SWAP1 PUSH2 0x43AB JUMP JUMPDEST PUSH1 0x0 DUP7 DUP2 MSTORE PUSH1 0x3 PUSH1 0x20 MSTORE PUSH1 0x40 DUP2 KECCAK256 PUSH1 0x2 DUP2 ADD SLOAD PUSH1 0xB DUP3 ADD SLOAD PUSH1 0xE DUP4 ADD DUP1 SLOAD DUP11 DUP5 EQ SWAP10 POP SWAP3 SWAP8 POP SWAP1 SWAP6 POP SWAP2 SWAP3 PUSH1 0xFF SWAP1 SWAP2 AND SWAP2 SWAP1 PUSH2 0x373B DUP4 PUSH2 0x490C JUMP JUMPDEST DUP3 SLOAD PUSH1 0xFF SWAP2 DUP3 AND PUSH2 0x100 SWAP4 SWAP1 SWAP4 EXP SWAP3 DUP4 MUL SWAP2 SWAP1 SWAP3 MUL NOT SWAP1 SWAP2 AND OR SWAP1 SSTORE POP PUSH1 0x0 DUP8 DUP2 MSTORE PUSH1 0xD PUSH1 0x20 SWAP1 DUP2 MSTORE PUSH1 0x40 DUP1 DUP4 KECCAK256 DUP1 SLOAD PUSH1 0x1 DUP2 ADD DUP3 SSTORE SWAP1 DUP5 MSTORE SWAP2 SWAP1 SWAP3 KECCAK256 ADD DUP1 SLOAD PUSH1 0x1 PUSH1 0x1 PUSH1 0xA0 SHL SUB NOT AND CALLER SWAP1 DUP2 OR SWAP1 SWAP2 SSTORE SWAP1 MLOAD DUP9 SWAP1 PUSH32 0x44DB094F43EFA113AA67A0A0C54D0573CCF926A00248E4449BFFB7CE8D01FCFE SWAP1 PUSH2 0x37CA SWAP1 DUP10 SWAP1 TIMESTAMP SWAP1 SWAP2 ISZERO ISZERO DUP3 MSTORE PUSH1 0x20 DUP3 ADD MSTORE PUSH1 0x40 ADD SWAP1 JUMP JUMPDEST PUSH1 0x40 MLOAD DUP1 SWAP2 SUB SWAP1 LOG3 POP POP SWAP3 POP SWAP3 POP SWAP3 JUMP JUMPDEST CALLER PUSH1 0x0 SWAP1 DUP2 MSTORE PUSH1 0x8 PUSH1 0x20 MSTORE PUSH1 0x40 SWAP1 KECCAK256 SLOAD PUSH1 0x0 DUP1 MLOAD PUSH1 0x20 PUSH2 0x4A19 DUP4 CODECOPY DUP2 MLOAD SWAP2 MSTORE EQ DUP1 PUSH2 0x3810 JUMPI POP PUSH1 0x0 SLOAD PUSH1 0x1 PUSH1 0x1 PUSH1 0xA0 SHL SUB AND CALLER EQ JUMPDEST PUSH2 0x382C JUMPI PUSH1 0x40 MLOAD PUSH3 0x461BCD PUSH1 0xE5 SHL DUP2 MSTORE PUSH1 0x4 ADD PUSH2 0x60B SWAP1 PUSH2 0x446E JUMP JUMPDEST PUSH1 0x0 DUP3 DUP2 MSTORE PUSH1 0x3 PUSH1 0x20 MSTORE PUSH1 0x40 SWAP1 KECCAK256 PUSH1 0xC ADD SLOAD DUP3 SWAP1 PUSH2 0x100 SWAP1 DIV PUSH1 0xFF AND PUSH2 0x3864 JUMPI PUSH1 0x40 MLOAD PUSH3 0x461BCD PUSH1 0xE5 SHL DUP2 MSTORE PUSH1 0x4 ADD PUSH2 0x60B SWAP1 PUSH2 0x43AB JUMP JUMPDEST POP PUSH1 0x0 SWAP2 DUP3 MSTORE PUSH1 0x3 PUSH1 0x20 MSTORE PUSH1 0x40 SWAP1 SWAP2 KECCAK256 PUSH1 0xC ADD DUP1 SLOAD SWAP2 ISZERO ISZERO PUSH3 0x10000 MUL PUSH3 0xFF0000 NOT SWAP1 SWAP3 AND SWAP2 SWAP1 SWAP2 OR SWAP1 SSTORE JUMP JUMPDEST PUSH1 0x4 PUSH1 0x0 DUP8 DUP2 MSTORE PUSH1 0x20 ADD SWAP1 DUP2 MSTORE PUSH1 0x20 ADD PUSH1 0x0 KECCAK256 PUSH1 0x40 MLOAD DUP1 PUSH1 0xE0 ADD PUSH1 0x40 MSTORE DUP1 DUP8 PUSH1 0x1 PUSH1 0x1 PUSH1 0xA0 SHL SUB AND DUP2 MSTORE PUSH1 0x20 ADD DUP7 PUSH1 0x1 PUSH1 0x1 PUSH1 0xA0 SHL SUB AND DUP2 MSTORE PUSH1 0x20 ADD DUP6 PUSH1 0x5 DUP2 GT ISZERO PUSH2 0x38DF JUMPI PUSH2 0x38DF PUSH2 0x3D4B JUMP JUMPDEST DUP2 MSTORE PUSH1 0x20 ADD DUP5 PUSH1 0x5 DUP2 GT ISZERO PUSH2 0x38F6 JUMPI PUSH2 0x38F6 PUSH2 0x3D4B JUMP JUMPDEST DUP2 MSTORE PUSH1 0x20 ADD DUP4 DUP2 MSTORE PUSH1 0x20 ADD TIMESTAMP DUP2 MSTORE PUSH1 0x20 ADD CALLER NUMBER TIMESTAMP PUSH1 0x40 MLOAD PUSH1 0x20 ADD PUSH2 0x3941 SWAP4 SWAP3 SWAP2 SWAP1 PUSH1 0x60 SWAP4 SWAP1 SWAP4 SHL PUSH12 0xFFFFFFFFFFFFFFFFFFFFFFFF NOT AND DUP4 MSTORE PUSH1 0x14 DUP4 ADD SWAP2 SWAP1 SWAP2 MSTORE PUSH1 0x34 DUP3 ADD MSTORE PUSH1 0x54 ADD SWAP1 JUMP JUMPDEST PUSH1 0x40 DUP1 MLOAD DUP1 DUP4 SUB PUSH1 0x1F NOT ADD DUP2 MSTORE SWAP2 DUP2 MSTORE DUP2 MLOAD PUSH1 0x20 SWAP3 DUP4 ADD KECCAK256 SWAP1 SWAP3 MSTORE DUP4 SLOAD PUSH1 0x1 DUP1 DUP3 ADD DUP7 SSTORE PUSH1 0x0 SWAP6 DUP7 MSTORE SWAP5 DUP3 SWAP1 KECCAK256 DUP5 MLOAD PUSH1 0x5 SWAP3 DUP4 MUL SWAP1 SWAP2 ADD DUP1 SLOAD PUSH1 0x1 PUSH1 0x1 PUSH1 0xA0 SHL SUB NOT SWAP1 DUP2 AND PUSH1 0x1 PUSH1 0x1 PUSH1 0xA0 SHL SUB SWAP4 DUP5 AND OR DUP3 SSTORE SWAP4 DUP7 ADD MLOAD SWAP7 DUP2 ADD DUP1 SLOAD SWAP5 DUP6 AND SWAP8 SWAP1 SWAP3 AND SWAP7 DUP8 OR DUP3 SSTORE SWAP4 DUP6 ADD MLOAD SWAP5 SWAP6 SWAP4 SWAP5 SWAP4 SWAP1 SWAP3 PUSH1 0x1 PUSH1 0x1 PUSH1 0xA8 SHL SUB NOT AND OR SWAP1 PUSH1 0x1 PUSH1 0xA0 SHL SWAP1 DUP5 SWAP1 DUP2 GT ISZERO PUSH2 0x39D7 JUMPI PUSH2 0x39D7 PUSH2 0x3D4B JUMP JUMPDEST MUL OR SWAP1 SSTORE POP PUSH1 0x60 DUP3 ADD MLOAD PUSH1 0x1 DUP3 ADD DUP1 SLOAD PUSH1 0xFF PUSH1 0xA8 SHL NOT AND PUSH1 0x1 PUSH1 0xA8 SHL DUP4 PUSH1 0x5 DUP2 GT ISZERO PUSH2 0x3A05 JUMPI PUSH2 0x3A05 PUSH2 0x3D4B JUMP JUMPDEST MUL OR SWAP1 SSTORE POP PUSH1 0x80 DUP3 ADD MLOAD DUP2 PUSH1 0x2 ADD SSTORE PUSH1 0xA0 DUP3 ADD MLOAD DUP2 PUSH1 0x3 ADD SSTORE PUSH1 0xC0 DUP3 ADD MLOAD DUP2 PUSH1 0x4 ADD SSTORE POP POP POP POP POP POP POP POP JUMP JUMPDEST PUSH1 0x40 DUP1 MLOAD PUSH1 0xE0 DUP2 ADD DUP3 MSTORE PUSH1 0x1 PUSH1 0x1 PUSH1 0xA0 SHL SUB DUP7 DUP2 AND DUP1 DUP4 MSTORE PUSH1 0x20 DUP1 DUP5 ADD DUP9 DUP2 MSTORE DUP5 DUP7 ADD DUP9 DUP2 MSTORE PUSH1 0x60 DUP7 ADD DUP9 DUP2 MSTORE PUSH1 0x1 PUSH1 0x80 DUP9 ADD DUP2 DUP2 MSTORE TIMESTAMP PUSH1 0xA0 DUP11 ADD DUP2 DUP2 MSTORE PUSH1 0x0 PUSH1 0xC0 DUP13 ADD DUP2 DUP2 MSTORE DUP11 DUP3 MSTORE PUSH1 0x7 DUP11 MSTORE DUP14 DUP3 KECCAK256 SWAP13 MLOAD DUP14 SLOAD SWAP13 AND PUSH1 0x1 PUSH1 0x1 PUSH1 0xA0 SHL SUB NOT SWAP1 SWAP13 AND SWAP12 SWAP1 SWAP12 OR DUP13 SSTORE SWAP7 MLOAD DUP12 DUP6 ADD SSTORE SWAP5 MLOAD PUSH1 0x2 DUP12 ADD SSTORE SWAP3 MLOAD PUSH1 0x3 DUP11 ADD SSTORE MLOAD PUSH1 0x4 DUP10 ADD DUP1 SLOAD SWAP2 ISZERO ISZERO PUSH1 0xFF NOT SWAP3 DUP4 AND OR SWAP1 SSTORE SWAP3 MLOAD PUSH1 0x5 DUP10 ADD SSTORE SWAP6 MLOAD PUSH1 0x6 SWAP1 SWAP8 ADD SWAP7 SWAP1 SWAP7 SSTORE PUSH1 0x8 DUP4 MSTORE DUP7 DUP3 KECCAK256 DUP9 SWAP1 SSTORE PUSH1 0x9 DUP4 MSTORE SWAP1 DUP7 SWAP1 KECCAK256 DUP1 SLOAD SWAP1 SWAP2 AND SWAP1 SWAP4 OR SWAP1 SWAP3 SSTORE SWAP3 MLOAD SWAP2 DUP3 MSTORE DUP4 SWAP3 SWAP2 PUSH32 0x859C6B2878A47695A653DFFD0C43D1109B4F714F5C05F76CAA51A42AC04AC278 SWAP2 ADD PUSH1 0x40 MLOAD DUP1 SWAP2 SUB SWAP1 LOG3 POP POP POP POP JUMP JUMPDEST PUSH1 0x0 DUP1 DUP4 PUSH1 0x5 DUP2 GT ISZERO PUSH2 0x3B3F JUMPI PUSH2 0x3B3F PUSH2 0x3D4B JUMP JUMPDEST SUB PUSH2 0x3B61 JUMPI PUSH1 0x1 JUMPDEST DUP3 PUSH1 0x5 DUP2 GT ISZERO PUSH2 0x3B59 JUMPI PUSH2 0x3B59 PUSH2 0x3D4B JUMP JUMPDEST EQ SWAP1 POP PUSH2 0x3C11 JUMP JUMPDEST PUSH1 0x1 DUP4 PUSH1 0x5 DUP2 GT ISZERO PUSH2 0x3B75 JUMPI PUSH2 0x3B75 PUSH2 0x3D4B JUMP JUMPDEST SUB PUSH2 0x3BA4 JUMPI PUSH1 0x2 JUMPDEST DUP3 PUSH1 0x5 DUP2 GT ISZERO PUSH2 0x3B8F JUMPI PUSH2 0x3B8F PUSH2 0x3D4B JUMP JUMPDEST EQ DUP1 PUSH2 0x3B9D JUMPI POP PUSH1 0x5 PUSH2 0x3B47 JUMP JUMPDEST SWAP1 POP PUSH2 0x3C11 JUMP JUMPDEST PUSH1 0x2 DUP4 PUSH1 0x5 DUP2 GT ISZERO PUSH2 0x3BB8 JUMPI PUSH2 0x3BB8 PUSH2 0x3D4B JUMP JUMPDEST SUB PUSH2 0x3BED JUMPI PUSH1 0x3 JUMPDEST DUP3 PUSH1 0x5 DUP2 GT ISZERO PUSH2 0x3BD2 JUMPI PUSH2 0x3BD2 PUSH2 0x3D4B JUMP JUMPDEST EQ DUP1 PUSH2 0x3BE0 JUMPI POP PUSH1 0x4 PUSH2 0x3B7D JUMP JUMPDEST DUP1 PUSH2 0x3B9D JUMPI POP PUSH1 0x5 PUSH2 0x3B47 JUMP JUMPDEST PUSH1 0x3 DUP4 PUSH1 0x5 DUP2 GT ISZERO PUSH2 0x3C01 JUMPI PUSH2 0x3C01 PUSH2 0x3D4B JUMP JUMPDEST SUB PUSH2 0x3C0D JUMPI PUSH1 0x2 PUSH2 0x3BC0 JUMP JUMPDEST POP PUSH1 0x0 JUMPDEST SWAP3 SWAP2 POP POP JUMP JUMPDEST DUP3 DUP1 SLOAD DUP3 DUP3 SSTORE SWAP1 PUSH1 0x0 MSTORE PUSH1 0x20 PUSH1 0x0 KECCAK256 SWAP1 DUP2 ADD SWAP3 DUP3 ISZERO PUSH2 0x3C6C JUMPI SWAP2 PUSH1 0x20 MUL DUP3 ADD JUMPDEST DUP3 DUP2 GT ISZERO PUSH2 0x3C6C JUMPI DUP3 MLOAD DUP3 SLOAD PUSH1 0x1 PUSH1 0x1 PUSH1 0xA0 SHL SUB NOT AND PUSH1 0x1 PUSH1 0x1 PUSH1 0xA0 SHL SUB SWAP1 SWAP2 AND OR DUP3 SSTORE PUSH1 0x20 SWAP1 SWAP3 ADD SWAP2 PUSH1 0x1 SWAP1 SWAP2 ADD SWAP1 PUSH2 0x3C37 JUMP JUMPDEST POP PUSH2 0x3C78 SWAP3 SWAP2 POP PUSH2 0x3C7C JUMP JUMPDEST POP SWAP1 JUMP JUMPDEST JUMPDEST DUP1 DUP3 GT ISZERO PUSH2 0x3C78 JUMPI PUSH1 0x0 DUP2 SSTORE PUSH1 0x1 ADD PUSH2 0x3C7D JUMP JUMPDEST PUSH1 0x0 DUP1 PUSH1 0x40 DUP4 DUP6 SUB SLT ISZERO PUSH2 0x3CA4 JUMPI PUSH1 0x0 DUP1 REVERT JUMPDEST POP POP DUP1 CALLDATALOAD SWAP3 PUSH1 0x20 SWAP1 SWAP2 ADD CALLDATALOAD SWAP2 POP JUMP JUMPDEST DUP1 CALLDATALOAD PUSH1 0x1 PUSH1 0x1 PUSH1 0xA0 SHL SUB DUP2 AND DUP2 EQ PUSH2 0x1C41 JUMPI PUSH1 0x0 DUP1 REVERT JUMPDEST PUSH1 0x0 PUSH1 0x20 DUP3 DUP5 SUB SLT ISZERO PUSH2 0x3CDC JUMPI PUSH1 0x0 DUP1 REVERT JUMPDEST PUSH2 0x3CE5 DUP3 PUSH2 0x3CB3 JUMP JUMPDEST SWAP4 SWAP3 POP POP POP JUMP JUMPDEST PUSH1 0x0 PUSH1 0x20 DUP3 DUP5 SUB SLT ISZERO PUSH2 0x3CFE JUMPI PUSH1 0x0 DUP1 REVERT JUMPDEST POP CALLDATALOAD SWAP2 SWAP1 POP JUMP JUMPDEST PUSH1 0x0 DUP2 MLOAD DUP1 DUP5 MSTORE PUSH1 0x0 JUMPDEST DUP2 DUP2 LT ISZERO PUSH2 0x3D2B JUMPI PUSH1 0x20 DUP2 DUP6 ADD DUP2 ADD MLOAD DUP7 DUP4 ADD DUP3 ADD MSTORE ADD PUSH2 0x3D0F JUMP JUMPDEST POP PUSH1 0x0 PUSH1 0x20 DUP3 DUP7 ADD ADD MSTORE PUSH1 0x20 PUSH1 0x1F NOT PUSH1 0x1F DUP4 ADD AND DUP6 ADD ADD SWAP2 POP POP SWAP3 SWAP2 POP POP JUMP JUMPDEST PUSH4 0x4E487B71 PUSH1 0xE0 SHL PUSH1 0x0 MSTORE PUSH1 0x21 PUSH1 0x4 MSTORE PUSH1 0x24 PUSH1 0x0 REVERT JUMPDEST PUSH1 0x7 DUP2 LT PUSH2 0x3D71 JUMPI PUSH2 0x3D71 PUSH2 0x3D4B JUMP JUMPDEST SWAP1 MSTORE JUMP JUMPDEST PUSH1 0x6 DUP2 LT PUSH2 0x3D71 JUMPI PUSH2 0x3D71 PUSH2 0x3D4B JUMP JUMPDEST PUSH1 0x20 DUP2 MSTORE DUP2 MLOAD PUSH1 0x20 DUP3 ADD MSTORE PUSH1 0x20 DUP3 ADD MLOAD PUSH1 0x40 DUP3 ADD MSTORE PUSH1 0x40 DUP3 ADD MLOAD PUSH1 0x60 DUP3 ADD MSTORE PUSH1 0x0 PUSH1 0x60 DUP4 ADD MLOAD PUSH2 0x220 DUP1 PUSH1 0x80 DUP6 ADD MSTORE PUSH2 0x3DC2 PUSH2 0x240 DUP6 ADD DUP4 PUSH2 0x3D05 JUMP JUMPDEST SWAP2 POP PUSH1 0x80 DUP6 ADD MLOAD PUSH1 0x1F NOT DUP6 DUP5 SUB ADD PUSH1 0xA0 DUP7 ADD MSTORE PUSH2 0x3DDF DUP4 DUP3 PUSH2 0x3D05 JUMP JUMPDEST SWAP3 POP POP PUSH1 0xA0 DUP6 ADD MLOAD PUSH1 0xC0 DUP6 ADD MSTORE PUSH1 0xC0 DUP6 ADD MLOAD PUSH2 0x3DFE PUSH1 0xE0 DUP7 ADD DUP3 PUSH2 0x3D61 JUMP JUMPDEST POP PUSH1 0xE0 DUP6 ADD MLOAD PUSH2 0x100 DUP6 DUP2 ADD SWAP2 SWAP1 SWAP2 MSTORE DUP6 ADD MLOAD PUSH2 0x120 PUSH2 0x3E28 DUP2 DUP8 ADD DUP4 PUSH1 0x1 PUSH1 0x1 PUSH1 0xA0 SHL SUB AND SWAP1 MSTORE JUMP JUMPDEST DUP7 ADD MLOAD SWAP1 POP PUSH2 0x140 PUSH2 0x3E44 DUP7 DUP3 ADD DUP4 PUSH1 0x1 PUSH1 0x1 PUSH1 0xA0 SHL SUB AND SWAP1 MSTORE JUMP JUMPDEST DUP7 ADD MLOAD PUSH2 0x160 DUP7 DUP2 ADD SWAP2 SWAP1 SWAP2 MSTORE DUP7 ADD MLOAD PUSH2 0x180 DUP1 DUP8 ADD SWAP2 SWAP1 SWAP2 MSTORE DUP7 ADD MLOAD SWAP1 POP PUSH2 0x1A0 PUSH2 0x3E72 DUP2 DUP8 ADD DUP4 PUSH2 0x3D75 JUMP JUMPDEST DUP7 ADD MLOAD SWAP1 POP PUSH2 0x1C0 PUSH2 0x3E87 DUP7 DUP3 ADD DUP4 ISZERO ISZERO SWAP1 MSTORE JUMP JUMPDEST DUP7 ADD MLOAD SWAP1 POP PUSH2 0x1E0 PUSH2 0x3E9C DUP7 DUP3 ADD DUP4 ISZERO ISZERO SWAP1 MSTORE JUMP JUMPDEST DUP7 ADD MLOAD PUSH2 0x200 DUP7 DUP2 ADD SWAP2 SWAP1 SWAP2 MSTORE SWAP1 SWAP6 ADD MLOAD PUSH1 0xFF AND SWAP4 ADD SWAP3 SWAP1 SWAP3 MSTORE POP SWAP2 SWAP1 POP JUMP JUMPDEST PUSH1 0x0 DUP1 DUP4 PUSH1 0x1F DUP5 ADD SLT PUSH2 0x3ECE JUMPI PUSH1 0x0 DUP1 REVERT JUMPDEST POP DUP2 CALLDATALOAD PUSH8 0xFFFFFFFFFFFFFFFF DUP2 GT ISZERO PUSH2 0x3EE6 JUMPI PUSH1 0x0 DUP1 REVERT JUMPDEST PUSH1 0x20 DUP4 ADD SWAP2 POP DUP4 PUSH1 0x20 DUP3 DUP6 ADD ADD GT ISZERO PUSH2 0x3EFE JUMPI PUSH1 0x0 DUP1 REVERT JUMPDEST SWAP3 POP SWAP3 SWAP1 POP JUMP JUMPDEST DUP1 CALLDATALOAD DUP1 ISZERO ISZERO DUP2 EQ PUSH2 0x1C41 JUMPI PUSH1 0x0 DUP1 REVERT JUMPDEST PUSH1 0x0 DUP1 PUSH1 0x0 DUP1 PUSH1 0x0 DUP1 PUSH1 0x0 DUP1 PUSH1 0x0 DUP1 PUSH1 0x0 PUSH2 0x120 DUP13 DUP15 SUB SLT ISZERO PUSH2 0x3F37 JUMPI PUSH1 0x0 DUP1 REVERT JUMPDEST DUP12 CALLDATALOAD SWAP11 POP PUSH1 0x20 DUP13 ADD CALLDATALOAD SWAP10 POP PUSH8 0xFFFFFFFFFFFFFFFF DUP1 PUSH1 0x40 DUP15 ADD CALLDATALOAD GT ISZERO PUSH2 0x3F5C JUMPI PUSH1 0x0 DUP1 REVERT JUMPDEST PUSH2 0x3F6C DUP15 PUSH1 0x40 DUP16 ADD CALLDATALOAD DUP16 ADD PUSH2 0x3EBC JUMP JUMPDEST SWAP1 SWAP11 POP SWAP9 POP PUSH1 0x60 DUP14 ADD CALLDATALOAD DUP2 LT ISZERO PUSH2 0x3F82 JUMPI PUSH1 0x0 DUP1 REVERT JUMPDEST POP PUSH2 0x3F93 DUP14 PUSH1 0x60 DUP15 ADD CALLDATALOAD DUP15 ADD PUSH2 0x3EBC JUMP JUMPDEST SWAP1 SWAP8 POP SWAP6 POP PUSH1 0x80 DUP13 ADD CALLDATALOAD SWAP5 POP PUSH1 0xA0 DUP13 ADD CALLDATALOAD PUSH1 0x7 DUP2 LT PUSH2 0x3FB1 JUMPI PUSH1 0x0 DUP1 REVERT JUMPDEST SWAP4 POP PUSH1 0xC0 DUP13 ADD CALLDATALOAD SWAP3 POP PUSH1 0xE0 DUP13 ADD CALLDATALOAD SWAP2 POP PUSH2 0x3FCE PUSH2 0x100 DUP14 ADD PUSH2 0x3F05 JUMP JUMPDEST SWAP1 POP SWAP3 SWAP6 SWAP9 SWAP12 POP SWAP3 SWAP6 SWAP9 SWAP12 SWAP1 SWAP4 SWAP7 SWAP10 POP JUMP JUMPDEST PUSH1 0x60 DUP2 ADD PUSH2 0x3FEE DUP3 DUP7 PUSH2 0x3D75 JUMP JUMPDEST PUSH1 0x1 PUSH1 0x1 PUSH1 0xA0 SHL SUB SWAP4 SWAP1 SWAP4 AND PUSH1 0x20 DUP3 ADD MSTORE PUSH1 0x40 ADD MSTORE SWAP2 SWAP1 POP JUMP JUMPDEST PUSH1 0x0 DUP1 PUSH1 0x0 PUSH1 0x60 DUP5 DUP7 SUB SLT ISZERO PUSH2 0x401D JUMPI PUSH1 0x0 DUP1 REVERT JUMPDEST DUP4 CALLDATALOAD SWAP3 POP PUSH2 0x402D PUSH1 0x20 DUP6 ADD PUSH2 0x3CB3 JUMP JUMPDEST SWAP2 POP PUSH1 0x40 DUP5 ADD CALLDATALOAD SWAP1 POP SWAP3 POP SWAP3 POP SWAP3 JUMP JUMPDEST PUSH1 0x20 DUP1 DUP3 MSTORE DUP3 MLOAD DUP3 DUP3 ADD DUP2 SWAP1 MSTORE PUSH1 0x0 SWAP2 SWAP1 DUP5 DUP3 ADD SWAP1 PUSH1 0x40 DUP6 ADD SWAP1 DUP5 JUMPDEST DUP2 DUP2 LT ISZERO PUSH2 0x4075 JUMPI DUP4 MLOAD DUP4 MSTORE SWAP3 DUP5 ADD SWAP3 SWAP2 DUP5 ADD SWAP2 PUSH1 0x1 ADD PUSH2 0x4059 JUMP JUMPDEST POP SWAP1 SWAP7 SWAP6 POP POP POP POP POP POP JUMP JUMPDEST PUSH1 0x0 DUP1 PUSH1 0x0 DUP1 PUSH1 0x80 DUP6 DUP8 SUB SLT ISZERO PUSH2 0x4097 JUMPI PUSH1 0x0 DUP1 REVERT JUMPDEST PUSH2 0x40A0 DUP6 PUSH2 0x3CB3 JUMP JUMPDEST SWAP7 PUSH1 0x20 DUP7 ADD CALLDATALOAD SWAP7 POP PUSH1 0x40 DUP7 ADD CALLDATALOAD SWAP6 PUSH1 0x60 ADD CALLDATALOAD SWAP5 POP SWAP3 POP POP POP JUMP JUMPDEST PUSH1 0x20 DUP1 DUP3 MSTORE DUP3 MLOAD DUP3 DUP3 ADD DUP2 SWAP1 MSTORE PUSH1 0x0 SWAP2 SWAP1 PUSH1 0x40 SWAP1 DUP2 DUP6 ADD SWAP1 DUP7 DUP5 ADD DUP6 JUMPDEST DUP3 DUP2 LT ISZERO PUSH2 0x414E JUMPI DUP2 MLOAD DUP1 MLOAD PUSH1 0x1 PUSH1 0x1 PUSH1 0xA0 SHL SUB SWAP1 DUP2 AND DUP7 MSTORE DUP8 DUP3 ADD MLOAD AND DUP8 DUP7 ADD MSTORE DUP6 DUP2 ADD MLOAD PUSH2 0x4109 DUP8 DUP8 ADD DUP3 PUSH2 0x3D75 JUMP JUMPDEST POP PUSH1 0x60 DUP1 DUP3 ADD MLOAD PUSH2 0x411C DUP3 DUP9 ADD DUP3 PUSH2 0x3D75 JUMP JUMPDEST POP POP PUSH1 0x80 DUP2 DUP2 ADD MLOAD SWAP1 DUP7 ADD MSTORE PUSH1 0xA0 DUP1 DUP3 ADD MLOAD SWAP1 DUP7 ADD MSTORE PUSH1 0xC0 SWAP1 DUP2 ADD MLOAD SWAP1 DUP6 ADD MSTORE PUSH1 0xE0 SWAP1 SWAP4 ADD SWAP3 SWAP1 DUP6 ADD SWAP1 PUSH1 0x1 ADD PUSH2 0x40D7 JUMP JUMPDEST POP SWAP2 SWAP8 SWAP7 POP POP POP POP POP POP POP JUMP JUMPDEST PUSH1 0x0 DUP1 DUP4 PUSH1 0x1F DUP5 ADD SLT PUSH2 0x416D JUMPI PUSH1 0x0 DUP1 REVERT JUMPDEST POP DUP2 CALLDATALOAD PUSH8 0xFFFFFFFFFFFFFFFF DUP2 GT ISZERO PUSH2 0x4185 JUMPI PUSH1 0x0 DUP1 REVERT JUMPDEST PUSH1 0x20 DUP4 ADD SWAP2 POP DUP4 PUSH1 0x20 DUP3 PUSH1 0x5 SHL DUP6 ADD ADD GT ISZERO PUSH2 0x3EFE JUMPI PUSH1 0x0 DUP1 REVERT JUMPDEST PUSH1 0x0 DUP1 PUSH1 0x0 DUP1 PUSH1 0x40 DUP6 DUP8 SUB SLT ISZERO PUSH2 0x41B6 JUMPI PUSH1 0x0 DUP1 REVERT JUMPDEST DUP5 CALLDATALOAD PUSH8 0xFFFFFFFFFFFFFFFF DUP1 DUP3 GT ISZERO PUSH2 0x41CE JUMPI PUSH1 0x0 DUP1 REVERT JUMPDEST PUSH2 0x41DA DUP9 DUP4 DUP10 ADD PUSH2 0x415B JUMP JUMPDEST SWAP1 SWAP7 POP SWAP5 POP PUSH1 0x20 DUP8 ADD CALLDATALOAD SWAP2 POP DUP1 DUP3 GT ISZERO PUSH2 0x41F3 JUMPI PUSH1 0x0 DUP1 REVERT JUMPDEST POP PUSH2 0x4200 DUP8 DUP3 DUP9 ADD PUSH2 0x415B JUMP JUMPDEST SWAP6 SWAP9 SWAP5 SWAP8 POP SWAP6 POP POP POP POP JUMP JUMPDEST PUSH1 0x20 DUP1 DUP3 MSTORE DUP3 MLOAD DUP3 DUP3 ADD DUP2 SWAP1 MSTORE PUSH1 0x0 SWAP2 SWAP1 DUP5 DUP3 ADD SWAP1 PUSH1 0x40 DUP6 ADD SWAP1 DUP5 JUMPDEST DUP2 DUP2 LT ISZERO PUSH2 0x4075 JUMPI DUP4 MLOAD ISZERO ISZERO DUP4 MSTORE SWAP3 DUP5 ADD SWAP3 SWAP2 DUP5 ADD SWAP2 PUSH1 0x1 ADD PUSH2 0x4228 JUMP JUMPDEST PUSH1 0x0 DUP1 PUSH1 0x0 PUSH1 0x60 DUP5 DUP7 SUB SLT ISZERO PUSH2 0x425B JUMPI PUSH1 0x0 DUP1 REVERT JUMPDEST DUP4 CALLDATALOAD SWAP3 POP PUSH1 0x20 DUP5 ADD CALLDATALOAD PUSH1 0x6 DUP2 LT PUSH2 0x4271 JUMPI PUSH1 0x0 DUP1 REVERT JUMPDEST SWAP3 SWAP6 SWAP3 SWAP5 POP POP POP PUSH1 0x40 SWAP2 SWAP1 SWAP2 ADD CALLDATALOAD SWAP1 JUMP JUMPDEST PUSH1 0x0 DUP2 MLOAD DUP1 DUP5 MSTORE PUSH1 0x20 DUP1 DUP6 ADD SWAP5 POP DUP1 DUP5 ADD PUSH1 0x0 JUMPDEST DUP4 DUP2 LT ISZERO PUSH2 0x42BB JUMPI DUP2 MLOAD PUSH1 0x1 PUSH1 0x1 PUSH1 0xA0 SHL SUB AND DUP8 MSTORE SWAP6 DUP3 ADD SWAP6 SWAP1 DUP3 ADD SWAP1 PUSH1 0x1 ADD PUSH2 0x4296 JUMP JUMPDEST POP SWAP5 SWAP6 SWAP5 POP POP POP POP POP JUMP JUMPDEST PUSH1 0x20 DUP2 MSTORE DUP2 MLOAD PUSH1 0x20 DUP3 ADD MSTORE PUSH1 0x0 PUSH1 0x20 DUP4 ADD MLOAD PUSH2 0x42ED PUSH1 0x40 DUP5 ADD DUP3 PUSH1 0x1 PUSH1 0x1 PUSH1 0xA0 SHL SUB AND SWAP1 MSTORE JUMP JUMPDEST POP PUSH1 0x40 DUP4 ADD MLOAD PUSH1 0x1 PUSH1 0x1 PUSH1 0xA0 SHL SUB DUP2 AND PUSH1 0x60 DUP5 ADD MSTORE POP PUSH1 0x60 DUP4 ADD MLOAD PUSH1 0x80 DUP4 ADD MSTORE PUSH1 0x80 DUP4 ADD MLOAD PUSH1 0xA0 DUP4 ADD MSTORE PUSH1 0xA0 DUP4 ADD MLOAD PUSH1 0xC0 DUP4 ADD MSTORE PUSH1 0xC0 DUP4 ADD MLOAD PUSH2 0x4334 PUSH1 0xE0 DUP5 ADD DUP3 ISZERO ISZERO SWAP1 MSTORE JUMP JUMPDEST POP PUSH1 0xE0 DUP4 ADD MLOAD PUSH2 0x100 PUSH2 0x434A DUP2 DUP6 ADD DUP4 ISZERO ISZERO SWAP1 MSTORE JUMP JUMPDEST DUP5 ADD MLOAD PUSH2 0x120 DUP5 DUP2 ADD MSTORE SWAP1 POP PUSH2 0x4364 PUSH2 0x140 DUP5 ADD DUP3 PUSH2 0x4282 JUMP JUMPDEST SWAP5 SWAP4 POP POP POP POP JUMP JUMPDEST PUSH1 0x20 DUP2 MSTORE PUSH1 0x0 PUSH2 0x3CE5 PUSH1 0x20 DUP4 ADD DUP5 PUSH2 0x4282 JUMP JUMPDEST PUSH1 0x0 DUP1 PUSH1 0x40 DUP4 DUP6 SUB SLT ISZERO PUSH2 0x4392 JUMPI PUSH1 0x0 DUP1 REVERT JUMPDEST DUP3 CALLDATALOAD SWAP2 POP PUSH2 0x43A2 PUSH1 0x20 DUP5 ADD PUSH2 0x3F05 JUMP JUMPDEST SWAP1 POP SWAP3 POP SWAP3 SWAP1 POP JUMP JUMPDEST PUSH1 0x20 DUP1 DUP3 MSTORE PUSH1 0x29 SWAP1 DUP3 ADD MSTORE PUSH32 0x45766964656E636552656769737472793A2065766964656E636520646F657320 PUSH1 0x40 DUP3 ADD MSTORE PUSH9 0x1B9BDD08195E1A5CDD PUSH1 0xBA SHL PUSH1 0x60 DUP3 ADD MSTORE PUSH1 0x80 ADD SWAP1 JUMP JUMPDEST PUSH1 0x20 DUP1 DUP3 MSTORE PUSH1 0x2B SWAP1 DUP3 ADD MSTORE PUSH1 0x0 DUP1 MLOAD PUSH1 0x20 PUSH2 0x4A39 DUP4 CODECOPY DUP2 MLOAD SWAP2 MSTORE PUSH1 0x40 DUP3 ADD MSTORE PUSH11 0x39BAB832B91030B236B4B7 PUSH1 0xA9 SHL PUSH1 0x60 DUP3 ADD MSTORE PUSH1 0x80 ADD SWAP1 JUMP JUMPDEST PUSH1 0x20 DUP1 DUP3 MSTORE PUSH1 0x21 SWAP1 DUP3 ADD MSTORE PUSH32 0x45766964656E636552656769737472793A20696E76616C696420616464726573 PUSH1 0x40 DUP3 ADD MSTORE PUSH1 0x73 PUSH1 0xF8 SHL PUSH1 0x60 DUP3 ADD MSTORE PUSH1 0x80 ADD SWAP1 JUMP JUMPDEST PUSH1 0x20 DUP1 DUP3 MSTORE PUSH1 0x28 SWAP1 DUP3 ADD MSTORE PUSH1 0x0 DUP1 MLOAD PUSH1 0x20 PUSH2 0x4A39 DUP4 CODECOPY DUP2 MLOAD SWAP2 MSTORE PUSH1 0x40 DUP3 ADD MSTORE PUSH8 0x30B71030B236B4B7 PUSH1 0xC1 SHL PUSH1 0x60 DUP3 ADD MSTORE PUSH1 0x80 ADD SWAP1 JUMP JUMPDEST PUSH1 0x20 DUP1 DUP3 MSTORE PUSH1 0x23 SWAP1 DUP3 ADD MSTORE PUSH32 0x45766964656E636552656769737472793A206F666669636572206E6F7420666F PUSH1 0x40 DUP3 ADD MSTORE PUSH3 0x1D5B99 PUSH1 0xEA SHL PUSH1 0x60 DUP3 ADD MSTORE PUSH1 0x80 ADD SWAP1 JUMP JUMPDEST PUSH1 0x20 DUP1 DUP3 MSTORE PUSH1 0x2A SWAP1 DUP3 ADD MSTORE PUSH1 0x0 DUP1 MLOAD PUSH1 0x20 PUSH2 0x4A39 DUP4 CODECOPY DUP2 MLOAD SWAP2 MSTORE PUSH1 0x40 DUP3 ADD MSTORE PUSH10 0x1C9959DA5CDD195C9959 PUSH1 0xB2 SHL PUSH1 0x60 DUP3 ADD MSTORE PUSH1 0x80 ADD SWAP1 JUMP JUMPDEST PUSH1 0x20 DUP1 DUP3 MSTORE PUSH1 0x28 SWAP1 DUP3 ADD MSTORE PUSH32 0x45766964656E636552656769737472793A206163636F756E7420697320646561 PUSH1 0x40 DUP3 ADD MSTORE PUSH8 0x18DD1A5D985D1959 PUSH1 0xC2 SHL PUSH1 0x60 DUP3 ADD MSTORE PUSH1 0x80 ADD SWAP1 JUMP JUMPDEST PUSH1 0x1 DUP2 DUP2 SHR SWAP1 DUP3 AND DUP1 PUSH2 0x457B JUMPI PUSH1 0x7F DUP3 AND SWAP2 POP JUMPDEST PUSH1 0x20 DUP3 LT DUP2 SUB PUSH2 0xBC6 JUMPI PUSH4 0x4E487B71 PUSH1 0xE0 SHL PUSH1 0x0 MSTORE PUSH1 0x22 PUSH1 0x4 MSTORE PUSH1 0x24 PUSH1 0x0 REVERT JUMPDEST PUSH1 0x20 DUP1 DUP3 MSTORE PUSH1 0x2F SWAP1 DUP3 ADD MSTORE PUSH1 0x0 DUP1 MLOAD PUSH1 0x20 PUSH2 0x4A39 DUP4 CODECOPY DUP2 MLOAD SWAP2 MSTORE PUSH1 0x40 DUP3 ADD MSTORE PUSH15 0x30B71034B73B32B9BA34B3B0BA37B9 PUSH1 0x89 SHL PUSH1 0x60 DUP3 ADD MSTORE PUSH1 0x80 ADD SWAP1 JUMP JUMPDEST PUSH4 0x4E487B71 PUSH1 0xE0 SHL PUSH1 0x0 MSTORE PUSH1 0x11 PUSH1 0x4 MSTORE PUSH1 0x24 PUSH1 0x0 REVERT JUMPDEST PUSH1 0x0 PUSH1 0x1 DUP3 ADD PUSH2 0x4600 JUMPI PUSH2 0x4600 PUSH2 0x45D8 JUMP JUMPDEST POP PUSH1 0x1 ADD SWAP1 JUMP JUMPDEST PUSH4 0x4E487B71 PUSH1 0xE0 SHL PUSH1 0x0 MSTORE PUSH1 0x41 PUSH1 0x4 MSTORE PUSH1 0x24 PUSH1 0x0 REVERT JUMPDEST PUSH1 0x1F DUP3 GT ISZERO PUSH2 0x4667 JUMPI PUSH1 0x0 DUP2 DUP2 MSTORE PUSH1 0x20 DUP2 KECCAK256 PUSH1 0x1F DUP6 ADD PUSH1 0x5 SHR DUP2 ADD PUSH1 0x20 DUP7 LT ISZERO PUSH2 0x4644 JUMPI POP DUP1 JUMPDEST PUSH1 0x1F DUP6 ADD PUSH1 0x5 SHR DUP3 ADD SWAP2 POP JUMPDEST DUP2 DUP2 LT ISZERO PUSH2 0x4663 JUMPI DUP3 DUP2 SSTORE PUSH1 0x1 ADD PUSH2 0x4650 JUMP JUMPDEST POP POP POP JUMPDEST POP POP POP JUMP JUMPDEST DUP2 MLOAD PUSH8 0xFFFFFFFFFFFFFFFF DUP2 GT ISZERO PUSH2 0x4686 JUMPI PUSH2 0x4686 PUSH2 0x4607 JUMP JUMPDEST PUSH2 0x469A DUP2 PUSH2 0x4694 DUP5 SLOAD PUSH2 0x4567 JUMP JUMPDEST DUP5 PUSH2 0x461D JUMP JUMPDEST PUSH1 0x20 DUP1 PUSH1 0x1F DUP4 GT PUSH1 0x1 DUP2 EQ PUSH2 0x46CF JUMPI PUSH1 0x0 DUP5 ISZERO PUSH2 0x46B7 JUMPI POP DUP6 DUP4 ADD MLOAD JUMPDEST PUSH1 0x0 NOT PUSH1 0x3 DUP7 SWAP1 SHL SHR NOT AND PUSH1 0x1 DUP6 SWAP1 SHL OR DUP6 SSTORE PUSH2 0x4663 JUMP JUMPDEST PUSH1 0x0 DUP6 DUP2 MSTORE PUSH1 0x20 DUP2 KECCAK256 PUSH1 0x1F NOT DUP7 AND SWAP2 JUMPDEST DUP3 DUP2 LT ISZERO PUSH2 0x46FE JUMPI DUP9 DUP7 ADD MLOAD DUP3 SSTORE SWAP5 DUP5 ADD SWAP5 PUSH1 0x1 SWAP1 SWAP2 ADD SWAP1 DUP5 ADD PUSH2 0x46DF JUMP JUMPDEST POP DUP6 DUP3 LT ISZERO PUSH2 0x471C JUMPI DUP8 DUP6 ADD MLOAD PUSH1 0x0 NOT PUSH1 0x3 DUP9 SWAP1 SHL PUSH1 0xF8 AND SHR NOT AND DUP2 SSTORE JUMPDEST POP POP POP POP POP PUSH1 0x1 SWAP1 DUP2 SHL ADD SWAP1 SSTORE POP JUMP JUMPDEST PUSH1 0x1 PUSH1 0x1 PUSH1 0xA0 SHL SUB DUP5 AND DUP2 MSTORE PUSH1 0x60 DUP2 ADD PUSH2 0x4749 PUSH1 0x20 DUP4 ADD DUP6 PUSH2 0x3D61 JUMP JUMPDEST DUP3 PUSH1 0x40 DUP4 ADD MSTORE SWAP5 SWAP4 POP POP POP POP JUMP JUMPDEST PUSH1 0x20 DUP1 DUP3 MSTORE PUSH1 0x2E SWAP1 DUP3 ADD MSTORE PUSH1 0x0 DUP1 MLOAD PUSH1 0x20 PUSH2 0x4A39 DUP4 CODECOPY DUP2 MLOAD SWAP2 MSTORE PUSH1 0x40 DUP3 ADD MSTORE PUSH14 0x32BB34B232B731B29037BBB732B9 PUSH1 0x91 SHL PUSH1 0x60 DUP3 ADD MSTORE PUSH1 0x80 ADD SWAP1 JUMP JUMPDEST PUSH1 0x20 DUP1 DUP3 MSTORE PUSH1 0x23 SWAP1 DUP3 ADD MSTORE PUSH32 0x45766964656E636552656769737472793A20696E76616C696420726563697069 PUSH1 0x40 DUP3 ADD MSTORE PUSH3 0x195B9D PUSH1 0xEA SHL PUSH1 0x60 DUP3 ADD MSTORE PUSH1 0x80 ADD SWAP1 JUMP JUMPDEST PUSH1 0x20 DUP1 DUP3 MSTORE PUSH1 0x2D SWAP1 DUP3 ADD MSTORE PUSH32 0x45766964656E636552656769737472793A2063616E6E6F74207472616E736665 PUSH1 0x40 DUP3 ADD MSTORE PUSH13 0x39103A37903CB7BAB939B2B633 PUSH1 0x99 SHL PUSH1 0x60 DUP3 ADD MSTORE PUSH1 0x80 ADD SWAP1 JUMP JUMPDEST PUSH1 0x20 DUP1 DUP3 MSTORE PUSH1 0x2A SWAP1 DUP3 ADD MSTORE PUSH32 0x45766964656E636552656769737472793A20726563697069656E74206E6F7420 PUSH1 0x40 DUP3 ADD MSTORE PUSH10 0x1C9959DA5CDD195C9959 PUSH1 0xB2 SHL PUSH1 0x60 DUP3 ADD MSTORE PUSH1 0x80 ADD SWAP1 JUMP JUMPDEST PUSH1 0x20 DUP1 DUP3 MSTORE PUSH1 0x33 SWAP1 DUP3 ADD MSTORE PUSH32 0x45766964656E636552656769737472793A2063616E6E6F74207472616E736665 PUSH1 0x40 DUP3 ADD MSTORE PUSH19 0x72207465726D696E616C2065766964656E6365 PUSH1 0x68 SHL PUSH1 0x60 DUP3 ADD MSTORE PUSH1 0x80 ADD SWAP1 JUMP JUMPDEST PUSH1 0x80 DUP2 ADD PUSH2 0x48CE DUP3 DUP8 PUSH2 0x3D75 JUMP JUMPDEST PUSH2 0x48DB PUSH1 0x20 DUP4 ADD DUP7 PUSH2 0x3D75 JUMP JUMPDEST PUSH1 0x1 PUSH1 0x1 PUSH1 0xA0 SHL SUB SWAP4 SWAP1 SWAP4 AND PUSH1 0x40 DUP3 ADD MSTORE PUSH1 0x60 ADD MSTORE SWAP3 SWAP2 POP POP JUMP JUMPDEST PUSH4 0x4E487B71 PUSH1 0xE0 SHL PUSH1 0x0 MSTORE PUSH1 0x32 PUSH1 0x4 MSTORE PUSH1 0x24 PUSH1 0x0 REVERT JUMPDEST PUSH1 0x0 PUSH1 0xFF DUP3 AND PUSH1 0xFF DUP2 SUB PUSH2 0x4922 JUMPI PUSH2 0x4922 PUSH2 0x45D8 JUMP JUMPDEST PUSH1 0x1 ADD SWAP3 SWAP2 POP POP JUMP JUMPDEST PUSH1 0x20 DUP1 DUP3 MSTORE PUSH1 0x28 SWAP1 DUP3 ADD MSTORE PUSH32 0x45766964656E636552656769737472793A207265717565737420646F6573206E PUSH1 0x40 DUP3 ADD MSTORE PUSH8 0x1BDD08195E1A5CDD PUSH1 0xC2 SHL PUSH1 0x60 DUP3 ADD MSTORE PUSH1 0x80 ADD SWAP1 JUMP JUMPDEST PUSH1 0x20 DUP1 DUP3 MSTORE PUSH1 0x22 SWAP1 DUP3 ADD MSTORE PUSH32 0x45766964656E636552656769737472793A20616C726561647920657865637574 PUSH1 0x40 DUP3 ADD MSTORE PUSH2 0x1959 PUSH1 0xF2 SHL PUSH1 0x60 DUP3 ADD MSTORE PUSH1 0x80 ADD SWAP1 JUMP JUMPDEST PUSH1 0x20 DUP1 DUP3 MSTORE PUSH1 0x23 SWAP1 DUP3 ADD MSTORE PUSH32 0x45766964656E636552656769737472793A20726571756573742063616E63656C PUSH1 0x40 DUP3 ADD MSTORE PUSH3 0x1B1959 PUSH1 0xEA SHL PUSH1 0x60 DUP3 ADD MSTORE PUSH1 0x80 ADD SWAP1 JUMP INVALID 0xC3 0xAC PUSH3 0xDAF0E8 DUP14 PC 0x2B 0xBD MSTORE8 DIV PUSH13 0xC181F59CD6389AE21D9040D16B SUB ISZERO ISZERO XOR JUMP 0x49 LOG4 SWAP9 SMOD KECCAK256 0x5C 0xE4 0xD3 SSTORE MULMOD 0x2E CREATE2 0xA8 LOG1 DUP16 JUMP 0xE8 SWAP2 EXTCODECOPY DELEGATECALL LOG2 ADD 0xFB 0xE2 DUP8 DUP3 JUMPDEST MULMOD JUMP SWAP4 0xC2 OR PUSH22 0x45766964656E636552656769737472793A2063616C6C PUSH6 0x72206973206E PUSH16 0x7420A264697066735822122029948099 JUMP 0xFB 0x21 0xE8 SHR 0xA7 0xA5 BLOCKHASH 0x29 0x22 0xE5 CODESIZE 0xE7 0xE9 0xEF 0xB9 DUP16 0xB6 STOP SWAP4 PUSH17 0x737589EB74C0BE64736F6C634300081400 CALLER "},"methodIdentifiers":{"ADMIN_ROLE()":"75b238fc","AUDITOR_ROLE()":"6e1d616e","INVESTIGATOR_ROLE()":"315e6dd1","approveTransfer(bytes32)":"ba33984a","batchVerifyEvidence(bytes32[],bytes32[])":"898e3be4","cancelTransferRequest(bytes32)":"8ecf7d5f","deactivateOfficer(address)":"4719c01d","evidenceCounter()":"b87c1114","executeTransfer(bytes32)":"bdf8f103","forceArchive(bytes32,bytes32)":"3cb36bb0","getEvidenceByCase(bytes32)":"4b8bbabb","getEvidenceDetails(bytes32)":"1b92c4d7","getEvidenceHistory(bytes32)":"5bbef012","getEvidenceStatus(bytes32)":"227e6aa9","getOfficerDetails(address)":"8c8b79bd","getRoleOf(address)":"e4d92da1","getTransferRequest(bytes32)":"c8f3ac2a","getVerificationLog(bytes32)":"c93380c6","isFileHashRegistered(bytes32)":"4aba8826","isRegistered(address)":"c3c5a547","quickVerify(bytes32,bytes32)":"03263c24","reactivateOfficer(address)":"0cda2a94","registerEvidence(bytes32,bytes32,string,string,bytes32,uint8,bytes32,uint256,bool)":"1c22a82d","registerOfficer(address,bytes32,bytes32,bytes32)":"59d83d2c","requestTransfer(bytes32,address,bytes32)":"3c80e4b7","requiredApprovals()":"99c1aadc","setRequiredApprovals(uint256)":"222a242e","setSensitiveFlag(bytes32,bool)":"fef15fec","superAdmin()":"29575f6a","totalEvidenceCount()":"2e7b09e3","transferEvidence(bytes32,address,bytes32)":"731b1c11","transferSuperAdmin(address)":"0c6dd9fd","updateEvidenceStatus(bytes32,uint8,bytes32)":"a2575918","verifyEvidence(bytes32,bytes32)":"dd498ee0"}}}}}